:1000000002200153B1DF53B2DF22220226D60A1B9F
:100010007E0400B48D107E3407D0AD312E3401F44F
:100020000225B7021DB4C29674307E1428B87E042F
:1000300000FF7E7005122133742A7E1428B37E04DB
:1000400000FF7E700512213374217E700112254954
:1000500074227E700112254974247E701A1225497B
:1000600074257E701912254974267E700F12254959
:1000700074207E700E12254974277E70FF12254968
:100080007E340096122519D29622220223C8C2C8B5
:100090001226A074FF1226A0D2C82202223E02031A
:1000A000856E00807CB1337CB033680D0468EF7CD2
:1000B000B5337CB43378037F10220468E17D50921D
:1000C000F77D457D51BF2140067C807F017F121264
:1000D00003487EA1D05CB004780320D5C17CB00475
:1000E00078075002B2D502038D92D5BE80FF68F624
:1000F0007CB89CB06C00602AB418057C4102036196
:1001000050FB80032F00047C9B5E900778F630E460
:10011000067C437D106D0030E3087C437C327C21FB
:100120000A0030F5199F10780E2202038A1B80689E
:10013000F92F1150020B707CB530E7F1801B2D3187
:100140007CB5A5397C5B50110B80780302038D1EB2
:10015000341350034E60801A2B0203615D22680D38
:100160005D0078122D220B4068099F11222D000B93
:100170000078F90203851203485C800B806808242C
:100180008150072CB0500A02038D2CB040030203AB
:100190008A7C8B5D1178267CB17CA5BE1080680AB4
:1001A0005D33780DA5BD80057F100203776D00805B
:1001B000307F017C5B7CB17CA5AD1280245D3378FF
:1001C00006A5BD80F080E1CA887D41AD437CB17C4D
:1001D000A5AD122D1450020B047C5BAD232F01DA68
:1001E00088A42D05BE008040060B80780480982FDF
:1001F000007C437C507C617C72020361BE24FFFF63
:100200006806BE04FFFF78030203851203485CB052
:100210000468F57CB8A54868EF7CB870039F11228C
:10022000A5B8000302038D2E008150079C8038077B
:1002300002038A9C8050ED0A51C2E74D51780302B7
:1002400003777E5400807E901A6C0080061B9068B5
:10025000142F11BF1040049F104CAB0330E7EECABF
:10026000A86CAA80E8DA39DA587C4ABE5080500A75
:100270001B8068BC2F1150020B7002036174F86C74
:10028000AA6E40806E0080BEB0FF68277C837C979A
:100290005C3B5C7BBF10682AF4400D7C382D15F464
:1002A0005C3B500F0B04800B7C792D35F45C7B504C
:1002B000020B24BF10680B7CB020E7067CB420E75B
:1002C00001B3227EA020800C7EA01080057EA008B5
:1002D0006C556D333392D5500A6E34FFFF6E24FF98
:1002E000FF0B1CA5EC3340062F11D5F0F6227CBA8B
:1002F000247EA2D5137C767C65A5CC92E77C5B221C
:100300007F507EC400007ED4014D7E940311020311
:10031000C64001227CEACA89CA5BCA6B122455DA3C
:100320006BDA5BDA897E9403117CAE227F707F5199
:100330007E6F016F7E94033B0203C64005E47A7B27
:10034000B0227A7BB00B7C222D0092D50E104E107D
:10035000807D422D445002B2D54E50806C447CB812
:10036000222C4450120B1C7E40005E507FBE1800B1
:100370000078040B806816A2D57CB8137C4B7CB542
:1003800092E77C5B227E1CFFFF229F11227E24FFCE
:100390008020D5026C456D3322540F2490D4344014
:1003A000D430F30CBEB0414007BEB05B50022420F5
:1003B0004CCC68021BC00B84D389944CCC680B7462
:1003C000201203B080F5CA3B6D889F337CAE7E5B04
:1003D000B00B5C7007C37D38DA3B8994B42569C2E1
:1003E000F37E5BB00B5CA5F824D0BEB00A501B7E38
:1003F000500A20F60DAC5CA52D7CCB70034EF001AD
:1004000080DDAC5DA52D7CDB80D524CFBEB01AA5E8
:10041000E850055E00DFD2F390079BA3E4936011E0
:10042000BCB078F77417934CAB30F6B34EF08080C5
:10043000AEA3E4936010BCB078F77416937C3B7461
:1004400023937C2B89147CB0801374201203B0207A
:10045000F205BEC00250F31B6D29B600011203B0B5
:100460000203BB1B6E691600020B6A00BE08000087
:1004700078087E0400FF7E1427FF20F21E4CCC6813
:100480001A7F10E47E1B804C8868070B1C04BCBDDF
:1004900078F2C2F6CA0B12059ADA0B7E0BB060C076
:1004A000CA0B1203B0DA0B0B0C4CDD68EE1BD078D4
:1004B000EA80ADD2F07E101080037E10085EB05F3F
:1004C000800AD2F67E100A80057E100AC2F66D11EF
:1004D0009F117E00201B6C7E6B7030F6021A372055
:1004E000F1051B6C7E6B6030F6041A261A2430F07E
:1004F000051B6D0B6A20A5EC3382F692F6500A7C40
:10050000EA9F229F217F127CAE4C44780F7C457C71
:10051000567C676C772E00F878EF80122F117CB331
:10052000337C3B9CB140047C3B0B70A5D8EE7CB285
:1005300030E005DAB8C44C3BCA380B207E00207E80
:100540003000BE18000078C1BE1008780730F404EF
:10055000C2F480B5CA287CB2BCBD38027CBD12058D
:100560009ADA28BC2D500A1BD0E4CA2812039980BD
:10057000F07CB213DAB84004C4CAB8C4CA28BEF0CA
:100580008040095CDD7805A5DA0260065EF07F1226
:100590000399DA28A5DADA0203BBBEF001680F304E
:1005A000F402240220F50620F70330F6010420F2BD
:1005B00029BCBC5025CAB87CBF13B0E674205011CA
:1005C00074307C8A5E80F068081205DA5EA00F80C5
:1005D000031203B0DAB8BCBC78DB30F40F7430120D
:1005E00003B0745830F30274781203B030F6057417
:1005F0002D0203B0742B20F5F8742020F7F3221B92
:100600006C7E6BB010F1021B6C20F60B30E704F42B
:1006100004D2F27CCB800520E7057CDB0203DF5EA1
:10062000F07F80F81B6E691600020B6A0030F0073D
:100630006D221B0A200B0D1B0A800203CAE46C22E8
:10064000BE3007500B7F1F2D312E34FFF77E39B09F
:10065000227CBF20E7A8742E4EF0800203B0120760
:1006600084403D7CBD7003047CDB12089B7C3D4CC8
:100670003368101B307CBE20E40912063D70044C28
:100680003378F07CBD7CD3BEA0FD481CBCAB5818B1
:10069000E49CBA2CB31801E47CDB02072512078422
:1006A000406E7CBD0412089B7AFBA07CAE7CBDA290
:1006B000F492F0C2F44002600104240512059A7E0F
:1006C00030FF0B3012063DCA3812039920F0044C5B
:1006D000DD6803120651DA38BC3D78E6740E120369
:1006E00099742B7EFBA030F707742D6EA0FF0BA032
:1006F0007AFBA01203B07EA00A7EFBB0847AFBA036
:100700001203997EFBB01203999EF800080203BB06
:10071000D2F27ED00002047A12078440F37CBA2C15
:10072000BD0412089B7AFBA07CBA7CAE30E701E4E2
:100730000420F4044CDD6805D2F0C2F4042CBD1290
:10074000059A6C337EFBB0601B20E712147AFBB075
:1007500012063DCA38120399DA380B3080E6047A63
:10076000FBB01B3012063DCA381203994CDD6807F6
:100770001206511BD080E19EF8000930F0031206EA
:10078000510203BB7CEA7CAF10F7037ED0067CFAF3
:100790001B6E693600020B6A200207E32D2B204CEA
:1007A0004248232E0053584F44494355502A4E4641
:1007B000454700042080010200104063B5BAC2C260
:1007C0004FC9B3FF24189D5E040404040404040408
:1007D00005060706064E614E002B494E46002D4980
:1007E0004E46007D522D557CBE92E67CEB7CBA6075
:1007F0001F0470287CB5C2E77E0400FF60067E14EB
:1008000007D5D3227E1407DE40047E1407D9D322F5
:10081000DA099F22CA2BCA2BC3CA09220A0A7E14EC
:100820004D10AD109E083AF09E10267CB5C2E77EB2
:10083000A0567C9BA46E54FFFF2E54C511ACA92D6D
:1008400015E4A539CAB8CA1B20E70A12090EDA1B3B
:100850001201FC800AF40412090EDA1B12015CDAA0
:10086000A87CB5337CB4334E50806C4424822F1165
:100870001478FBDA497407BE400A40099E400ACA50
:100880000201140BA0CA486C442F117F012F112FB5
:10089000112F101478EFCA48CA49227F0F20E73A77
:1008A000BEB007400274070A0B2D109E1400097E8B
:1008B00019B02EB0FB501F4C116817E47A19B01B09
:1008C000147E19B0047A19B0B40A0BE47A19B0A5F1
:1008D000D9ED0BA074017A19B0225EE0BF223F80EF
:1008E00000004120000042C80000447A0000461C7D
:1008F000400047C35000497424004B1896804CBEFA
:10090000BC205A0E1BCA6753C21C749DC5AE7C7BAB
:1009100060065407681623231209337CB7543868DD
:100920000A7F1012093012015C7F01227CB7543813
:1009300003241C6CAA2E5408DE7E4400FF0B2A0000
:100940006912000222C2D57CB430E708B2D56E2409
:10095000FFFF0B247CB630E712B2D56E34FFFF0BDD
:10096000348D326E24FFFF0B2480028D3230D50689
:100970006E34FFFF0B34227D51AD037D027D21AD2E
:10098000052D12AD352D21226D0074104D00780B10
:100990004D2278278D317D126D22227D437D326D6F
:1009A000222F112D445002A50FBF1040049F100BA1
:1009B000901478ED7F016D227D34227D417D138D71
:1009C000247D022F004004BD0440049D040B141438
:1009D00078F17D237D317D106D0022000000000044
:1009E000000000002F000000000700070000147F37
:1009F000147F1400242A7F2A120062640813230043
:100A0000364955225000000503000000001C224119
:100A100000000041221C000014083E0814000808D1
:100A20003E0808000000A060000008080808080050
:100A30000060600000002010080402003E5149459B
:100A40003E0000427F400000426151494600214182
:100A5000454B31001814127F1000274545453900D9
:100A60003C4A4949300001710905030036494949AA
:100A70003600064949291E0000363600000000569F
:100A8000360000000814224100001414141414004D
:100A9000004122140800020151090600324959514F
:100AA0003E007C1211127C007F49494936003E41CC
:100AB000414122007F4141221C007F4949494100B8
:100AC0007F09090901003E4149497A007F08080869
:100AD0007F0000417F4100002040413F01007F082E
:100AE000142241007F40404040007F020C027F0002
:100AF0007F0408107F003E4141413E007F09090903
:100B000006003E4151215E007F09192946004649F1
:100B10004949310001017F0101003F4040403F0051
:100B20001F2040201F003F4038403F00631408143E
:100B30006300070870080700615149454300007FC2
:100B400041410000552A552A55000041417F0000CF
:100B50000402010204004040404040000001020441
:100B600000002054545478007F48444438003844EE
:100B700044442000384444487F00385454541800FA
:100B8000087E0901020018A4A4A47C007F080404C4
:100B9000780000447D4000004080847D00007F108C
:100BA0002844000000417F4000007C0418047800C5
:100BB0007C0804047800384444443800FC2424248D
:100BC000180018242418FC007C0804040800485469
:100BD00054542000043F444020003C4040207C000E
:100BE0001C2040201C003C4030403C004428102881
:100BF00044001CA0A0A07C004464544C4414141471
:100C000014141400000000000000000000000000A8
:100C1000000000000000F800000000000000333079
:100C200000000000100C06100C0600000000000080
:100C300000000040C07840C0784000043F04043FFA
:100C4000040400007088FC08300000001820FF2118
:100C50001E0000F008F000E018000000211C031E38
:100C6000211E0000F00888700000001E21232419B6
:100C700027211010160E00000000000000000000E8
:100C8000000000000000E018040200000000071847
:100C900020400000020418E0000000004020180777
:100CA000000000404080F0804040000202010F013F
:100CB000020200000000F0000000000101011F011D
:100CC000010100000000000000000080B070000082
:100CD0000000000000000000000000000101010110
:100CE00001010100000000000000000030300000A1
:100CF0000000000000000080601804006018060179
:100D000000000000E010080810E000000F10202094
:100D1000100F00001010F8000000000020203F20FD
:100D20002000000070080808887000003028242285
:100D3000213000003008888848300000182020202A
:100D4000110E000000C02010F80000000704242449
:100D50003F240000F8088888080800001921202096
:100D6000110E0000E0108888180000000F112020EC
:100D7000110E0000380808C83808000000003F00C5
:100D80000000000070880808887000001C222121E3
:100D9000221C0000E010080810E0000000312222B0
:100DA000110F00000000C0C0000000000000303043
:100DB00000000000000080000000000000806000D3
:100DC000000000000080402010080000010204081C
:100DD000102000404040404040400004040404040F
:100DE00004040000081020408000000020100804C7
:100DF000020100007048080808F0000000003036CA
:100E0000010000C030C828E810E00007182724239C
:100E1000140B000000C038E0000000203C23020258
:100E200027382008F8888888700000203F2020207C
:100E3000110E00C0300808080838000718202020CC
:100E400010080008F808080810E000203F202020C3
:100E5000100F0008F88888E8081000203F202023A1
:100E600020180008F88888E8081000203F200003B8
:100E7000000000C0300808083800000718202022B1
:100E80001E020008F808000008F808203F210101B0
:100E9000213F20000808F8080800000020203F201B
:100EA00020000000000808F8080800C08080807F4B
:100EB00000000008F888C028180800203F200126FC
:100EC00038200008F8080000000000203F20202003
:100ED00020300008F8F800F8F80800203F003F0034
:100EE0003F200008F830C00008F808203F20000725
:100EF000183F00E01008080810E0000F1020202024
:100F0000100F0008F808080808F000203F21010130
:100F1000010000E01008080810E0000F1824243831
:100F2000504F0008F8888888887000203F20000310
:100F30000C30200070880808083800003820212173
:100F4000221C00180808F8080818000000203F209C
:100F500000000008F808000008F808001F20202002
:100F6000201F000878880000C83808000007380EE5
:100F7000010000F80800F80008F800033C0700072B
:100F80003C0300081868808068180820302C030390
:100F90002C30200838C800C83808000000203F2046
:100FA00000000010080808C8380800203826212052
:100FB000201800000000FE020202000000007F4036
:100FC000404000000C30C00000000000000001069E
:100FD00038C00000020202FE000000004040407FD6
:100FE00000000000000402020204000000000000F3
:100FF0000000000000000000000000808080808071
:101000008080800002020400000000000000000058
:10101000000000000080808080000000192422224F
:10102000223F2008F8008080000000003F112020AF
:10103000110E000000008080800000000E112020B2
:10104000201100000000808088F800000E11202090
:10105000103F200000808080800000001F2222229C
:10106000221300008080F0888888180020203F200C
:101070002000000000808080808000006B949494A9
:1010800093600008F8008080800000203F2100006D
:10109000203F2000809898000000000020203F2082
:1010A000200000000000809898000000C080808030
:1010B0007F000008F8000080808000203F24022D7F
:1010C000302000000808F8000000000020203F2029
:1010D0002000008080808080808000203F20003FB2
:1010E00020003F8080008080800000203F210000A1
:1010F000203F200000808080800000001F202020F2
:10110000201F00808000808000000080FFA1202040
:10111000110E000000008080808000000E11202051
:10112000A0FF80808080008080800020203F2120E0
:10113000000100000080808080800000332424248F
:10114000241900008080E0808000000000001F2043
:101150002000008080000000808000001F202020F0
:10116000103F20808080000080808000010E3008C9
:1011700006010080800080008080800F300C030C0E
:10118000300F0000808000808080000020312E0E13
:10119000312000808080000080808080818E7018E7
:1011A00006010000808080808080000021302C2299
:1011B00021300000000000807C02020000000000DE
:1011C0003F404000000000FF00000000000000FF62
:1011D0000000000002027C800000000040403F0050
:1011E00000000000060101020204040000000000EB
:1011F0000000000000F010101010FF10101010F090
:1012000000000000000F04040404FF040404040FA1
:101210000000004040405F555555755555555F409D
:101220004040000040200F094989790909090F2031
:1012300040000000FE02424ACA4A4ACA4A4A4202E2
:10124000FE000000FF40504C4340404F50505C4077
:10125000FF00000000F888888888FF88888888F860
:1012600000000000001F080808087F888888889F01
:1012700080F00080828282828282E2A2928A8682CA
:10128000808000000000000040807F00000000001F
:10129000000000101010FF109008888888FF8888D0
:1012A0008808000444827F01808040432C10284637
:1012B0008180000010101010D030FF30D0121C10B0
:1012C00010000010080402010000FF0000010204E9
:1012D000081000CA3B7E34002D1225CC7E34002D30
:1012E0001225E174037AB301797E3401F4122519D1
:1012F000121BED7A1F00EA7E3400021225196D11CF
:101300007E0441707E1F00EA12027D384612278358
:1013100074017AB301797E340001122531121BED7C
:101320007A1F00F27E34000212251974037AB30189
:10133000797E34000112253174057AB301797E3447
:101340000640122519121BED7A1F00EE7E340002B2
:101350001225196D777E6441707E1F00EA7F0312AB
:10136000027D280512279580477E0F00EE7E7F00C4
:10137000F27F1712027D400E7F177F0312027D2835
:101380000512279E80207E0F00EE7E1F00F21202C3
:101390007D38107E1F00EE7F0312027D2805122784
:1013A0008C80031227A77E34000112253112278377
:1013B000DA3B22CA3B7CD37CC67D727A7301667AA3
:1013C000B30165E47AB301697AB3016ABED00878E3
:1013D0000674027AB30169E402146F740A7EA301F1
:1013E000670A2A0A3C9D321B341225607D278D2313
:1013F0007E24000A8D327A5301687EB3016A703907
:101400000A2C1B247E7301670A37BD32582B7EB32A
:101410000168701F0A1D1E147E5301690A252D21C3
:10142000AD327E5301650A552D537E7301667E6091
:1014300020803274017AB3016A0A3D1E347E530162
:10144000690A252D237E7301670A37AD327E530169
:10145000650A552D537E7301667E6301680A262E48
:101460002400307C657C5D1215477EB30167047AE9
:10147000B30167BEC3016728030213DBDA3B221204
:1014800027DC74AE6C7712226CE46C7712226C74D9
:10149000106C7712226C74406C7712226C74816C21
:1014A0007712226C74CF6C7712226C74A16C771255
:1014B000226C74C86C7712226C74A66C7712226C42
:1014C00074A86C7712226C743F6C7712226C74D300
:1014D0006C7712226CE46C7712226C74D56C7712E4
:1014E000226C74806C7712226C74D96C7712226C27
:1014F00074F16C7712226C74DA6C7712226C7412AD
:101500006C7712226C74DB6C7712226C74406C77EF
:1015100012226C74206C7712226C74026C77122287
:101520006C748D6C7712226C74146C7712226C744C
:10153000A46C7712226C74A66C7712226C1221D8DC
:1015400074AF6C7702226CCA3B7CF57CA67CE77C8E
:10155000DB0A257D321E347A7301296D117A170159
:101560002ABEF008780A7E1400067A17012C801E25
:101570007D121E141E141E145E24000768067E24AD
:10158000000180026D222D21AD327A37012C0A3AFA
:101590009E3400207CC77CBD7C7E1223786D338016
:1015A000587E7301290A377E27012A8D234D227820
:1015B0000EBEF00868097CBD7C7E0BE0122378BE6D
:1015C000F008780F7E7006AC7C2E37012A2E340985
:1015D000DB8012BEF010782F7E7010AC7C2E3701AD
:1015E0002A2E340C037A71827A6183E4937E70012F
:1015F00012226C7E37012A0B347A37012A7E37019A
:101600002CBE37012A389ADA3B22121F237E34007F
:10161000061225197E0800E212208570727EA30052
:10162000E2BEA04C78097EB300E3B459028060BEEC
:10163000A052780B7EB300E3B4590474028052BE0A
:10164000A04D780B7EB300E3B4500474038042BE17
:10165000A047780B7EB300E3B4520474048032BE1A
:10166000A04B780B7EB300E3B4590474058022BE0E
:10167000A042780B7EB300E3B45A0474068012BE15
:10168000A05778117EB300E3B44C0A74078002744B
:10169000017AB300B37EB300B31BB16816146816A9
:1016A000146816146816146816146816240678153B
:1016B000021E1D0219EA02177002008A0216C602F3
:1016C00012D302000A22121F237E340006122519AB
:1016D0007E0800D2122085600302176F7EB300DA05
:1016E000B4050512279580757EB300DDB408051298
:1016F00027A780697EB300DBB4060512278C805DC6
:101700007EB300DCB4070512279E80517EB300DF54
:10171000B40A167EB300E9047AB300E97E7300E9E7
:10172000BE706440387464801A7EB300E0B40B1954
:101730007EB300E9147AB300E97E7300E9BE7064F9
:10174000281BE47AB300E980147EB300DEB4090DEF
:101750001227836D331225CC6D331225E17E730081
:10176000E90A371225CC7E7300E90A370225E12207
:10177000121F237E3400061225197E0800D2122083
:101780008560030218177EB300DAB40504740D8077
:101790002A7EB300DDB40804740E801F7EB300DB24
:1017A000B40604740280147EB300DCB40704740130
:1017B00080097EB300DEB4090874186C776D22804E
:1017C000537EB300DFB40A247EB300E8047AB3008A
:1017D000E87E7300E8BE701E4006741E7AB300E80F
:1017E00074046C777E6300E80A2680287EB300E0EC
:1017F000B40B247EB300E8147AB300E87E7300E8EB
:10180000BE701E4005E47AB300E874056C777E6311
:1018100000E80A26022321227EB301037003021886
:10182000B97EB30110B416187EB300F6047AB30083
:10183000F67E7300F6BE7064400674647AB300F6F8
:101840007EB30111B418177EB300F6147AB300F614
:101850007E7300F6BE70642805E47AB300F67E73EA
:1018600000F60A371225CC7E7300F60A371225E1FE
:101870007EB30112B40A0512279580387EB3011396
:10188000B40B051227A7802C7EB30114B40C0512EB
:10189000278C80207EB30115B40D0512279E80147D
:1018A0007EB30116B40E0D1227836D331225CC6D55
:1018B000331225E1E47AB30103227EB301037003FE
:1018C0000219527EB30110B4161C7EB300F7047ADD
:1018D000B300F77E7300F7BE701E4006741E7AB325
:1018E00000F7740480207EB30111B418247EB30085
:1018F000F7147AB300F77E7300F7BE701E4005E45C
:101900007AB300F774056C777E6300F70A2612231A
:10191000217EB30117B41104740D802A7EB301181F
:10192000B41704740E801F7EB30119B4120474013D
:1019300080147EB3011AB41304740280097EB301CB
:101940001BB4140974186C776D22122321E47AB346
:10195000010322CA3B7F307A53015A7A6301597AD4
:101960007301587AB301576D337A37015B7E730187
:101970005A7D235E24000768067E24000180026DE4
:10198000221E341E341E342D327A73015AE48049EB
:101990007EB301577EA301580A2A7EA3015D0A3A4D
:1019A0002D32122378E4801E7E37015B7D230B24C9
:1019B0007A27015B2D377D267E1BB07E70011222B7
:1019C0006C7EB3015E047AB3015E7E730159BE730F
:1019D000015E38D47EB3015D047AB3015D7E73018C
:1019E0005ABE73015D38A9DA3B22CAF8121F237E62
:1019F0003400061225197E0800C812208570737EF7
:101A00007300CA0A277E3400649D327CF70A3712BD
:101A100025CC0A3F1225E17EF300CFBEF064500AC8
:101A2000BEF03740051227A78048BEF02D380ABE09
:101A3000F000400512279580397EF300D1BEF06496
:101A4000500ABEF037400512278C8026BEF02D3894
:101A50000ABEF000400512279E8017BEF0375012D4
:101A6000BEF02D280D1227836D331225CC6D331255
:101A700025E1DAF822E47E34FEB67E24007E7A1B6D
:101A8000B07E34FEEC7A1BB074607E14FEE87E04F7
:101A9000007E7A0BB07E14FEE97A0BB074117A1BCB
:101AA000B0E47E34FEF07A1BB074EF7E34FEF17A3F
:101AB0001BB0E47E34FEF27A1BB074637E34FEF316
:101AC0007A1BB0E47E34FEF57A1BB07E34FEF67AE3
:101AD0001BB07E34FEF77A1BB07E34FEF87A1BB062
:101AE00074057E34FEB57A1BB074807E34FEFD7AB8
:101AF0001BB074017E34FEE07A1BB022CA3B7CF539
:101B00007CD67CE77CCB0A357D131E141E141E1474
:101B10007D235E24000768067E24000180026D227A
:101B20002D21AD327A37001E6D33803B0A3F7E2770
:101B3000001C8D234D2278097CBC7C7E0BE0122397
:101B400078BEF010782F7E7020AC7D2E37001C2ED2
:101B50003411F37A71827A6183E4937E70011222E8
:101B60006C7E37001C0B347A37001C7E37001EBE9B
:101B700037001C38B7DA3B22CA3B7F30122412A24E
:101B8000B4E4337865A2B4E43368FAE47AB3015F6D
:101B90001224E87CAB7EB3015F0A4B19A4016004F8
:101BA0007AB3015FB405E97E7301610A077E7301B0
:101BB000600A172D107E6301620A062D017E630103
:101BC000630A162D107E6301640A26BD21781B3935
:101BD0007300027E730161397300037E7301627AC0
:101BE0003B707E73016339730001DA3B22CA3BE428
:101BF0007AB301259F33122663D2B330B3FDD28E60
:101C000020B3FDC28E7EB30125047AB30125E58D94
:101C10000A2B7E340100AD32E58B0A2B2D327A3748
:101C20000126758D00758B007E270126E41202C8FF
:101C30007E14B7177E043A5112015C7F017A1F01AE
:101C4000287F131200A47F317EB30125B405A76D50
:101C5000117E0440A07F131201FC7A1F0128DA3B99
:101C600022CA3B7A6301277F307A7301267AB30157
:101C700025E47AB30128804A7EB301257E730126CC
:101C80007E6301287CA60BA07AA301280A267F0385
:101C90002D127E0B607E5301271215477EA301276C
:101CA000BEA008780C7EB3012524067AB3012580F6
:101CB000110A3A7E2400021209452E7301257A7317
:101CC00001257E7301280A372D377D267E1BB070D3
:101CD000A7DA3B22E47E34FEB27E24007E7A1BB07B
:101CE0007E34FECD7A1BB074607E14FECB7E040081
:101CF0007E7A0BB074407A1BB0E47E34FED07A1B3F
:101D0000B074177E34FED17A1BB0744E7E34FED28E
:101D10007A1BB0741F7E34FED37A1BB0E47E34FE8F
:101D2000DB7A1BB07E34FEDC7A1BB074807E34FE1E
:101D3000B17A1BB07E34FEDD7A1BB074017E34FEB6
:101D4000C07A1BB0227E5428A97E4400FF6932006D
:101D500003692200017E2B307A1F01267A33012588
:101D60007E5428AE7E4400FF6932000369220001E0
:101D70007E2B307A1F012B7A33012A74307E0801C2
:101D8000257E700512213374107E08012A7E7005AD
:101D90001221A2E40A3B0973012A0A2B09A2012598
:101DA000BCA7780604BEB00540EABEB0056803745F
:101DB000FF22E422CA59CA1BE59830E05B5398FE23
:101DC000E5997AB300F87EB300F8BEB023681E7EB2
:101DD000A300F87CBA047AB300F87E7301047CB7E0
:101DE000047AB301040A3719A30105802BE4801398
:101DF0007E7301220A2709720105197200F97EB368
:101E00000122047AB301227E730104BE73012238D9
:101E1000DFE47AB30104D201DA1BDA59327EB3016E
:101E200003603F7EB3011CB415066D337A3700E6BC
:101E30007EB3011DB410087E3400017A3700E67EBF
:101E4000B3011EB40F087E3400027A3700E67E34F8
:101E500000017E08010F7E2400131222C8E47AB329
:101E600001037E3700E61B34680B1B34680A0B3510
:101E700078090227FE0218180218BA2275E900A98B
:101E8000D7BA75EA001227B01227E91227E3121415
:101E90007F1227FB12277A1227B91227701227EF19
:101EA000D2AF74016C777E1428BD7E0400FF7E6083
:101EB00010121C611220C0E412216B74037AB3016A
:101EC0007974066C777E2400141223211212D380B9
:101ED000FB7F707C3B7EB30123146819047841A515
:101EE000BBA50B74017AB301237A7B308032E47A8C
:101EF000B30123802B7E2301240A322D3F7D2E7ACD
:101F00001B307EB30124047AB301247E730124BE06
:101F10007013400C74017AB30124E47AB3012322D4
:101F200074FF22C296742A7E1428B37E0400FF7EBA
:101F3000700512213374217E700112254974227EAE
:101F4000700112254974257E701912254974317E5D
:101F5000701412254974267E700F12254974207E54
:101F6000700F12254974277E70FF122549D29622E0
:101F7000CA3B7AB301787F307A370176802A7E189F
:101F8000000A7E3301780A136D001225017F017F5C
:101F90001312098A7E14000A1209887F202E280055
:101FA000307E3701761223EE7EA301787CBA147A54
:101FB000B301784CAA78C7DA3B227E7301747A7336
:101FC00001751224357AB301747EA30175BEA00198
:101FD000780C7EB30174700674017AB30173BEA0ED
:101FE00002780C7EB30174700674027AB30173BE7A
:101FF000A003780C7EB30174700674037AB3017386
:10200000227584017E44041FE47A49B01B4478F9A8
:102010007EF8017DC200C2017E0400FF7E14280309
:102020000B0A405D44681A692000020B0E0B4480C5
:102030000A7E0BB07A29B00B240B0C1B4478F2807B
:10204000DF021E7CCAF8C29674A07E70141221337F
:10205000D296A283E43378FA740712008E7CFB7464
:10206000277C7F1225497CBF30E40C74E17E70FF31
:102070001225497410800B7CBF30E5047420800267
:1020800074FFDAF822CA3B7F30A283E433782C74E1
:102090000712008E7C7B7AB3017D74271225497E5E
:1020A000B3017D30E61574617F037E70141221A2A6
:1020B00074E27E70FF122549E480027401DA3B224B
:1020C000801D7E1428917E0400FF1203007E1428D8
:1020D0008F7E0400FF1203007E3403E812251912DC
:1020E0001D4570DE7E1428767E0400FF1203007EFC
:1020F00014288F7E0400FF0203007CAB7F706D22EA
:102100006C66800F0A162D1F7D0E7E0B700A172D30
:10211000210B60BCA638ED6E24FFFF0B240A162DA0
:102120001F7D0E7A0B407C750A267F072D123970B1
:10213000000122CA3B7A73012F7F30C2C81226A049
:102140007AB30130E4800D7E3BB00B741226A07E82
:10215000B30131047AB301317E73012FBE730131B3
:1021600038E5D2C87EB30130DA3B227CAB6C770A0B
:102170004A7CB760053E441478FB4D4468067E24D3
:10218000000180026D225E2400806804D2C78002B4
:10219000C2C7C2C5D2C50B70BE700840D2C2C6D27B
:1021A000C622CA3B7A73012F7F30C2C81226A0E430
:1021B000800F74FF1226A07A3BB00B747EB30131FE
:1021C000047AB301317E73012FBE73013138E3D23B
:1021D000C87EB30130DA3B22CA796CFF0A5F2E5405
:1021E00000B06C7712226CE46C7712226C74106C65
:1021F0007712226C6CEEE47E700112226C0BE0BE52
:10220000E08078F20BF0BEF00840D1DA7922CA798A
:102210007CFB7E340001747E1223EE6CEE800F7E18
:102220003400010A2E09B2014D1223EE0BE0BCFE70
:1022300038ED7E34000174EF1223EEDA7922CA59A8
:10224000CA787EB3017A047AB3017A74287EA30136
:102250007A8CAB7AA3017A7E73017ABE73017950CE
:1022600004D2CA8002C2CADA78DA5932CA797CF753
:102270007CEB1225F674781223A11226824CFF689B
:102280000474408001E41223A11226827CBE122332
:10229000A1122682122691DA79227CA57C577C7BBA
:1022A00074FF7AB3014D74067AB3014E7A73014F0D
:1022B0007A5301507A6301517AA301527E08014D8D
:1022C0001220FA740802220ECA3B7A27016D7F3071
:1022D0007A37016B800C7E37016B7E3BB00B74123A
:1022E00023EE7E37016D7D231B247A27016D4D334C
:1022F00078E4DA3B22CAF87CFB4CFB780E74C86C9D
:102300007712226C74A16C7712226CBEF001780EE9
:1023100074C06C7712226C74A06C7712226CDAF89D
:10232000227C677C7B74FF7AB3014D74067AB3011B
:102330004E7A73014F7A6301507A4301517A530107
:10234000527E08014D1220FA740802220ECA797AD0
:102350000F004B7D737E3400497E2400007A1F01FC
:102360006F7E08004F7E1F004B12032C7D377E08C6
:10237000004F122493DA7922CAF87CFB0A572E54B4
:1023800000B06C7712226C7CBF54F0C4540F441020
:102390006C7712226C7CBF540F6C7712226CDAF8C7
:1023A00022CA797CFB7EE008C2A57CBF30E704D25C
:1023B000A48002C2A41226FAD2A51226FAC2A53E11
:1023C000F01BE078E3DA7922CA7BCAB8CA1BCA0BD1
:1023D000E5AC30E01053ACFEE5AD7E08010F121EF7
:1023E000D17AB30103DA0BDA1BDAB8DA7B327CABD1
:1023F0002E34FFFD68100B3578177AA199E59830D7
:10240000E1FB5398FD227AA1ADE5AC30E1FB53AC82
:10241000FD22D2B47E1800B21B1C78FCC2B47E34FC
:10242000D4BE7E2400011B1C78FCD2B47E1800B2FE
:102430001B1C78FC226CAAA284E43378037EA001E2
:10244000A285E43378037EA002A286E43378037E7B
:10245000A0037CBA22CAF87CFBBEF00A78097E345D
:102460000001740D1223EE7E3400017CBF1223EEB6
:102470007CBFDAF822CAF87CFB4CFB780774A66CA8
:102480007712226CBEF001780774A76C7712226C69
:10249000DAF822CA3B7F307A37017B800C7E370125
:1024A0007B7E3BB00B741223EE7E3BB070EFDA3BC9
:1024B00022759850438E01438E0475D78F75D6FDD3
:1024C000438E10E5B8F5B843B710D2AC2275AC1006
:1024D000A9D28E75D78F75D6FDA9D48EE5DFF5DF2D
:1024E000E5EEF5EEA9D3AF22CA796CFF6CEE3EF0B3
:1024F0001225774CFB0BE0BEE00840F27CBFDA7996
:10250000227F707F617E18000180057F06120977A7
:102510007F071B7C4D0178F322CA797D7380077E8B
:102520003403E812260A7D371B744D3378F1DA79CB
:1025300022CA797D7380077E3403E81225197D371E
:102540001B744D3378F1DA7922CA797CF7C2C8124C
:1025500026A07CEB7CBF1226A0D2C87CBEDA7922F2
:102560007CA77C3B7E34000180040A23AD327C2AA8
:102570001BA0A5BA00F42220B4FD30B4FD7E1801E2
:10258000661B1C78FC30B403740122E422748D6C49
:102590007712226C74146C7712226C74AF6C770211
:1025A000226C748D6C7712226C74106C7712226C12
:1025B00074AE6C7702226C7D037E34FEDB7E2400D9
:1025C0007E7A1B007E34FEDC7A1B10227D037E3473
:1025D000FEF57E24007E7A1B007E34FEF67A1B1008
:1025E000227D037E34FEF77E24007E7A1B007E343B
:1025F000FEF87A1B1022D2A41226FAD2A51226FACD
:10260000C2A41226FAC2A50226FACA797D738003F3
:102610001227127D371B744D3378F5DA7922538EE9
:102620007F5389F0758AC0758C63C28DD28CD2A914
:10263000225391C75392C775CA0075C900D2C8C248
:102640009522438E4053890F758B00758D00C28F84
:10265000D28E2243DD0275D52075D4D143DD08A981
:10266000D5AF22C28200D2827E18003A1B1C78FCB1
:10267000C282225392BF5391BF5394F75393F7D220
:102680009622D2A41226FAD2A51226FAC2A50226B2
:10269000FAC2A41226FAD2A51226FAD2A40226FA67
:1026A0007AB1CFE5CD30E7FB53CDC0E5CF2275CF72
:1026B000FFE5CD30E7FB53CDC0E5CF225393FB536D
:1026C00094FB53B1F753B2F72253B1FC53B2FC530E
:1026D00093FC5394FC22CA59CA78121FBADA78DAEA
:1026E00059327EA30173E47AB301737CBA227AB1C2
:1026F000CFE5CD30E7FB53CDC0227EA0017C7A1B15
:10270000A0A5BF00F8220000007E18176E1B1C78E1
:10271000FC220000007E1800041B1C78FC22000034
:10272000007E18001C1B1C78FC220000007E180094
:102730003A1B1C78FC220000007E1800761B1C78D7
:10274000FC220000007E18012A1B1C78FC220000DD
:10275000007E1800581B1C78FC220000007E180226
:10276000561B1C78FC2275CF0075CDC075CED322C8
:10277000C282C2B31226BC0226421227C71200032D
:1027800002261EC2A6C2A7C2A2C2A322C2A2D2A36E
:10279000D2A6C2A722D2A2C2A3D2A6C2A722C2A6F2
:1027A000D2A7D2A2C2A322C2A2D2A3C2A6D2A722D9
:1027B0001226C91224B10224CD53B1EF53B1EF2236
:1027C00053B31F53B41F2253948F53938F225395A7
:1027D000304396CF2253917F439180225395CF531C
:1027E00096CF221227CE021A751226730227F512EF
:1027F00027D50226531226310227660227C0222837
:102800003029000001017903000A014D0000000099
:1028100000000000000000010103000001010400AD
:102820000001012201000101230000010124010037
:102830000100B305000A00C820302000000000009D
:102840000000000200E60001000100E814000100A1
:10285000E923000400EA00000000000400EE00008C
:102860000000000400F200000000000100F6230058
:102870000100F71400004E524632344C30315F43B1
:102880006865636B20737563636565642021000A66
:10289000004E524632344C30315F436865636B20E2
:1028A0006661696C6564202100C2C2C2C2C20000B8
:1028B00000000000C2C2C2C200C2C2C2C248454C2F
:0428C0004C4F210058
:00000001FF
