:100000000213A9CAF87CFB4CFB780774A66C771224
:10001000153EBEF001780774A76C7712153EDAF82A
:0100200022BD
:1000230002120C0000000000000000002F0000007E
:10003300000700070000147F147F1400242A7F2A7E
:10004300120062640813230036495522500000054C
:1000530003000000001C224100000041221C00009C
:1000630014083E08140008083E0808000000A060B9
:100073000000080808080800006060000000201065
:10008300080402003E5149453E0000427F40000003
:100093004261514946002141454B31001814127FFA
:1000A30010002745454539003C4A49493000017154
:1000B30009050300364949493600064949291E0006
:1000C30000363600000000563600000008142241B6
:1000D3000000141414141400004122140800020137
:1000E30051090600324959513E007C1211127C001D
:1000F3007F49494936003E41414122007F41412227
:100103001C007F49494941007F09090901003E411B
:1001130049497A007F0808087F0000417F410000B9
:100123002040413F01007F08142241007F404040AE
:1001330040007F020C027F007F0408107F003E41D5
:1001430041413E007F09090906003E4151215E00FD
:100153007F091929460046494949310001017F01B8
:1001630001003F4040403F001F2040201F003F4010
:1001730038403F0063140814630007087008070041
:10018300615149454300007F41410000552A552AEA
:1001930055000041417F0000040201020400404079
:1001A30040404000000102040000205454547800F1
:1001B3007F48444438003844444420003844444889
:1001C3007F00385454541800087E0901020018A413
:1001D300A4A47C007F080404780000447D40000050
:1001E3004080847D00007F102844000000417F4050
:1001F30000007C04180478007C0804047800384468
:1002030044443800FC242424180018242418FC0037
:100213007C0804040800485454542000043F44401C
:1002230020003C4040207C001C2040201C003C401F
:1002330030403C004428102844001CA0A0A07C00AF
:100243004464544C441414141414140000000000A7
:100253000000000000000000000000000000F800A3
:10026300000000000000333000000000100C0610F6
:100273000C0600000000000000000040C07840C0F1
:10028300784000043F04043F040400007088FC0825
:10029300300000001820FF211E0000F008F000E0ED
:1002A30018000000211C031E211E0000F0088870A6
:1002B3000000001E2123241927211010160E000010
:1002C3000000000000000000000000000000E01833
:1002D300040200000000071820400000020418E098
:1002E3000000000040201807000000404080F0801C
:1002F3004040000202010F01020200000000F00072
:100303000000000101011F010101000000000000C5
:1003130000000080B070000000000000000000003A
:1003230000000000010101010101010000000000C3
:1003330000000000303000000000000000000080DA
:10034300601804006018060100000000E0100808AF
:1003530010E000000F102020100F00001010F80014
:100363000000000020203F20200000007008080843
:10037300887000003028242221300000300888884B
:100383004830000018202020110E000000C020106B
:10039300F8000000070424243F240000F80888889C
:1003A3000808000019212020110E0000E0108888A1
:1003B300180000000F112020110E0000380808C893
:1003C3003808000000003F000000000070880808A3
:1003D300887000001C222121221C0000E010080864
:1003E30010E0000000312222110F00000000C0C005
:1003F300000000000000303000000000000080001A
:100403000000000000806000000000000080402029
:100413001008000001020408102000404040404042
:1004230040400004040404040404000008102040B5
:100433008000000020100804020100007048080832
:1004430008F0000000003036010000C030C828E882
:1004530010E0000718272423140B000000C038E025
:10046300000000203C23020227382008F8888888EF
:10047300700000203F202020110E00C03008080823
:10048300083800071820202010080008F80808087A
:1004930010E000203F202020100F0008F88888E893
:1004A300081000203F20202320180008F88888E83F
:1004B300081000203F200003000000C03008080897
:1004C30038000007182020221E020008F808000048
:1004D30008F808203F210101213F20000808F808FF
:1004E3000800000020203F2020000000000808F83A
:1004F300080800C08080807F00000008F888C028BA
:10050300180800203F20012638200008F8080000C2
:10051300000000203F20202020300008F8F800F8D9
:10052300F80800203F003F003F200008F830C000DB
:1005330008F808203F200007183F00E010080808CB
:1005430010E0000F10202020100F0008F808080802
:1005530008F000203F210101010000E01008080815
:1005630010E0000F18242438504F0008F8888888BA
:10057300887000203F2000030C302000708808089A
:100583000838000038202121221C00180808F80828
:100593000818000000203F2000000008F8080000B1
:1005A30008F808001F202020201F0008788800007A
:1005B300C83808000007380E010000F80800F800EA
:1005C30008F800033C0700073C0300081868808014
:1005D30068180820302C03032C30200838C800C8C2
:1005E3003808000000203F2000000010080808C859
:1005F3003808002038262120201800000000FE02C1
:100603000202000000007F40404000000C30C000A8
:10061300000000000000010638C00000020202FED4
:10062300000000004040407F000000000004020280
:1006330002040000000000000000000000000000B1
:10064300000000808080808080808000020204009F
:100653000000000000000000000000000080808017
:100663008000000019242222223F2008F800808005
:10067300000000003F112020110E000000008080C8
:10068300800000000E112020201100000000808057
:1006930088F800000E112020103F20000080808089
:1006A300800000001F222222221300008080F08895
:1006B3008888180020203F202000000000808080D0
:1006C300808000006B94949493600008F80080800D
:1006D300800000203F210000203F200080989800E8
:1006E3000000000020203F20200000000000809830
:1006F30098000000C08080807F000008F800008020
:10070300808000203F24022D302000000808F800DC
:100713000000000020203F20200000808080808097
:10072300808000203F20003F20003F8080008080A9
:10073300800000203F210000203F200000808080B7
:10074300800000001F202020201F00808000808068
:1007530000000080FFA12020110E00000000808017
:10076300808000000E112020A0FF80808080008008
:1007730080800020203F2120000100000080808035
:100783008080000033242424241900008080E0802A
:100793008000000000001F20200000808000000077
:1007A300808000001F202020103F208080800000D8
:1007B30080808000010E30080601008080008000E8
:1007C3008080800F300C030C300F0000808000808D
:1007D3008080000020312E0E3120008080800000B8
:1007E30080808080818E7018060100008080808068
:1007F3008080000021302C22213000000000008086
:100803007C020200000000003F404000000000FFA7
:1008130000000000000000FF0000000002027C80D6
:100823000000000040403F000000000006010102FC
:1008330002040400000000000000000000F010109B
:100843001010FF10101010F000000000000F04043F
:100853000404FF040404040F0000004040405F55FB
:100863005555755555555F404040000040200F09D0
:100873004989790909090F2040000000FE02424A14
:10088300CA4A4ACA4A4A4202FE000000FF40504C8C
:100893004340404F50505C40FF00000000F8888800
:1008A3008888FF88888888F800000000001F0808EF
:1008B30008087F888888889F80F0008082828282EF
:1008C3008282E2A2928A8682808000000000000079
:1008D30040807F0000000000000000101010FF1097
:1008E3009008888888FF88888808000444827F01EC
:1008F300808040432C102846818000001010101087
:10090300D030FF30D0121C10100000100804020178
:100913000000FF0000010204081000C2D57CB430BF
:10092300E708B2D56E24FFFF0B247CB630E712B282
:10093300D56E34FFFF0B348D326E24FFFF0B248002
:10094300028D3230D5066E34FFFF0B34227D51AD5C
:10095300037D027D21AD052D12AD352D21226D00C4
:1009630074104D00780B4D2278278D317D126D2246
:10097300227D437D326D222F112D445002A50FBFDE
:100983001040049F100B901478ED7F016D227D348D
:10099300227D417D138D247D022F004004BD044040
:1009A300049D040B141478F17D237D317D106D00BB
:1009B300227F507EC400007ED400D97E9409C502F4
:1009C3000A294001227CEACA89CA5BCA6B121663F0
:1009D300DA6BDA5BDA897E9409C57CAE227F707F9D
:1009E300517E6F00FE7E9409EF020A294005E47AE6
:1009F3007BB0227A7BB00B7C22540F2490D43440FA
:100A0300D430F30CBEB0414007BEB05B500224208B
:100A13004CCC68021BC00B84D389944CCC680B74F8
:100A230020120A1380F5CA3B6D889F337CAE7E5B30
:100A3300B00B5C7007C37D38DA3B8994B42569C277
:100A4300F37E5BB00B5CA5F824D0BEB00A501B7ECE
:100A5300500A20F60DAC5CA52D7CCB70034EF00143
:100A630080DDAC5DA52D7CDB80D524CFBEB01AA57F
:100A7300E850055E00DFD2F3900C9FA3E49360116E
:100A8300BCB078F77414934CAB30F6B34EF080805F
:100A9300AEA3E4936010BCB078F77413937C3B74FB
:100AA3001D937C2B89147CB080137420120A1320AD
:100AB300F205BEC00250F31B6D29B60001120A13E2
:100AC300020A1E1B6E691600020B6A00BE080000B4
:100AD30078087E0400FF7E1418FB20F21E4CCC68BD
:100AE3001A7F10E47E1B804C8868070B1C04BCBD76
:100AF30078F2C2F6CA0B120BFDDA0B7E0BB060C0A4
:100B0300CA0B120A13DA0B0B0C4CDD68EE1BD07800
:100B1300EA80ADD2F07E101080037E10085EB05FD5
:100B2300800AD2F67E100A80057E100AC2F66D1185
:100B33009F117E00201B6C7E6B7030F6021A3720EB
:100B4300F1051B6C7E6B6030F6041A261A2430F014
:100B5300051B6D0B6A20A5EC3382F692F6500A7CD6
:100B6300EA9F229F217F127CAE4C44780F7C457C08
:100B7300567C676C772E00F878EF80122F117CB3C8
:100B8300337C3B9CB140047C3B0B70A5D8EE7CB21C
:100B930030E005DAB8C44C3BCA380B207E00207E17
:100BA3003000BE18000078C1BE1008780730F40486
:100BB300C2F480B5CA287CB2BCBD38027CBD120B1E
:100BC300FDDA28BC2D500A1BD0E4CA281209FC8088
:100BD300F07CB213DAB84004C4CAB8C4CA28BEF061
:100BE3008040095CDD7805A5DA0260065EF07F12BD
:100BF30009FCDA28A5DADA020A1EBEF001680F3012
:100C0300F402240220F50620F70330F6010420F253
:100C130029BCBC5025CAB87CBF13B0E67420501160
:100C230074307C8A5E80F06808120C3D5EA00F80F1
:100C330003120A13DAB8BCBC78DB30F40F74301239
:100C43000A13745830F3027478120A1330F60574D9
:100C53002D020A13742B20F5F8742020F7F3221BBE
:100C63006C7E6BB010F1021B6C20F60B30E704F4C2
:100C730004D2F27CCB800520E7057CDB020A425ECE
:100C8300F07F80F81B6E691600020B6A0030F007D4
:100C93006D221B0A200B0D1B0A80020A2D2D2B200F
:100CA3004C4248232E0053584F44494355502A4E33
:100CB300000420800102001040C6181D2525B22C17
:100CC3001662870A0B0B0B0B0A0B0B0C0CE47E341E
:100CD300FEB67E24007E7A1BB07E34FEEC7A1BB017
:100CE30074607E14FEE87E04007E7A0BB07E14FEF0
:100CF300E97A0BB074117A1BB0E47E34FEF07A1BF0
:100D0300B074EF7E34FEF17A1BB074077E34FEF2CA
:100D13007A1BB074CF7E34FEF37A1BB0E47E34FECC
:100D2300F57A1BB07E34FEF67A1BB07E34FEF77A7A
:100D33001BB07E34FEF87A1BB074057E34FEB57AA0
:100D43001BB074807E34FEFD7A1BB074017E34FECA
:100D5300E07A1BB0E47E34FEB27A1BB07E34FECD63
:100D63007A1BB074607E14FECB7A0BB074407A1B8E
:100D7300B0E47E34FED07A1BB074EF7E34FED17AB9
:100D83001BB074077E34FED27A1BB074CF7E34FE60
:100D9300D37A1BB0E47E34FEDB7A1BB07E34FEDCF8
:100DA3007A1BB074807E34FEB17A1BB07E34FEDDD4
:100DB3007A1BB074017E34FEC07A1BB022CA3B7C1E
:100DC300D37CC67D727A7300F57AB300F4E47AB308
:100DD30000F87AB300F9BED008780674027AB3003B
:100DE300F8E4020E7C740A7EA300F60A2A0A3C9DEC
:100DF300321B341216C27D278D237E24000A8D32C6
:100E03007A5300F77EB300F970390A2C1B247E73E2
:100E130000F60A37BD32582B7EB300F7701F0A1D48
:100E23001E147E5300F80A252D21AD327E5300F4A3
:100E33000A552D537E7300F57E6020803274017A4B
:100E4300B300F90A3D1E347E5300F80A252D237E94
:100E53007300F60A37AD327E5300F40A552D537EE4
:100E63007300F57E6300F70A262E2400307C657C30
:100E73005D120F547EB300F6047AB300F6BEC300CE
:100E8300F62803020DE8DA3B221218DC74AE6C7705
:100E930012153EE46C7712153E74106C7712153EF2
:100EA30074406C7712153E74816C7712153E74CFC3
:100EB3006C7712153E74A16C7712153E74C86C776B
:100EC30012153E74A66C7712153E74A86C77121532
:100ED3003E743F6C7712153E74D36C7712153EE463
:100EE3006C7712153E74D56C7712153E74806C774F
:100EF30012153E74D96C7712153E74F16C77121586
:100F03003E74DA6C7712153E74126C7712153E74C8
:100F1300DB6C7712153E74406C7712153E74206CAF
:100F23007712153E74026C7712153E748D6C77122E
:100F3300153E74146C7712153E74A46C7712153E2B
:100F430074A66C7712153E12150874AF6C770215F0
:100F53003ECA3B7CF57CA67CE77CDB0A257D321E02
:100F6300347A7300E76D117A1700E8BEF008780A47
:100F73007E1400067A1700EA801E7D121E141E14CA
:100F83001E145E24000768067E24000180026D2281
:100F93002D21AD327A3700EA0A3A9E3400207CC70D
:100FA3007CBD7C7E1215986D3380587E7300E70AF2
:100FB300377E2700E88D234D22780EBEF00868099E
:100FC3007CBD7C7E0BE0121598BEF008780F7E7016
:100FD30006AC7C2E3700E82E3400268012BEF010BB
:100FE300782F7E7010AC7C2E3700E82E34024E7AB8
:100FF30071827A6183E4937E700112153E7E37001D
:10100300E80B347A3700E87E3700EABE3700E83869
:101013009ADA3B22CA3B7F307A5300EF7A6300EEC1
:101023007A7300ED7AB300EC6D337A3700F07E7398
:1010330000EF7D235E24000768067E240001800202
:101043006D221E341E341E342D327A7300EFE48079
:10105300497EB300EC7EA300ED0A2A7EA300F20AC8
:101063003A2D32121598E4801E7E3700F07D230B53
:10107300247A2700F02D377D267E1BB07E70011267
:10108300153E7EB300F3047AB300F37E7300EEBE25
:101093007300F338D47EB300F2047AB300F27E73A4
:1010A30000EFBE7300F238A9DA3B22CA3B7CF57C21
:1010B300D67CE77CCB0A357D131E141E141E147DCB
:1010C300235E24000768067E24000180026D222D22
:1010D30021AD327A3700FC6D33803B0A3F7E270017
:1010E300FA8D234D2278097CBC7C7E0BE012159887
:1010F300BEF010782F7E7020AC7D2E3700FA2E3490
:10110300083E7A71827A6183E4937E700112153E00
:101113007E3700FA0B347A3700FA7E3700FCBE378D
:1011230000FA38B7DA3B22CA3B7A6300E57F307AAC
:101133007300E47AB300E3E47AB300E6804A7EB353
:1011430000E37E7300E47E6300E67CA60BA07AA333
:1011530000E60A267F032D127E0B607E5300E51204
:101163000F547EA300E5BEA008780C7EB300E324F1
:10117300067AB300E380110A3A7E24000212091EA4
:101183002E7300E37A7300E37E7300E60A372D378C
:101193007D267E1BB070A7DA3B227E5419327E4433
:1011A30000FF69320003692200017E2B307A1F00A1
:1011B300DA7A3300D97E5419377E4400FF6932004E
:1011C30003692200017E2B307A1F00DF7A3300DEB1
:1011D30074307E0800D97E700512149A74107E084C
:1011E30000DE7E70051214D2E40A3B097300DE0AA6
:1011F3002B09A200D9BCA7780604BEB00540EABEFD
:10120300B005680374FF22E422CA59CA1BE598306B
:10121300E05B5398FEE5997AB300087EB30008BEFD
:10122300B023681E7EA300087CBA047AB300087E4C
:101233007300137CB7047AB300130A3719A300149D
:10124300802BE480137E73001E0A27097200141991
:101253007200097EB3001E047AB3001E7E7300136E
:10126300BE73001E38DFE47AB30013D200DA1BDA50
:101273005932C29674307E1419417E0400FF7E7089
:101283000512149A742A7E14193C7E0400FF7E70A2
:101293000512149A74217E70011216AB74227E70AB
:1012A300011216AB74247E701A1216AB74257E706D
:1012B300281216AB74267E700F1216AB74207E7044
:1012C3000E1216AB74277E70FF1216AB7E34009697
:1012D30012167BD29622C296742A7E14193C7E047F
:1012E30000FF7E700512149A74217E70011216ABF2
:1012F30074227E70011216AB74257E70281216AB11
:1013030074317E70201216AB74267E700F1216ABEA
:1013130074207E700F1216AB74277E70FF1216AB0B
:10132300D29622CA3B7AB3010B7F3180267E180006
:101333000A7E33010B0A136D0012164B7F017F13D4
:101343001209637E14000A1209617F202E280030DF
:101353001218427EA3010B7CBA147AB3010B4CAA78
:1013630078CBDA3B22CAF8C29674A07E702012149E
:101373009AD296A2B3E43378FA74071218107CFB5E
:1013830074277C7F1216AB7CBF30E40C74E17E7053
:10139300FF1216AB7410800B7CBF30E50474208001
:1013A3000274FFDAF8227584017E44041FE47A494B
:1013B300B01B4478F97EF8010BC2007E0400FF7E67
:1013C3001419460B0A405D44681A692000020B0E8B
:1013D3000B44800A7E0BB07A29B00B240B0C1B4400
:1013E30078F280DF021425CA3B7F30A2B3E433785E
:1013F3002C74071218107C7B7AB3001F7427121603
:10140300AB7EB3001F30E61574617F037E7020123C
:1014130014D274E27E70FF1216ABE480027401DA18
:101423003B2275E900A9D7BA75EA001218F512181C
:10143300E91218E3120E8CE4120003E412156C7423
:10144300016C777E1419577E0400FF7E6010121121
:101453002A7E3400961217591216D980FB801D7EFE
:1014630014191A7E0400FF1209B47E1419187E049D
:1014730000FF1209B47E3403E812167B12119D702B
:10148300DE7E1418FF7E0400FF1209B47E141918BF
:101493007E0400FF0209B4CA3B7A7301027F30C2A3
:1014A300C81217E77AB30103E4800D7E3BB00B74D7
:1014B3001217E77EB30104047AB301047E730102B9
:1014C300BE73010438E5D2C87EB30103DA3B22CAF6
:1014D3003B7A7301057F30C2C81217E7E4800F74AB
:1014E300FF1217E77A3BB00B747EB30107047AB39C
:1014F30001077E730105BE73010738E3D2C87EB3CB
:101503000106DA3B22CA796CFF0A5F2E5400B06CE5
:101513007712153EE46C7712153E74106C77121532
:101523003E6CEEE47E700112153E0BE0BEE0807867
:10153300F20BF0BEF00840D1DA7922CA797CF77C4D
:10154300EB12176E74781215C11217C94CFF680499
:1015530074408001E41215C11217C97CBE1215C173
:101563001217C91217D8DA7922CAF87CFB4CFB7818
:101573000E74C86C7712153E74A16C7712153EBEBB
:10158300F001780E74C06C7712153E74A06C77125C
:10159300153EDAF822CAF87CFB0A572E5400B06CC9
:1015A3007712153E7CBF54F0C4540F44106C77126D
:1015B300153E7CBF540F6C7712153EDAF822CA79B8
:1015C3007CFB7EE008C2A57CBF30E704D2A4800286
:1015D300C2A4121836D2A5121836C2A53EF01BE0DB
:1015E30078E3DA7922CA3B7A3701087F3080087EB4
:1015F3003BB00B741218427E3701087D231B247AFB
:101603002701084D3378E8DA3B227A0F00497E340C
:1016130000497E2400007A1F00FE7E08004D7E1FD5
:1016230000491209E07E08004D0216EF75985043F9
:101633008E01438E0475D78F75D6FD438E10E5B8A2
:10164300F5B843B710D2AC227F707F617E180001DA
:1016530080057F061209507F071B7C4D0178F3221A
:10166300CAF87CFBBEF00A7805740D1218427CBFE1
:101673001218427CBFDAF822CA797D7380077E3460
:1016830003E81217827D371B744D3378F1DA792220
:10169300CA797D7380077E3403E812167B7D371B7E
:1016A300744D3378F1DA7922CA797CF7C2C81217FC
:1016B300E77CEB7CBF1217E7D2C87CBEDA79227CC9
:1016C300A77C3B7E34000180040A23AD327C2A1BB5
:1016D300A0A5BA00F422D2A2C2A3D2A6C2A77E3486
:1016E300004112172F7E340014021744CA3B7F3087
:1016F30080087E3BB00B741218427E3BB070F3DA65
:101703003B22748D6C7712153E74146C7712153E60
:1017130074AF6C7702153E748D6C7712153E74109E
:101723006C7712153E74AE6C7702153E7D037E34E2
:10173300FEF57E24007E7A1B007E34FEF67A1B10B3
:10174300227D037E34FEF77E24007E7A1B007E34E6
:10175300FEF87A1B10227D037E34FEDB7E24007E9E
:101763007A1B007E34FEDC7A1B1022D2A4121836B8
:10177300D2A5121836C2A4121836C2A5021836CA48
:10178300797D73800312185A7D371B744D3378F5B6
:10179300DA7922438E805389F0758A66758CEAC2A2
:1017A3008DD28CD2A9225391C75392C775CA0075A3
:1017B300C900D2C8C295225392BF5391BF53B2F707
:1017C30053B1F7D29622D2A4121836D2A5121836E4
:1017D300C2A5021836C2A4121836D2A5121836D2E0
:1017E300A40218367AB1CFE5CD30E7FB53CDC0E57F
:1017F300CF2275CFFFE5CD30E7FB53CDC0E5CF2238
:1018030053953053963053917F53927F22C2C8121F
:1018130017E774FF1217E7D2C82253B20153B1017D
:1018230053B20253B102227AB1CFE5CD30E7FB5375
:10183300CDC0227EA0017C7A1BA0A5BF00F8227A2E
:10184300B199E59830E1FB5398FD220000007E1822
:10185300176E1B1C78FC220000007E1800041B1C62
:1018630078FC220000007E18001C1B1C78FC220060
:1018730000007E18003A1B1C78FC220000007E1832
:1018830000761B1C78FC220000007E18012A1B1C1A
:1018930078FC220000007E1800581B1C78FC2200F4
:1018A30000007E1802561B1C78FC2275CF0075CDF4
:1018B300C075CED322C2A6C2A7C2A2C2A322C2A20D
:1018C300D2A3D2A6C2A722C2A6D2A7D2A2C2A322C1
:1018D300C2A2D2A3C2A6D2A7225395CF5396CF2298
:1018E300121803020CD01217BA0218EF1217A9022A
:1018F30018AE12181D02162F283029004E524632F8
:10190300344C30315F436865636B20737563636583
:1019130065642021000A004E524632344C30315F58
:10192300436865636B206661696C6564202100C24E
:10193300C2C2C2C2000000000000C2C2C2C200C2D2
:10194300C2C2C20001010A0300010013000001002A
:0B1953001E00000048454C4C4F2100D6
:00000001FF
