:10000000021D6653B1DF53B2DF222202247A0A1B9B
:100010007E0400B48D107E3407D0AD312E3401F44F
:1000200002236B021B6EC29674307E1426477E0438
:1000300000FF7E7005121F15742A7E1426427E046E
:1000400000FF7E7005121F1574217E70011222FDC3
:1000500074227E70011222FD74247E701A1222FD19
:1000600074257E70191222FD74267E700F1222FDF7
:1000700074207E700E1222FD74277E70FF1222FD06
:100080007E3400961222CDD296222202217C0000DC
:10009000000000000000002F000000000700070023
:1000A00000147F147F1400242A7F2A12006264083F
:1000B00013230036495522500000050300000000BC
:1000C0001C224100000041221C000014083E0814BC
:1000D0000008083E0808000000A0600000080808AA
:1000E0000808000060600000002010080402003EC4
:1000F0005149453E0000427F40000042615149465F
:10010000002141454B31001814127F10002745454E
:100110004539003C4A494930000171090503003660
:100120004949493600064949291E00003636000073
:100130000000563600000008142241000014141478
:100140001414000041221408000201510906003273
:100150004959513E007C1211127C007F49494936B1
:10016000003E41414122007F4141221C007F49491C
:100170004941007F09090901003E4149497A007F50
:100180000808087F0000417F4100002040413F01F6
:10019000007F08142241007F40404040007F020C55
:1001A000027F007F0408107F003E4141413E007FF6
:1001B00009090906003E4151215E007F09192946BF
:1001C0000046494949310001017F0101003F40409B
:1001D000403F001F2040201F003F4038403F006349
:1001E000140814630007087008070061514945436B
:1001F00000007F41410000552A552A550000414129
:100200007F00000402010204004040404040000022
:1002100001020400002054545478007F48444438BC
:1002200000384444442000384444487F0038545443
:10023000541800087E0901020018A4A4A47C007FC1
:10024000080404780000447D4000004080847D0064
:10025000007F102844000000417F4000007C04180B
:100260000478007C0804047800384444443800FCD6
:10027000242424180018242418FC007C08040408F2
:1002800000485454542000043F444020003C404067
:10029000207C001C2040201C003C4030403C00449E
:1002A00028102844001CA0A0A07C004464544C44A6
:1002B00014141414141400000000000000000000C6
:1002C000000000000000000000F800000000000036
:1002D00000333000000000100C06100C0600000077
:1002E00000000000000040C07840C0784000043F9B
:1002F00004043F040400007088FC0830000000186B
:1003000020FF211E0000F008F000E018000000218E
:100310001C031E211E0000F00888700000001E2132
:1003200023241927211010160E00000000000000E1
:10033000000000000000000000E0180402000000BF
:1003400000071820400000020418E00000000040F0
:10035000201807000000404080F08040400002026A
:10036000010F01020200000000F000000000010186
:10037000011F01010100000000000000000080B02A
:1003800070000000000000000000000000000001FC
:100390000101010101010000000000000000003027
:1003A00030000000000000000000806018040060C1
:1003B00018060100000000E010080810E000000F1F
:1003C000102020100F00001010F800000000002086
:1003D000203F2020000000700808088870000030CE
:1003E0002824222130000030088888483000001876
:1003F000202020110E000000C02010F8000000078F
:100400000424243F240000F8088888080800001904
:10041000212020110E0000E0108888180000000F35
:10042000112020110E0000380808C838080000000C
:10043000003F000000000070880808887000001C61
:10044000222121221C0000E010080810E00000001A
:10045000312222110F00000000C0C0000000000087
:1004600000303000000000000080000000000000AC
:1004700080600000000000008040201008000001A3
:100480000204081020004040404040404000040466
:100490000404040404000008102040800000002030
:1004A000100804020100007048080808F00000006D
:1004B000003036010000C030C828E810E0000718FE
:1004C000272423140B000000C038E0000000203C6B
:1004D00023020227382008F8888888700000203F0F
:1004E000202020110E00C030080808083800071826
:1004F00020202010080008F808080810E000203F1D
:10050000202020100F0008F88888E8081000203FFD
:1005100020202320180008F88888E8081000203FD1
:10052000200003000000C030080808380000071849
:100530002020221E020008F808000008F808203FCA
:10054000210101213F20000808F8080800000020D0
:10055000203F2020000000000808F8080800C080A4
:1005600080807F00000008F888C028180800203F1D
:1005700020012638200008F8080000000000203F75
:1005800020202020300008F8F800F8F80800203F6C
:10059000003F003F200008F830C00008F808203F66
:1005A000200007183F00E01008080810E0000F10B6
:1005B000202020100F0008F808080808F000203F4D
:1005C000210101010000E01008080810E0000F18E8
:1005D000242438504F0008F8888888887000203F0D
:1005E0002000030C3020007088080808380000380C
:1005F000202121221C00180808F808081800000013
:10060000203F2000000008F808000008F808001F3C
:10061000202020201F000878880000C8380800002B
:1006200007380E010000F80800F80008F800033C45
:100630000700073C0300081868808068180820300D
:100640002C03032C30200838C800C83808000000EC
:10065000203F2000000010080808C8380800203893
:10066000262120201800000000FE020202000000E7
:10067000007F40404000000C30C00000000000003F
:1006800000010638C00000020202FE000000004027
:1006900040407F000000000004020202040000004D
:1006A000000000000000000000000000000080804A
:1006B0008080808080800002020400000000000032
:1006C0000000000000000000808080800000001911
:1006D000242222223F2008F8008080000000003FF2
:1006E000112020110E000000008080800000000E0C
:1006F000112020201100000000808088F800000EEA
:10070000112020103F200000808080800000001F0A
:10071000222222221300008080F08888881800207E
:10072000203F202000000000808080808000006B3F
:1007300094949493600008F8008080800000203F2B
:10074000210000203F200080989800000000002039
:10075000203F20200000000000809898000000C08A
:100760008080807F000008F8000080808000203FAB
:1007700024022D302000000808F8000000000020AE
:10078000203F202000008080808080808000203FEB
:1007900020003F20003F8080008080800000203FBC
:1007A000210000203F200000808080800000001F8A
:1007B000202020201F00808000808000000080FF1B
:1007C000A12020110E000000008080808000000E1B
:1007D000112020A0FF808080800080808000202069
:1007E0003F212000010000008080808080000033D5
:1007F000242424241900008080E080800000000070
:10080000001F202000008080000000808000001F6A
:10081000202020103F208080800000808080000108
:100820000E300806010080800080008080800F303C
:100830000C030C300F0000808000808080000020BE
:10084000312E0E31200080808000008080808081E9
:100850008E7018060100008080808080800000215A
:10086000302C2221300000000000807C02020000B9
:100870000000003F404000000000FF0000000000BA
:100880000000FF0000000002027C80000000004029
:10089000403F0000000000060101020204040000C5
:1008A0000000000000000000F010101010FF1010F9
:1008B0001010F000000000000F04040404FF040402
:1008C00004040F0000004040405F555555755555D4
:1008D000555F404040000040200F094989790909CF
:1008E000090F2040000000FE02424ACA4A4ACA4A92
:1008F0004A4202FE000000FF40504C4340404F502F
:10090000505C40FF00000000F888888888FF8888D5
:100910008888F800000000001F080808087F888801
:1009200088889F80F00080828282828282E2A29206
:100930008A8682808000000000000040807F0000E6
:10094000000000000000101010FF10900888888838
:10095000FF88888808000444827F01808040432CFF
:100960001028468180000010101010D030FF30D0C9
:10097000121C1010000010080402010000FF00000B
:100980000102040810005D22680D5D0078122D221E
:100990000B4068099F11222D000B0078F9020BA66D
:1009A000120B695C800B806808248150072CB050C2
:1009B0000A020BAE2CB04003020BAB7C8B5D1178AE
:1009C000267CB17CA5BE1080680A5D33780DA5BD7C
:1009D00080057F10020B986D0080307F017C5B7C6E
:1009E000B17CA5AD1280245D337806A5BD80F08072
:1009F000E1CA887D41AD437CB17CA5AD122D145078
:100A0000020B047C5BAD232F01DA88A42D05BE0008
:100A10008040060B80780480982F007C437C507CBB
:100A2000617C72020B82BE24FFFF6806BE04FFFFDA
:100A30007803020BA6120B695CB00468F57CB8A5BC
:100A40004868EF7CB870039F1122A5B80003020B21
:100A5000AE2E008150079C803807020BAB9C805063
:100A6000ED0A51C2E74D517803020B987E54008085
:100A70007E901A6C0080061B9068142F11BF1040E6
:100A8000049F104CAB0330E7EECAA86CAA80E8DAEA
:100A900039DA587C4ABE5080500A1B8068BC2F113E
:100AA00050020B70020B827EA020800C7EA0108072
:100AB000057EA0086C556D333392D5500A6E34FF15
:100AC000FF6E24FFFF0B1CA5EC3340062F11D5F061
:100AD000F6227CBA247EA2D5137C767C65A5CC92C6
:100AE000E77C5B227CB5337CB43392D54E508024B6
:100AF0008140039F11227C457C567C676C7724E003
:100B0000500E7E1CFFFF221E341E2450034E6080B8
:100B10000478F430D50A6E34FFFF6E24FFFF0B1CFF
:100B2000227F507EC400007ED401417E940B3202AD
:100B30000BE74001227CEACA89CA5BCA6B12220910
:100B4000DA6BDA5BDA897E940B327CAE227F707FBF
:100B5000517E6F015F7E940B5C020BE74005E47AE7
:100B60007BB0227A7BB00B7C222D0092D50E104EEA
:100B700010807D422D445002B2D54E50806C447C92
:100B8000B8222C4450120B1C7E40005E507FBE18D1
:100B9000000078040B806816A2D57CB8137C4B7CCF
:100BA000B592E77C5B227E1CFFFF229F11227E24F0
:100BB000FF8020D5026C456D3322540F2490D4342D
:100BC00040D430F30CBEB0414007BEB05B500224AD
:100BD000204CCC68021BC00B84D389944CCC680B8E
:100BE0007420120BD180F5CA3B6D889F337CAE7E9A
:100BF0005BB00B5C7007C37D38DA3B8994B4256920
:100C0000C2F37E5BB00B5CA5F824D0BEB00A501BCB
:100C10007E500A20F60DAC5CA52D7CCB70034EF007
:100C20000180DDAC5DA52D7CDB80D524CFBEB01A64
:100C3000A5E850055E00DFD2F3900FBCA3E49360FB
:100C400011BCB078F77417934CAB30F6B34EF0800C
:100C500080AEA3E4936010BCB078F77416937C3B2D
:100C60007423937C2B89147CB080137420120BD1D5
:100C700020F205BEC00250F31B6D29B60001120B15
:100C8000D1020BDC1B6E691600020B6A00BE080065
:100C90000078087E0400FF7E1425AB20F21E4CCCA9
:100CA000681A7F10E47E1B804C8868070B1C04BC0C
:100CB000BD78F2C2F6CA0B120DBBDA0B7E0BB06028
:100CC000C0CA0B120BD1DA0B0B0C4CDD68EE1BD03B
:100CD00078EA80ADD2F07E101080037E10085EB0FE
:100CE0005F800AD2F67E100A80057E100AC2F66D79
:100CF000119F117E00201B6C7E6B7030F6021A373C
:100D000020F1051B6C7E6B6030F6041A261A243025
:100D1000F0051B6D0B6A20A5EC3382F692F6500AA3
:100D20007CEA9F229F217F127CAE4C44780F7C4549
:100D30007C567C676C772E00F878EF80122F117C40
:100D4000B3337C3B9CB140047C3B0B70A5D8EE7C5C
:100D5000B230E005DAB8C44C3BCA380B207E002024
:100D60007E3000BE18000078C1BE1008780730F44D
:100D700004C2F480B5CA287CB2BCBD38027CBD1266
:100D80000DBBDA28BC2D500A1BD0E4CA28120BBABE
:100D900080F07CB213DAB84004C4CAB8C4CA28BE12
:100DA000F08040095CDD7805A5DA0260065EF07F20
:100DB000120BBADA28A5DADA020BDCBEF001680FF2
:100DC00030F402240220F50620F70330F601042057
:100DD000F229BCBC5025CAB87CBF13B0E6742050C1
:100DE0001174307C8A5E80F06808120DFB5EA00FE3
:100DF0008003120BD1DAB8BCBC78DB30F40F74304E
:100E0000120BD1745830F3027478120BD130F605FE
:100E1000742D020BD1742B20F5F8742020F7F322E7
:100E20001B6C7E6BB010F1021B6C20F60B30E704DC
:100E3000F404D2F27CCB800520E7057CDB020C00B9
:100E40005EF07F80F81B6E691600020B6A0030F0BE
:100E5000076D221B0A200B0D1B0A80020BEBE46CB2
:100E600022BE3007500B7F1F2D312E34FFF77E3905
:100E7000B0227CBF20E7A8742E4EF080020BD11266
:100E80000FA5403D7CBD7003047CDB1210BC7C3D93
:100E90004C3368101B307CBE20E409120E5E7004D7
:100EA0004C3378F07CBD7CD3BEA0FD481CBCAB5855
:100EB00018E49CBA2CB31801E47CDB020F46120F35
:100EC000A5406E7CBD041210BC7AFBA07CAE7CBD3C
:100ED000A2F492F0C2F440026001042405120DBB9A
:100EE0007E30FF0B30120E5ECA38120BBA20F004AF
:100EF0004CDD6803120E72DA38BC3D78E6740E12CF
:100F00000BBA742B7EFBA030F707742D6EA0FF0B7D
:100F1000A07AFBA0120BD17EA00A7EFBB0847AFBE4
:100F2000A0120BBA7EFBB0120BBA9EF80008020B9F
:100F3000DCD2F27ED000020C9B120FA540F37CBAEB
:100F40002CBD041210BC7AFBA07CBA7CAE30E70149
:100F5000E40420F4044CDD6805D2F0C2F4042CBD96
:100F6000120DBB6C337EFBB0601B20E712147AFBC2
:100F7000B0120E5ECA38120BBADA380B3080E604B3
:100F80007AFBB01B30120E5ECA38120BBA4CDD6809
:100F900007120E721BD080E19EF8000930F0031298
:100FA0000E72020BDC7CEA7CAF10F7037ED0067C6D
:100FB000FA1B6E693600020B6A200210042D2B20EA
:100FC0004C4248232E0053584F44494355502A4E13
:100FD00046454700042080010200104084D6DBE330
:100FE000E370EAD4204539BE7F0C0C0C0C0C0C0CC1
:100FF0000C0E0E0F0E0E4E614E002B494E46002D6C
:10100000494E46007D522D557CBE92E67CEB7CBA63
:10101000601F0470287CB5C2E77E0400FF60067E76
:10102000140FF6D3227E140FFF40047E140FFAD360
:1010300022DA099F22CA2BCA2BC3CA09220A0A7EB6
:10104000144D10AD109E083AF09E10267CB5C2E7F4
:101050007EA0567C9BA46E54FFFF2E54C511ACA9F4
:101060002D15E4A539CAB8CA1B20E70A12112FDAD8
:101070001B120A26800AF40412112FDA1B120986A9
:10108000DAA87CB5337CB4334E50806C4424822F74
:10109000111478FBDA497407BE400A40099E400AE1
:1010A000CA0201140BA0CA486C442F117F012F11F2
:1010B0002F112F101478EFCA48CA49227F0F20E75A
:1010C0003ABEB007400274070A0B2D109E140009A7
:1010D0007E19B02EB0FB501F4C116817E47A19B07E
:1010E0001B147E19B0047A19B0B40A0BE47A19B053
:1010F000A5D9ED0BA074017A19B0225EE0BF223FA2
:101100008000004120000042C80000447A000046F0
:101110001C400047C35000497424004B1896804C73
:10112000BEBC205A0E1BCA6753C21C749DC5AE7C40
:101130007B60065407681623231211547CB7543879
:10114000680A7F101211511209867F01227CB75460
:101150003803241C6CAA2E5410FF7E4400FF0B2A77
:10116000006912000222C2D57CB430E708B2D56E05
:1011700024FFFF0B247CB630E712B2D56E34FFFF9C
:101180000B348D326E24FFFF0B2480028D3230D55C
:10119000066E34FFFF0B34227D51AD037D027D21AD
:1011A000AD052D12AD352D21226D0074104D007846
:1011B0000B4D2278278D317D126D22227D437D32A9
:1011C0006D222F112D445002A50FBF1040049F1017
:1011D0000B901478ED7F016D227D34227D417D13CB
:1011E0008D247D022F004004BD0440049D040B1497
:1011F0001478F17D237D317D106D0022CA3B7CD3B4
:101200007CC67D727A73015A7AB30159E47AB301CC
:101210005D7AB3015EBED008780674027AB3015DD0
:10122000E40212B8740A7EA3015B0A2A0A3C9D32CA
:101230001B341223147D278D237E24000A8D327ADD
:1012400053015C7EB3015E70390A2C1B247E73014E
:101250005B0A37BD32582B7EB3015C701F0A1D1E1E
:10126000147E53015D0A252D21AD327E5301590AAA
:10127000552D537E73015A7E6020803274017AB3FB
:10128000015E0A3D1E347E53015D0A252D237E73C7
:10129000015B0A37AD327E5301590A552D537E73D7
:1012A000015A7E63015C0A262E2400307C657C5D39
:1012B0001213907EB3015B047AB3015BBEC3015B82
:1012C0002803021224DA3B2212258774AE6C7712AF
:1012D0002020E46C7712202074106C771220207488
:1012E000406C7712202074816C7712202074CF6CB0
:1012F0007712202074A16C7712202074C86C7712AA
:10130000202074A66C7712202074A86C77122020FD
:10131000743F6C7712202074D36C77122020E46C19
:101320007712202074D56C7712202074806C77128D
:10133000202074D96C7712202074F16C7712202051
:1013400074DA6C7712202074126C7712202074DB10
:101350006C7712202074406C7712202074206C77F8
:1013600012202074026C77122020748D6C7712206A
:101370002074146C7712202074A46C7712202074CF
:10138000A66C77122020121FBA74AF6C770220204F
:10139000CA3B7CF57CA67CE77CDB0A257D321E34CB
:1013A0007A73011D6D117A17011EBEF008780A7E4E
:1013B0001400067A170120801E7D121E141E141EB2
:1013C000145E24000768067E24000180026D222D31
:1013D00021AD327A3701200A3A9E3400207CC77C46
:1013E000BD7C7E12212C6D3380587E73011D0A371F
:1013F0007E27011E8D234D22780EBEF00868097CE1
:10140000BD7C7E0BE012212CBEF008780F7E7006AA
:10141000AC7C2E37011E2E34008E8012BEF0107868
:101420002F7E7010AC7C2E37011E2E3402B67A71DE
:10143000827A6183E4937E70011220207E37011E40
:101440000B347A37011E7E370120BE37011E389AD1
:10145000DA3B22121C887E3400061222CD7E080060
:10146000E2121E6770767EA300E2BEA04C780B7E6F
:10147000B300E3B459047401805EBEA052780B7EC1
:10148000B300E3B459047402804EBEA04D780B7EC5
:10149000B300E3B450047403803EBEA047780B7ED3
:1014A000B300E3B452047404802EBEA04B780B7ECC
:1014B000B300E3B459047405801EBEA042780B7ECD
:1014C000B300E3B45A047406800EBEA057780D7EB4
:1014D000B300E3B44C0674077AB300B37EB300B331
:1014E0001BB168161468161468161468161468166A
:1014F00014681624067815021BD702181802150D59
:1015000002008A02178C0225A902000A2274066CC6
:10151000777E6300E80A261220D5121C887E3400EC
:10152000061222CD7E0800D2121E6760030215B992
:101530007EB300DAB40504740D80777EB300DDB4A9
:101540000804740E806C7EB300DBB4060474028061
:10155000617EB300DCB40704740180567EB300DE04
:10156000B4091C7EB300E8047AB300E87E7300E897
:10157000BE701E4006741E7AB300E8740480207E9C
:10158000B300DFB40A237EB300E8147AB300E87E28
:101590007300E8BE701E4005E47AB300E874056C81
:1015A000777E6300E80A26800D7EB300E0B40B0965
:1015B00074186C776D220220D5227EB300F7700379
:1015C00002165B7EB30104B416187EB300EA047AF7
:1015D000B300EA7E7300EABE7064400674647AB3B6
:1015E00000EA7EB30105B418177EB300EA147AB39B
:1015F00000EA7E7300EABE70642805E47AB300EA6C
:101600007E7300EA0A371223807E7300EA0A3712DB
:1016100023957EB30106B40A0512253980387EB3BE
:101620000107B40B0512254B802C7EB30108B40CC6
:101630000512253080207EB30109B40D0512254224
:1016400080147EB3010AB40E0D1225276D331223C8
:10165000806D33122395E47AB300F7227EB300F74E
:1016600070030216F47EB30104B4161C7EB300EBC3
:10167000047AB300EB7E7300EBBE701E4006741E4E
:101680007AB300EB740480207EB30105B418247E85
:10169000B300EB147AB300EB7E7300EBBE701E4018
:1016A00005E47AB300EB74056C777E6300EB0A26E1
:1016B0001220D57EB3010BB41104740D802A7EB3C1
:1016C000010CB41704740E801F7EB3010DB4120414
:1016D000740180147EB3010EB41304740280097E79
:1016E000B3010FB4140974186C776D221220D5E47D
:1016F0007AB300F722CA3B7F307A53014E7A6301F6
:101700004D7A73014C7AB3014B6D337A37014F7EBA
:1017100073014E7D235E24000768067E240001804D
:10172000026D221E341E341E342D327A73014EE4B3
:1017300080497EB3014B7EA3014C0A2A7EA301514E
:101740000A3A2D3212212CE4801E7E37014F7D2370
:101750000B247A27014F2D377D267E1BB07E70012A
:101760001220207EB30152047AB301527E73014DE0
:10177000BE73015238D47EB30151047AB301517E55
:1017800073014EBE73015138A9DA3B22121C887EC8
:101790003400061222CD7E0800D2121E6770787EB9
:1017A000B300DAB405030225397EB300DDB40803C3
:1017B00002254B7EB300DBB406030225307EB30066
:1017C000DCB407030225427EB300DFB40A167EB301
:1017D00000E9047AB300E97E7300E9BE7064403723
:1017E0007464801A7EB300E0B40B187EB300E91471
:1017F0007AB300E97E7300E9BE7064281AE47AB314
:1018000000E9227EB300DEB4090D1225276D3312E4
:1018100023806D3302239522CAF8121C887E34007F
:10182000061222CD7E0800C8121E6770737E7300F8
:10183000CA0A277E3400649D327CF70A371223805F
:101840000A3F1223957EF300CFBEF064500ABEF02B
:1018500037400512254B8048BEF02D380ABEF000F7
:10186000400512253980397EF300D1BEF064500A5C
:10187000BEF03740051225308026BEF02D380ABE56
:10188000F00040051225428017BEF0375012BEF01E
:101890002D280D1225276D331223806D33122395C9
:1018A000DAF822E47E34FEB67E24007E7A1BB07E17
:1018B00034FEEC7A1BB074607E14FEE87E04007E79
:1018C0007A0BB07E14FEE97A0BB074117A1BB0E487
:1018D0007E34FEF07A1BB074EF7E34FEF17A1BB0DA
:1018E000E47E34FEF27A1BB074637E34FEF37A1B1E
:1018F000B0E47E34FEF57A1BB07E34FEF67A1BB07F
:101900007E34FEF77A1BB07E34FEF87A1BB0740585
:101910007E34FEB57A1BB074807E34FEFD7A1BB037
:1019200074017E34FEE07A1BB022CA3B7CF57CD683
:101930007CE77CCB0A357D131E141E141E147D23F8
:101940005E24000768067E24000180026D222D219E
:10195000AD327A37001E6D33803B0A3F7E27001C74
:101960008D234D2278097CBC7C7E0BE012212CBE9D
:10197000F010782F7E7020AC7D2E37001C2E34089E
:10198000A67A71827A6183E4937E70011220207EB0
:1019900037001C0B347A37001C7E37001EBE370020
:1019A0001C38B7DA3B22CA3B7F301221C6A2B4E40E
:1019B000337865A2B4E43368FAE47AB301531222AF
:1019C0009C7CAB7EB301530A4B19A40154047AB337
:1019D0000153B405E97E7301550A077E7301540A69
:1019E000172D107E6301560A062D017E6301570AEA
:1019F000162D107E6301580A26BD21781B3973000D
:101A0000027E730155397300037E7301567A3B7071
:101A10007E73015739730001DA3B22CA3B7A6301B6
:101A20001B7F307A73011A7AB30119E47AB3011C6F
:101A3000804A7EB301197E73011A7E63011C7CA665
:101A40000BA07AA3011C0A267F032D127E0B607E59
:101A500053011B1213907EA3011BBEA008780C7EBD
:101A6000B3011924067AB3011980110A3A7E2400C1
:101A7000021211662E7301197A7301197E73011C0B
:101A80000A372D377D267E1BB070A7DA3B22E47E15
:101A900034FEB27E24007E7A1BB07E34FECD7A1BEB
:101AA000B074607E14FECB7E04007E7A0BB074406E
:101AB0007A1BB0E47E34FED07A1BB074177E34FEFD
:101AC000D17A1BB0744E7E34FED27A1BB0741F7E66
:101AD00034FED37A1BB0E47E34FEDB7A1BB07E3456
:101AE000FEDC7A1BB074807E34FEB17A1BB07E348B
:101AF000FEDD7A1BB074017E34FEC07A1BB0227EFC
:101B00005426387E4400FF69320003692200017EBA
:101B10002B307A1F011A7A3301197E54263D7E44F8
:101B200000FF69320003692200017E2B307A1F0119
:101B30001F7A33011E74307E0801197E7005121F52
:101B40001574107E08011E7E7005121F84E40A3B86
:101B50000973011E0A2B09A20119BCA7780604BE4D
:101B6000B00540EABEB005680374FF22E422CA59FA
:101B7000CA1BE59830E05B5398FEE5997AB300EC18
:101B80007EB300ECBEB023681E7EA300EC7CBA04DA
:101B90007AB300EC7E7300F87CB7047AB300F80ADD
:101BA0003719A300F9802BE480137E7301160A27EE
:101BB000097200F9197200ED7EB30116047AB301BF
:101BC000167E7300F8BE73011638DFE47AB300F8AE
:101BD000D201DA1BDA59327EB300F7603F7EB301DF
:101BE00010B415066D337A3700E67EB30111B410D8
:101BF000087E3400017A3700E67EB30112B40F0884
:101C00007E3400027A3700E67E3400017E0801034C
:101C10007E24001312207CE47AB300F77E3700E6BE
:101C20001B34680B1B34680A0B3578090225AA029D
:101C300015BA02165C227F707C3B7EB301171468D4
:101C400019047841A5BBA50B74017AB301177A7BFF
:101C5000308032E47AB30117802B7E2301180A32D8
:101C60002D3F7D2E7A1B307EB30118047AB3011804
:101C70007E730118BE7013400C74017AB30118E42E
:101C80007AB301172274FF22C296742A7E14264268
:101C90007E0400FF7E7005121F1574217E700112F4
:101CA00022FD74227E70011222FD74257E701912AD
:101CB00022FD74317E70141222FD74267E700F1284
:101CC00022FD74207E700F1222FD74277E70FF1299
:101CD00022FDD29622CA3B7AB301687F307A37015F
:101CE00066802A7E18000A7E3301680A136D00128E
:101CF00022B57F017F131211AB7E14000A1211A9C5
:101D00007F202E2800307E3701661221A27EA3019B
:101D1000687CBA147AB301684CAA78C7DA3B227E91
:101D20007301647A7301651221E97AB301647EA3B9
:101D30000165BEA001780C7EB30164700674017A5F
:101D4000B30163BEA002780C7EB301647006740216
:101D50007AB30163BEA003780C7EB301647006748D
:101D6000037AB30163227584017E44041FE47A4937
:101D7000B01B4478F97EF8016AC200C2017E0400FB
:101D8000FF7E1425AF0B0A405D44681A69200002EB
:101D90000B0E0B44800A7E0BB07A29B00B240B0C7F
:101DA0001B4478F280DF021E2ACAF8C29674A07E15
:101DB0007014121F15D296A2B3E43378FA74071286
:101DC00024607CFB74277C7F1222FD7CBF30E40CF6
:101DD00074E17E70FF1222FD7410800B7CBF30E531
:101DE000047420800274FFDAF822122407D28330B0
:101DF00083FDD28E2083FDC28EE58D0A2B7E3401B9
:101E000000AD32E58B0A2B2D23758D00758B00E418
:101E1000120AAC7E14999A7E043FD91209866D117C
:101E20007E0442C8120A26020AE475E900A9D7BA5C
:101E300075EA0012255412259412258E1212C8122A
:101E400025A612251E12255D122514D2AF74016C31
:101E5000777E14264C7E0400FF7E6010121A1B123F
:101E60001EA212145380FBCA3B7F30A2B3E4337826
:101E70002C74071224607C7B7AB301197427122218
:101E8000FD7EB3011930E61574617F037E70141274
:101E90001F8474E27E70FF1222FDE480027401DA76
:101EA0003B22801D7E1426207E0400FF120B217E23
:101EB00014261E7E0400FF120B217E3403E812223A
:101EC000CD121AFF70DE7E1426057E0400FF120B71
:101ED000217E14261E7E0400FF020B217CAB7F7046
:101EE0006D226C66800F0A162D1F7D0E7E0B700A08
:101EF000172D210B60BCA638ED6E24FFFF0B240AC2
:101F0000162D1F7D0E7A0B407C750A267F072D1239
:101F10003970000122CA3B7A7301237F30C2C81294
:101F200024447AB30124E4800D7E3BB00B74122468
:101F3000447EB30125047AB301257E730123BE7369
:101F4000012538E5D2C87EB30124DA3B227CAB6C94
:101F5000770A4A7CB760053E441478FB4D44680616
:101F60007E24000180026D225E2400806804D2C7B6
:101F70008002C2C7C2C5D2C50B70BE700840D2C2B3
:101F8000C6D2C622CA3B7A7301237F30C2C812244C
:101F900044E4800F74FF1224447A3BB00B747EB388
:101FA0000125047AB301257E730123BE7301253810
:101FB000E3D2C87EB30124DA3B22CA796CFF0A5F00
:101FC0002E5400B06C77122020E46C77122020741D
:101FD000106C771220206CEEE47E70011220200B32
:101FE000E0BEE08078F20BF0BEF00840D1DA792252
:101FF000CA797CFB7E340001747E1221A26CEE80D3
:102000000F7E3400010A2E09B201411221A20BE019
:10201000BCFE38ED7E34000174EF1221A2DA792281
:10202000CA797CF77CEB1223AA747812215512240A
:10203000264CFF680474408001E4122155122426C6
:102040007CBE122155122426122435DA79227CA571
:102050007C577C7B74FF7AB3014174067AB30142EA
:102060007A7301437A5301447A6301457AA30146A6
:102070007E080141121EDC7408021FF0CA3B7A2759
:10208000011B7F307A370119800C7E3701197E3BA6
:10209000B00B741221A27E37011B7D231B247A27EB
:1020A000011B4D3378E4DA3B22CAF87CFB4CFB7809
:1020B0000E74C86C7712202074A16C77122020BE99
:1020C000F001780E74C06C7712202074A06C771227
:1020D0002020DAF8227C677C7B74FF7AB30141749C
:1020E000067AB301427A7301437A6301447A430169
:1020F000457A5301467E080141121EDC7408021F16
:10210000F0CA797A0F004B7D737E3400497E24003B
:10211000007A1F015F7E08004F7E1F004B120B4D9F
:102120007D377E08004F122247DA7922CAF87CFBFD
:102130000A572E5400B06C771220207CBF54F0C494
:10214000540F44106C771220207CBF540F6C771210
:102150002020DAF822CA797CFB7EE008C2A57CBF89
:1021600030E704D2A48002C2A412249ED2A5122475
:102170009EC2A53EF01BE078E3DA7922CA7BCAB89A
:10218000CA1BCA0BE5AC30E01053ACFEE5AD7E08CF
:102190000103121C367AB300F7DA0BDA1BDAB8DA6D
:1021A0007B327CAB2E34FFFD68100B3578177AA19B
:1021B00099E59830E1FB5398FD227AA1ADE5AC306A
:1021C000E1FB53ACFD22D2B47E1800B21B1C78FC9C
:1021D000C2B47E34D4BE7E2400011B1C78FCD2B471
:1021E0007E1800B21B1C78FC226CAAA284E433780F
:1021F000037EA001A285E43378037EA002A286E4D8
:102200003378037EA0037CBA22CAF87CFBBEF00AB6
:1022100078097E340001740D1221A27E3400017C05
:10222000BF1221A27CBFDAF822CAF87CFB4CFB78F3
:102230000774A66C77122020BEF001780774A76C93
:1022400077122020DAF822CA3B7F307A3701698082
:102250000C7E3701697E3BB00B741221A27E3BB02D
:1022600070EFDA3B22759850438E01438E0475D788
:102270008F75D6FD438E10E5B8F5B843B710D2ACD4
:102280002275AC10A9D28E75D78F75D6FDA9D48EC4
:10229000E5DFF5DFE5EEF5EEA9D3AF22CA796CFFF5
:1022A0006CEE3EF012232B4CFB0BE0BEE00840F23C
:1022B0007CBFDA79227F707F617E18000180057F04
:1022C000061211987F071B7C4D0178F322CA797D95
:1022D0007380077E3403E81223BE7D371B744D33B1
:1022E00078F1DA7922CA797D7380077E3403E812A7
:1022F00022CD7D371B744D3378F1DA7922CA797C8F
:10230000F7C2C81224447CEB7CBF122444D2C87CA0
:10231000BEDA79227CA77C3B7E34000180040A234C
:10232000AD327C2A1BA0A5BA00F42220B4FD30B443
:10233000FD7E1801661B1C78FC30B403740122E496
:1023400022748D6C7712202074146C771220207404
:10235000AF6C77022020748D6C7712202074106C83
:102360007712202074AE6C770220207D037E34FE2D
:10237000DB7E24007E7A1B007E34FEDC7A1B10227A
:102380007D037E34FEF57E24007E7A1B007E34FEC3
:10239000F67A1B10227D037E34FEF77E24007E7ABF
:1023A0001B007E34FEF87A1B1022D2A412249ED287
:1023B000A512249EC2A412249EC2A502249ECA79FC
:1023C0007D7380031224B67D371B744D3378F5DAA4
:1023D0007922538E7F5389F0758AC0758C63C28DC4
:1023E000D28CD2A9225391C75392C775CA0075C91E
:1023F00000D2C8C29522438E4053890F758B007559
:102400008D00C28FD28E22C28200D2827E18003A04
:102410001B1C78FCC282225392BF5391BF53B2F768
:1024200053B1F7D29622D2A412249ED2A512249E92
:10243000C2A502249EC2A412249ED2A512249ED21A
:10244000A402249E7AB1CFE5CD30E7FB53CDC0E5A1
:10245000CF2275CFFFE5CD30E7FB53CDC0E5CF22CE
:10246000C2C812244474FF122444D2C82253B1FCBF
:1024700053B2FC5393FC5394FC22CA59CA78121DE0
:102480001FDA78DA59327EA30163E47AB301637C00
:10249000BA227AB1CFE5CD30E7FB53CDC0227EA082
:1024A000017C7A1BA0A5BF00F8220000007E18174F
:1024B0006E1B1C78FC220000007E1800041B1C7898
:1024C000FC220000007E18001C1B1C78FC2200006F
:1024D000007E18003A1B1C78FC220000007E1800C9
:1024E000761B1C78FC220000007E18012A1B1C7839
:1024F000FC220000007E1800581B1C78FC22000003
:10250000007E1802561B1C78FC2275CF0075CDC0CA
:1025100075CED322C282C2831225800223F61225F1
:102520006B1200030223D2C2A6C2A7C2A2C2A32278
:10253000C2A2D2A3D2A6C2A722D2A2C2A3D2A6C2AC
:10254000A722C2A6D2A7D2A2C2A322C2A2D2A3C24B
:10255000A6D2A72212246D12226502228153B1EF66
:1025600053B1EF2253B31F53B41F2253948F53938D
:102570008F225395304396CF2253917F43918022EF
:102580005393F35394F3225395CF5396CF221225AE
:10259000720218A31224170225A0122579021A8E9E
:1025A0001223E502250A0225642222283029000090
:1025B0000A014100000000000000000000000100CE
:1025C000F700000100F800000101160100010117E9
:1025D000000001011801000100B302000A00C82038
:1025E000302000000000000000000200E6000200B1
:1025F0000100E814000100E923000100EA230001C2
:1026000000EB1400004E524632344C30315F4368C8
:1026100065636B20737563636565642021000A0040
:102620004E524632344C30315F436865636B2066EE
:1026300061696C6564202100C2C2C2C2C200000090
:10264000000000C2C2C2C200C2C2C2C248454C4C55
:032650004F210017
:00000001FF
