:1000000002269753B1DF53B2DF2222022F670A1B69
:100010007E0400B48D107E3407D0AD312E3401F44F
:10002000022E150223FFC29674307E1431AE7E0478
:1000300000FF7E70051228C1742A7E1431A97E0447
:1000400000FF7E70051228C174217E7001122D7D83
:1000500074227E7001122D7D74247E701A122D7D03
:1000600074257E7019122D7D74267E700F122D7DE1
:1000700074207E700E122D7D74277E70FF122D7DF0
:0A0080007E340096122D4DD2962218
:10008B00022B56C2C8122F2374FF122F23D2C82261
:10009B000229CC0203C26E00807CB1337CB0336882
:1000AB000D0468EF7CB5337CB43378037F102204E6
:1000BB0068E17D5092F77D457D51BF2140067C80E4
:1000CB007F017F121203857EA1D05CB004780320E0
:1000DB00D5C17CB00478075002B2D50203CA92D5C1
:1000EB00BE80FF68F67CB89CB06C00602AB4180523
:1000FB007C4102039E50FB80032F00047C9B5E908F
:10010B000778F630E4067C437D106D0030E3087C05
:10011B00437C327C210A0030F5199F10780E2202A5
:10012B0003C71B8068F92F1150020B707CB530E7A9
:10013B00F1801B2D317CB5A5397C5B50110B807880
:10014B00030203CA1E341350034E60801A2B0203A2
:10015B009E5D22680D5D0078122D220B4068099F71
:10016B0011222D000B0078F90203C21203855C806B
:10017B000B806808248150072CB0500A0203CA2C4C
:10018B00B040030203C77C8B5D1178267CB17CA544
:10019B00BE1080680A5D33780DA5BD80057F100207
:1001AB0003B46D0080307F017C5B7CB17CA5AD120C
:1001BB0080245D337806A5BD80F080E1CA887D413F
:1001CB00AD437CB17CA5AD122D1450020B047C5BAE
:1001DB00AD232F01DA88A42D05BE008040060B80CD
:1001EB00780480982F007C437C507C617C720203E6
:1001FB009EBE24FFFF6806BE04FFFF78030203C206
:10020B001203855CB00468F57CB8A54868EF7CB830
:10021B0070039F1122A5B800030203CA2E00815060
:10022B00079C8038070203C79C8050ED0A51C2E738
:10023B004D5178030203B47E5400807E901A6C00FB
:10024B0080061B9068142F11BF1040049F104CABFD
:10025B000330E7EECAA86CAA80E8DA39DA587C4A90
:10026B00BE5080500A1B8068BC2F1150020B7002CD
:10027B00039E74F86CAA6E40806E0080BEB0FF685F
:10028B00277C837C975C3B5C7BBF10682AF4400D1A
:10029B007C382D15F45C3B500F0B04800B7C792DB7
:1002AB0035F45C7B50020B24BF10680B7CB020E74D
:1002BB00067CB420E701B3227EA020800C7EA01028
:1002CB0080057EA0086C556D333392D5500A6E3481
:1002DB00FFFF6E24FFFF0B1CA5EC3340062F11D53F
:1002EB00F0F6227CBA247EA2D5137C767C65A5CC55
:1002FB0092E77C5B227CB5337CB43392D54E508035
:10030B00248140039F11227C457C567C676C7724AB
:10031B00E0500E7E1CFFFF221E341E2450034E6045
:10032B00800478F430D50A6E34FFFF6E24FFFF0B88
:10033B001C227F507EC400007ED401907E94034E1D
:10034B000204034001227CEACA89CA5BCA6B122BE6
:10035B00E3DA6BDA5BDA897E94034E7CAE227F7034
:10036B007F517E6F01B17E9403780204034005E454
:10037B007A7BB0227A7BB00B7C222D0092D50E10AB
:10038B004E10807D422D445002B2D54E50806C44AD
:10039B007CB8222C4450120B1C7E40005E507FBE5A
:1003AB0018000078040B806816A2D57CB8137C4B20
:1003BB007CB592E77C5B227E1CFFFF229F11227E85
:1003CB0024FF8020D5026C456D3322540F2490D42A
:1003DB003440D430F30CBEB0414007BEB05B50028A
:1003EB0024204CCC68021BC00B84D389944CCC6862
:1003FB000B74201203ED80F5CA3B6D889F337CAEE6
:10040B007E5BB00B5C7007C37D38DA3B8994B425F7
:10041B0069C2F37E5BB00B5CA5F824D0BEB00A506A
:10042B001B7E500A20F60DAC5CA52D7CCB70034EC9
:10043B00F00180DDAC5DA52D7CDB80D524CFBEB07B
:10044B001AA5E850055E00DFD2F39007D8A3E4931A
:10045B006011BCB078F77417934CAB30F6B34EF019
:10046B008080AEA3E4936010BCB078F77416937CD5
:10047B003B7423937C2B89147CB080137420120360
:10048B00ED20F205BEC00250F31B6D29B600011220
:10049B0003ED0203F81B6E691600020B6A00BE081F
:1004AB00000078087E0400FF7E1430A120F21E4C61
:1004BB00CC681A7F10E47E1B804C8868070B1C04E9
:1004CB00BCBD78F2C2F6CA0B1205D7DA0B7E0BB0A5
:1004DB0060C0CA0B1203EDDA0B0B0C4CDD68EE1B84
:1004EB00D078EA80ADD2F07E101080037E10085ECB
:1004FB00B05F800AD2F67E100A80057E100AC2F623
:10050B006D119F117E00201B6C7E6B7030F6021AF2
:10051B003720F1051B6C7E6B6030F6041A261A240B
:10052B0030F0051B6D0B6A20A5EC3382F692F6506A
:10053B000A7CEA9F229F217F127CAE4C44780F7C71
:10054B00457C567C676C772E00F878EF80122F1164
:10055B007CB3337C3B9CB140047C3B0B70A5D8EE49
:10056B007CB230E005DAB8C44C3BCA380B207E00B5
:10057B00207E3000BE18000078C1BE10087807300E
:10058B00F404C2F480B5CA287CB2BCBD38027CBD71
:10059B001205D7DA28BC2D500A1BD0E4CA28120347
:1005AB00D680F07CB213DAB84004C4CAB8C4CA28E7
:1005BB00BEF08040095CDD7805A5DA0260065EF0CE
:1005CB007F1203D6DA28A5DADA0203F8BEF0016847
:1005DB000F30F402240220F50620F70330F6010455
:1005EB0020F229BCBC5025CAB87CBF13B0E67420DE
:1005FB00501174307C8A5E80F068081206175EA07A
:10060B000F80031203EDDAB8BCBC78DB30F40F7447
:10061B00301203ED745830F30274781203ED30F698
:10062B0005742D0203ED742B20F5F8742020F7F3DD
:10063B00221B6C7E6BB010F1021B6C20F60B30E7AB
:10064B0004F404D2F27CCB800520E7057CDB0204AA
:10065B001C5EF07F80F81B6E691600020B6A00307F
:10066B00F0076D221B0A200B0D1B0A80020407E406
:10067B006C22BE3007500B7F1F2D312E34FFF77EBF
:10068B0039B0227CBF20E7A8742E4EF0800203ED18
:10069B001207C1403D7CBD7003047CDB1208D87C83
:1006AB003D4C3368101B307CBE20E40912067A7077
:1006BB00044C3378F07CBD7CD3BEA0FD481CBCAB96
:1006CB005818E49CBA2CB31801E47CDB02076212C5
:1006DB0007C1406E7CBD041208D87AFBA07CAE7CAF
:1006EB00BDA2F492F0C2F44002600104240512058D
:1006FB00D77E30FF0B3012067ACA381203D620F0A1
:10070B00044CDD680312068EDA38BC3D78E6740EB5
:10071B001203D6742B7EFBA030F707742D6EA0FF4F
:10072B000BA07AFBA01203ED7EA00A7EFBB0847AAD
:10073B00FBA01203D67EFBB01203D69EF800080274
:10074B0003F8D2F27ED0000204B71207C140F37C4B
:10075B00BA2CBD041208D87AFBA07CBA7CAE30E769
:10076B0001E40420F4044CDD6805D2F0C2F4042C3F
:10077B00BD1205D76C337EFBB0601B20E712147AD9
:10078B00FBB012067ACA381203D6DA380B3080E681
:10079B00047AFBB01B3012067ACA381203D64CDD32
:1007AB00680712068E1BD080E19EF8000930F0031B
:1007BB0012068E0203F87CEA7CAF10F7037ED0069C
:1007CB007CFA1B6E693600020B6A200208202D2B67
:1007DB00204C4248232E0053584F44494355502A2E
:1007EB004E464547000420800102001040A0F2F75E
:1007FB00FFFF8C06F03C6155DA9B040404040404EF
:10080B00050406060706064E614E002B494E4600B0
:10081B002D494E46007D522D557CBE92E67CEB7CDD
:10082B00BA601F0470287CB5C2E77E0400FF600627
:10083B007E140812D3227E14081B40047E14081663
:10084B00D322DA099F22CA2BCA2BC3CA09220A0A4E
:10085B007E144D10AD109E083AF09E10267CB5C24A
:10086B00E77EA0567C9BA46E54FFFF2E54C511ACA3
:10087B00A92D15E4A539CAB8CA1B20E70A12094BE2
:10088B00DA1B1201FC800AF40412094BDA1B120169
:10089B005CDAA87CB5337CB4334E50806C44248234
:1008AB002F111478FBDA497407BE400A40099E40A9
:1008BB000ACA0201140BA0CA486C442F117F012FE6
:1008CB00112F112F101478EFCA48CA49227F0F201D
:1008DB00E73ABEB007400274070A0B2D109E1400B6
:1008EB00097E19B02EB0FB501F4C116817E47A1912
:1008FB00B01B147E19B0047A19B0B40A0BE47A1940
:10090B00B0A5D9ED0BA074017A19B0225EE0BF221D
:10091B003F8000004120000042C80000447A0000E4
:10092B00461C400047C35000497424004B18968066
:10093B004CBEBC205A0E1BCA6753C21C749DC5AE5D
:10094B007C7B60065407681623231209707CB7540E
:10095B0038680A7F1012096D12015C7F01227CB787
:10096B00543803241C6CAA2E54091B7E4400FF0B25
:10097B002A006912000222C2D57CB430E708B2D536
:10098B006E24FFFF0B247CB630E712B2D56E34FF1A
:10099B00FF0B348D326E24FFFF0B2480028D32301F
:1009AB00D5066E34FFFF0B34227D51AD037D027DE6
:1009BB0021AD052D12AD352D21226D0074104D008A
:1009CB00780B4D2278278D317D126D22227D437D50
:1009DB00326D222F112D445002A50FBF1040049FE2
:1009EB00100B901478ED7F016D227D34227D417DBB
:1009FB00138D247D022F004004BD0440049D040B85
:100A0B00141478F17D237D317D106D0022000000E0
:100A1B000000000000002F0000000007000700008E
:100A2B00147F147F1400242A7F2A12006264081397
:100A3B002300364955225000000503000000001C1E
:100A4B00224100000041221C000014083E08140043
:100A5B0008083E0808000000A0600000080808080D
:100A6B0008000060600000002010080402003E51E6
:100A7B0049453E0000427F4000004261514946001B
:100A8B002141454B31001814127F10002745454575
:100A9B0039003C4A494930000171090503003649C8
:100AAB0049493600064949291E0000363600000028
:100ABB0000563600000008142241000014141414D0
:100ACB0014000041221408000201510906003249AA
:100ADB0059513E007C1211127C007F494949360066
:100AEB003E41414122007F4141221C007F4949493F
:100AFB0041007F09090901003E4149497A007F08FD
:100B0B0008087F0000417F4100002040413F010069
:100B1B007F08142241007F40404040007F020C02BE
:100B2B007F007F0408107F003E4141413E007F095A
:100B3B00090906003E4151215E007F091929460033
:100B4B0046494949310001017F0101003F404040C6
:100B5B003F001F2040201F003F4038403F006314E0
:100B6B0008146300070870080700615149454300EA
:100B7B00007F41410000552A552A55000041417F15
:100B8B00000004020102040040404040400000010C
:100B9B00020400002054545478007F484444380029
:100BAB00384444442000384444487F00385454545B
:100BBB001800087E0901020018A4A4A47C007F0879
:100BCB000404780000447D4000004080847D0000D8
:100BDB007F102844000000417F4000007C04180473
:100BEB0078007C0804047800384444443800FC2422
:100BFB002424180018242418FC007C080404080082
:100C0B00485454542000043F444020003C404020B2
:100C1B007C001C2040201C003C4030403C00442801
:100C2B00102844001CA0A0A07C004464544C441425
:100C3B001414141414000000000000000000000045
:100C4B000000000000000000F800000000000000A1
:100C5B00333000000000100C06100C0600000000E2
:100C6B00000000000040C07840C0784000043F0402
:100C7B00043F040400007088FC08300000001820BA
:100C8B00FF211E0000F008F000E018000000211CFE
:100C9B00031E211E0000F00888700000001E212397
:100CAB00241927211010160E000000000000000070
:100CBB000000000000000000E0180402000000002B
:100CCB00071820400000020418E00000000040203C
:100CDB001807000000404080F080404000020201F5
:100CEB000F01020200000000F000000000010101F2
:100CFB001F01010100000000000000000080B07027
:100D0B0000000000000000000000000000000101D6
:100D1B000101010101000000000000000000303063
:100D2B000000000000000000008060180400601844
:100D3B00060100000000E010080810E000000F1092
:100D4B002020100F00001010F800000000002020E1
:100D5B003F20200000007008080888700000302831
:100D6B0024222130000030088888483000001820E9
:100D7B002020110E000000C02010F8000000070416
:100D8B0024243F240000F808888808080000192153
:100D9B002020110E0000E0108888180000000F11B1
:100DAB002020110E0000380808C838080000000089
:100DBB003F000000000070880808887000001C22AB
:100DCB002121221C0000E010080810E00000003177
:100DDB002222110F00000000C0C000000000000024
:100DEB003030000000000000800000000000008098
:100DFB00600000000000008040201008000001028D
:100E0B0004081020004040404040404000040404CF
:100E1B00040404040000081020408000000020108F
:100E2B000804020100007048080808F000000000E8
:100E3B003036010000C030C828E810E00007182742
:100E4B002423140B000000C038E0000000203C23DA
:100E5B00020227382008F8888888700000203F207D
:100E6B002020110E00C03008080808380007182091
:100E7B00202010080008F808080810E000203F2088
:100E8B002020100F0008F88888E8081000203F2069
:100E9B00202320180008F88888E8081000203F203D
:100EAB000003000000C030080808380000071820B5
:100EBB0020221E020008F808000008F808203F2135
:100ECB000101213F20000808F8080800000020203D
:100EDB003F2020000000000808F8080800C08080B0
:100EEB00807F00000008F888C028180800203F20E9
:100EFB00012638200008F8080000000000203F20E1
:100F0B00202020300008F8F800F8F80800203F00F7
:100F1B003F003F200008F830C00008F808203F20B1
:100F2B000007183F00E01008080810E0000F102021
:100F3B002020100F0008F808080808F000203F21B7
:100F4B000101010000E01008080810E0000F182450
:100F5B002438504F0008F8888888887000203F207C
:100F6B0000030C3020007088080808380000382077
:100F7B002121221C00180808F8080818000000207E
:100F8B003F2000000008F808000008F808001F20A8
:100F9B002020201F000878880000C83808000007B0
:100FAB00380E010000F80800F80008F800033C07B1
:100FBB0000073C0300081868808068180820302C54
:100FCB0003032C30200838C800C838080000002064
:100FDB003F2000000010080808C8380800203826F9
:100FEB002120201800000000FE0202020000000079
:100FFB007F40404000000C30C000000000000000AB
:10100B00010638C00000020202FE00000000404052
:10101B00407F0000000000040202020400000000F8
:10102B000000000000000000000000000080808035
:10103B00808080808000020204000000000000001D
:10104B000000000000000080808080000000192458
:10105B002222223F2008F8008080000000003F1170
:10106B002020110E000000008080800000000E1177
:10107B002020201100000000808088F800000E1155
:10108B002020103F200000808080800000001F2265
:10109B002222221300008080F088888818002020EC
:1010AB003F202000000000808080808000006B9437
:1010BB00949493600008F8008080800000203F210A
:1010CB000000203F200080989800000000002020A6
:1010DB003F20200000000000809898000000C08096
:1010EB0080807F000008F8000080808000203F2473
:1010FB00022D302000000808F8000000000020201E
:10110B003F202000008080808080808000203F2056
:10111B00003F20003F8080008080800000203F2126
:10112B000000203F200000808080800000001F20F6
:10113B002020201F00808000808000000080FFA105
:10114B002020110E000000008080808000000E1116
:10115B002020A0FF80808080008080800020203FA6
:10116B00212000010000008080808080000033245B
:10117B002424241900008080E080800000000000FF
:10118B001F202000008080000000808000001F20B6
:10119B002020103F20808080000080808000010E86
:1011AB00300806010080800080008080800F300CAA
:1011BB00030C300F00008080008080800000203105
:1011CB002E0E312000808080000080808080818EF8
:1011DB007018060100008080808080800000213024
:1011EB002C2221300000000000807C020200000055
:1011FB0000003F404000000000FF00000000000026
:10120B0000FF0000000002027C8000000000404054
:10121B003F00000000000601010202040400000070
:10122B0000000000000000F010101010FF10101054
:10123B0010F000000000000F04040404FF04040479
:10124B00040F0000004040405F55555575555555EE
:10125B005F404040000040200F0949897909090986
:10126B000F2040000000FE02424ACA4A4ACA4A4ABC
:10127B004202FE000000FF40504C4340404F505094
:10128B005C40FF00000000F888888888FF88888809
:10129B0088F800000000001F080808087F8888886D
:1012AB00889F80F00080828282828282E2A2928A70
:1012BB008682808000000000000040807F000000DC
:1012CB000000000000101010FF109008888888FFA5
:1012DB0088888808000444827F01808040432C105A
:1012EB0028468180000010101010D030FF30D01233
:1012FB001C1010000010080402010000FF00000188
:10130B000204081000CA3B7DF17D427D237CB412A0
:10131B0002C87F617D247CB81202C86DBB7EA442DB
:10132B00C87F051201FC7F417D2F7CB41202C87F60
:10133B00051201FC7F71BE480000781D7E1F001056
:10134B0079F100021B1AE07E1F000C79F100021BE1
:10135B001AE07E1F000802148F6D117E0442707F0D
:10136B00161201FC7F611203007A3700147D237C77
:10137B00B61202C87F017F161200A17F316DDD7E90
:10138B00C43F807F167F041200A17F0712015C7F90
:10139B00517F147F0312015C7F017F161200A17F26
:1013AB000712015C7F616D337E243F807F03120047
:1013BB00A17F0412015C7F016D337E243F801200FC
:1013CB00A17F0712015C7F017E3700141B34683745
:1013DB001B3468571B3468761B3478030214751B57
:1013EB003478030214982E34000568030214B97E76
:1013FB001F000879F100021B1AE07E1F000C791107
:10140B0000021B1A0080167E1F000879D100021BF8
:10141B001AC07E1F000C79F100021B1AE07E1F0020
:10142B001079B100021B1AA00214B97E1F000879B3
:10143B00B100021B1AA07E1F000C79F100021B1ACF
:10144B00E07E1F0010791100021B1A0080607E1FC6
:10145B00000879B100021B1AA07E1F000C79D10085
:10146B00021B1AC07E1F0010801A7E1F0008791104
:10147B0000021B1A007E1F000C79B100021B1AA080
:10148B007E1F001079F100021B1AE080217E1F00E5
:10149B000879F100021B1AE07E1F000C79B10002E3
:1014AB001B1AA07E1F001079D100021B1AC07E7F71
:1014BB000008693700020B7A206D117E04437F12FE
:1014CB00015C793700021B7A207E7F000C693700A4
:1014DB00020B7A206D117E04437F12015C79370079
:1014EB00021B7A207E7F0010693700020B7A206D79
:1014FB00117E04437F12015C793700021B7A20DADC
:10150B003B22CA3B7E340023122E2A7E3400231248
:10151B002E3F74037AB301BF7E3401F4122D4D12AA
:10152B0022387A1F00F67E340002122D4D6D117E8B
:10153B000441707E1F00F612027D384612301F7474
:10154B00017AB301BF7E340001122D651222387A65
:10155B001F00FE7E340002122D4D74037AB301BFBF
:10156B007E340001122D6574057AB301BF7E3406FB
:10157B0040122D4D1222387A1F00FA7E34000212CF
:10158B002D4D6D777E6441707E1F00F67F03120236
:10159B007D280512303180477E0F00FA7E7F00FEDA
:1015AB007F1712027D400E7F177F0312027D2805E5
:1015BB0012303A80207E0F00FA7E1F00FE12027D51
:1015CB0038107E1F00FA7F0312027D280512302887
:1015DB0080031230437E340001122D6512301F122E
:1015EB0025717E340006122D4D7E0800C71228137C
:1015FB00702F7EB300C7B453287EB300C8B45421F8
:10160B007EB300C9B44F1A7EB300CAB45013740131
:10161B007AB300EF12301F6D33122E2A6D33122E58
:10162B003F7E1F00F67A1F018C7E1431BB7E0400B7
:10163B00FF12033DDA3B22CAF81225717E340006F5
:10164B00122D4D7E0800EA12281370727EA300EA59
:10165B00BEA04C78097EB300EBB459028060BEA0EB
:10166B0052780B7EB300EBB4590474028052BEA0C7
:10167B004D780B7EB300EBB4500474038042BEA0D4
:10168B0047780B7EB300EBB4520474048032BEA0D7
:10169B004B780B7EB300EBB4590474058022BEA0CB
:1016AB0042780B7EB300EBB45A0474068012BEA0D2
:1016BB005778117EB300EBB44C0A740780027401A7
:1016CB007AB301047EF30104BEF00178051224689D
:1016DB00806ABEF002780C121D177EB300EEB401C7
:1016EB00F68053BEF003780C1218497EB300D3B4C6
:1016FB0001F68042BEF004780C121C547EB300D16C
:10170B00B401F68031BEF005780C1217637EB3007E
:10171B00F0B401F68020BEF006780C12150D7EB3E6
:10172B0000EFB401F6800FBEF007781012192A7E75
:10173B00B300D2B401F674017AB30104E47AB300B6
:10174B00D17AB300EE7AB300D37AB300F07AB30058
:10175B00D27AB300EFDAF8221225717E340006122A
:10176B002D4D7E0800D412281360030218487EB357
:10177B0000DAB405061230310218217EB300DDB455
:10178B0008061230430218217EB300DBB4060612A2
:10179B0030280218217EB300DCB4070512303A80E2
:1017AB00757EB300DFB40A167EB300F5047AB3007E
:1017BB00F57E7300F5BE7064405C7464801A7EB372
:1017CB0000E0B40B197EB300F5147AB300F57E7309
:1017DB0000F5BE7064283FE47AB300F580387EB321
:1017EB0000DEB4090280227EB300D4B453287EB34A
:1017FB0000D5B454217EB300D6B44F1A7EB300D7B4
:10180B00B4501374017AB300F012301F6D33122EE3
:10181B002A6D33122E3F7E7300F50A37122E2A7E65
:10182B007300F50A37122E3F7E7300F50A377A37AD
:10183B00018E7E1431D97E0400FF02033D22122556
:10184B00717E340006122D4D7E0800D412281360D1
:10185B00030219297EB300DAB40504740D802A7EC5
:10186B00B300DDB40804740E801F7EB300DBB40636
:10187B0004740280147EB300DCB407047401800985
:10188B007EB300DEB4090874186C776D2280537E2A
:10189B00B300DFB40A247EB300F3047AB300F37E03
:1018AB007300F3BE701E4006741E7AB300F374040B
:1018BB006C777E6300F30A2680287EB300E0B40BBE
:1018CB00267EB300F3147AB300F37E7300F3BE707D
:1018DB001E4005E47AB300F374056C777E6300F366
:1018EB000A26122AAF80227EB300D4B4531B7EB3D8
:1018FB0000D5B454147EB300D6B44F0D7EB300D7CD
:10190B00B4500674017AB300D37E7300D90A377AC8
:10191B0037018E7E1431D17E0400FF02033D22CAB3
:10192B00F81225717E340006122D4D7E0800EA1246
:10193B00281360030219FA7EF300ECBEF04178081D
:10194B00740E12271B0219E5BEF045780A7E34008F
:10195B00641226080219E5BEF0547813E47E707900
:10196B007E60FF122DEB7E140064121FAA806BBEEB
:10197B00F0577807740E122C7B805FBEF0527807FD
:10198B00740E122D028053BEF0477807740E122C82
:10199B00CE8047BEF0427807740E122CE8803BBE17
:1019AB00F04378097E340064122038802D7EB3001A
:1019BB00EAB4531B7EB300EBB45414BEF04F780F54
:1019CB007EB300EDB4500874017AB300D2800B12D1
:1019DB002F3FE46C776C66122E687E7300EC0A372F
:1019EB007A37018E7E1431B37E0400FF12033DDA89
:1019FB00F822CA3B7CD37CC67D727A73019F7AB383
:101A0B00019EE47AB301A27AB301A3BED008780693
:101A1B0074027AB301A2E4021AB9740A7EA301A07C
:101A2B000A2A0A3C9D321B34122D947D278D237E6E
:101A3B0024000A8D327A5301A17EB301A370390AB7
:101A4B002C1B247E7301A00A37BD32582B7EB301A9
:101A5B00A1701F0A1D1E147E5301A20A252D21AD54
:101A6B00327E53019E0A552D537E73019F7E60205B
:101A7B00803274017AB301A30A3D1E347E5301A256
:101A8B000A252D237E7301A00A37AD327E53019EAA
:101A9B000A552D537E73019F7E6301A10A262E24C6
:101AAB0000307C657C5D121B917EB301A0047AB380
:101ABB0001A0BEC301A02803021A25DA3B22123073
:101ACB007874AE6C771229FAE46C771229FA7410D9
:101ADB006C771229FA74406C771229FA74816C773F
:101AEB001229FA74CF6C771229FA74A16C77122928
:101AFB00FA74C86C771229FA74A66C771229FA74E7
:101B0B00A86C771229FA743F6C771229FA74D36C8C
:101B1B00771229FAE46C771229FA74D56C771229AB
:101B2B00FA74806C771229FA74D96C771229FA74CB
:101B3B00F16C771229FA74DA6C771229FA74126C39
:101B4B00771229FA74DB6C771229FA74406C7712CE
:101B5B0029FA74206C771229FA74026C771229FA1D
:101B6B00748D6C771229FA74146C771229FA74A499
:101B7B006C771229FA74A66C771229FA12296674FB
:101B8B00AF6C770229FACA3B7CF57CA67CE77CDB41
:101B9B000A257D321E347A7301A46D117A1701A5C3
:101BAB00BEF008780A7E1400067A1701A7801E7D06
:101BBB00121E141E141E145E24000768067E2400D9
:101BCB000180026D222D21AD327A3701A70A3A9E90
:101BDB003400207CC77CBD7C7E122B066D33805875
:101BEB007E7301A40A377E2701A58D234D22780E23
:101BFB00BEF00868097CBD7C7E0BE0122B06BEF0A4
:101C0B0008780F7E7006AC7C2E3701A52E340A188F
:101C1B008012BEF010782F7E7010AC7C2E3701A591
:101C2B002E340C407A71827A6183E4937E700112B8
:101C3B0029FA7E3701A50B347A3701A57E3701A728
:101C4B00BE3701A5389ADA3B22CA791225717E3448
:101C5B000006122D4D7E0800B31228136003021DDF
:101C6B00147E7300C90A277E3400649D327A730098
:101C7B00F40A37122E2A7E7300F40A37122E3F7E97
:101C8B00F300B6BEF02838051230318067BEF03C49
:101C9B004005123043805DBEF0282807BEF03C5053
:101CAB000280227EE300B8BEE0283805123028807F
:101CBB0043BEE03C400512303A8039BEE028281480
:101CCB00BEE03C500F12301F6D33122E2A6D3312B3
:101CDB002E3F80207EB300B3B453197EB300B4B44F
:101CEB0054127EB300B5B44F0BBEF050780674019E
:101CFB007AB300D17E7300B80A377A37018E7E141F
:101D0B0031C87E0400FF12033DDA7922CA7912250D
:101D1B00717E340006122D4D7E0800C71228136009
:101D2B0003021DD57E7300C90A377E7400649D7350
:101D3B000A3F122E2A0A3F122E3F7EE300CEBEE050
:101D4B0064500ABEE0374005123043806CBEE02D74
:101D5B00380ABEE0004005123031805D7EE300D0D2
:101D6B00BEE064500ABEE0374005123028804ABE00
:101D7B00E02D380ABEE000400512303A803BBEE051
:101D8B00375014BEE02D280F12301F6D33122E2A40
:101D9B006D33122E3F80227EB300C7B4531B7EB32C
:101DAB0000C8B454147EB300C9B44F0D7EB300CA3F
:101DBB00B4500674017AB300EE0A3F7A37018E7E77
:101DCB001431D97E0400FF12033DDA79227EB30170
:101DDB00467003021E797EB30153B416187EB3010D
:101DEB0002047AB301027E730102BE706440067472
:101DFB00647AB301027EB30154B418177EB30102A7
:101E0B00147AB301027E730102BE70642805E47A72
:101E1B00B301027E7301020A37122E2A7E7301026E
:101E2B000A37122E3F7EB30155B40A0512303180AA
:101E3B00387EB30156B40B05123043802C7EB301B0
:101E4B0057B40C0512302880207EB30158B40D0511
:101E5B0012303A80147EB30159B40E0D12301F6D3F
:101E6B0033122E2A6D33122E3FE47AB30146227EB3
:101E7B00B301467003021F127EB30153B4161C7ECE
:101E8B00B30103047AB301037E730103BE701E40DA
:101E9B0006741E7AB30103740480207EB30154B41C
:101EAB0018247EB30103147AB301037E730103BEBE
:101EBB00701E4005E47AB3010374056C777E6301F1
:101ECB00030A26122AAF7EB3015AB41104740D8093
:101EDB002A7EB3015BB41704740E801F7EB3015CC2
:101EEB00B41204740180147EB3015DB41304740244
:101EFB0080097EB3015EB4140974186C776D2212DD
:101F0B002AAFE47AB3014622CA3B7F307A5301935E
:101F1B007A6301927A7301917AB301906D337A37B8
:101F2B0001947E7301937D235E24000768067E2453
:101F3B00000180026D221E341E341E342D327A7342
:101F4B000193E480497EB301907EA301910A2A7E1E
:101F5B00A301960A3A2D32122B06E4801E7E37011E
:101F6B00947D230B247A2701942D377D267E1BB07D
:101F7B007E70011229FA7EB30197047AB301977E22
:101F8B00730192BE73019738D47EB30196047AB372
:101F9B0001967E730193BE73019638A9DA3B22CA70
:101FAB003B7A1701687F316D337A37016A6D337A6B
:101FBB0037016C6D337A37016E7E57016C2E5701EA
:101FCB006E7F131227D77E37016E2E3400037A37BC
:101FDB00016EBE34000E40E1122F3F7E37016812B6
:101FEB002D4D6D337A37016E7E57016C2E57016E76
:101FFB009F111227D77E37016E2E3400037A3701DB
:10200B006EBE34000E40E1122F3F7E37016C0B3455
:10201B007A37016CBE34000348997E37016A0B3462
:10202B007A37016ABE3404FB4883DA3B22CA3B7D14
:10203B00736D666D337A3701686D337A37016A7D5C
:10204B00362E37016A7E2400FF8D327CB51224C7F1
:10205B007E5701682E57016A1227D77E37016A2EE9
:10206B003400037A37016ABE34000E40D2122F3F80
:10207B007D37122D4D6D337A37016A7E5701682EED
:10208B0057016A9F111227D77E37016A2E3400033E
:10209B007A37016ABE34000E40E17E3701680B349B
:1020AB007A370168BE340003488F0B64BE640100AD
:1020BB004881DA3B22E47E34FEB67E24007E7A1B16
:1020CB00B07E34FEEC7A1BB074607E14FEE87E04A6
:1020DB00007E7A0BB07E14FEE97A0BB074117A1B7A
:1020EB00B0E47E34FEF07A1BB074EF7E34FEF17AEE
:1020FB001BB0E47E34FEF27A1BB074637E34FEF3C5
:10210B007A1BB0E47E34FEF57A1BB07E34FEF67A91
:10211B001BB07E34FEF77A1BB07E34FEF87A1BB010
:10212B0074057E34FEB57A1BB074807E34FEFD7A66
:10213B001BB074017E34FEE07A1BB022CA3B7CF5E7
:10214B007CD67CE77CCB0A357D131E141E141E1423
:10215B007D235E24000768067E24000180026D2229
:10216B002D21AD327A3701AF6D33803B0A3F7E278D
:10217B0001AD8D234D2278097CBC7C7E0BE0122BAC
:10218B0006BEF010782F7E7020AC7D2E3701AD2E61
:10219B003412307A71827A6183E4937E7001122952
:1021AB00FA7E3701AD0B347A3701AD7E3701AFBE06
:1021BB003701AD38B7DA3B22CA3B7F30122BA0A2D6
:1021CB00B4E4337865A2B4E43368FAE47AB30198E3
:1021DB00122D1C7CAB7EB301980A4B19A4019904F8
:1021EB007AB30198B405E97E73019A0A077E7301ED
:1021FB00990A172D107E63019B0A062D017E630140
:10220B009C0A162D107E63019D0A26BD21781B3971
:10221B007300027E73019A397300037E73019B7AFC
:10222B003B707E73019C39730001DA3B22CA3BE49D
:10223B007AB301689F33122EE6D2B330B3FDD28E40
:10224B0020B3FDC28E7EB30168047AB30168E58DBD
:10225B000A2B7E340100AD32E58B0A2B2D327A37F7
:10226B000169758D00758B007E270169E41202C828
:10227B007E14B7177E043A5112015C7F017A1F015D
:10228B006B7F131200A47F317EB30168B405A76D79
:10229B00117E0440A07F131201FC7A1F016BDA3B05
:1022AB0022CA3B7A6301AB7F307A7301AA7AB301FE
:1022BB00A9E47AB301AC804A7EB301A97E7301AA6B
:1022CB007E6301AC7CA60BA07AA301AC0A267F032C
:1022DB002D127E0B607E5301AB121B917EA301ABC3
:1022EB00BEA008780C7EB301A924067AB301A9809D
:1022FB00110A3A7E2400021209822E7301A97A7305
:10230B0001A97E7301AC0A372D377D267E1BB07079
:10231B00A7DA3B22E47E34FEB27E24007E7A1BB029
:10232B007E34FECD7A1BB074607E14FECB7E04002F
:10233B007E7A0BB074407A1BB0E47E34FED07A1BED
:10234B00B074177E34FED17A1BB0744E7E34FED23D
:10235B007A1BB0741F7E34FED37A1BB0E47E34FE3E
:10236B00DB7A1BB07E34FEDC7A1BB074807E34FECD
:10237B00B17A1BB07E34FEDD7A1BB074017E34FE65
:10238B00C07A1BB0227E54319F7E4400FF6932001D
:10239B0003692200017E2B307A1F01697A330168B1
:1023AB007E5431A47E4400FF693200036922000190
:1023BB007E2B307A1F016E7A33016D74307E0801EB
:1023CB00687E70051228C174107E08016D7E700541
:1023DB00122930E40A3B0973016D0A2B09A201682B
:1023EB00BCA7780604BEB00540EABEB0056803740E
:1023FB00FF22E422CA59CA1BE59830E05B5398FED2
:10240B00E5997AB3013B7EB3013BBEB023681E7ED8
:10241B00A3013B7CBA047AB3013B7E7301477CB7C3
:10242B00047AB301470A3719A30148802BE48013C0
:10243B007E7301650A27097201481972013C7EB34C
:10244B000165047AB301657E730147BE730165387C
:10245B00DFE47AB30147D201DA1BDA59327EB301DA
:10246B0046603F7EB3015FB415066D337A3700F1DA
:10247B007EB30160B410087E3400017A3700F17E20
:10248B00B30161B40F087E3400027A3700F17E3459
:10249B0000017E0801527E240013122A56E47AB3FF
:1024AB0001467E3700F11B34680B1B34680A0B3571
:1024BB00780902000A021DD8021E7A22CA790A3B49
:1024CB007E7400FF7D279D237C45BE405550127EB8
:1024DB009003AC947D579D546C777E5003AC458034
:1024EB0017BE40AA50169E4055E47E7003AC747E16
:1024FB003003AC347D279D217C6580129E40AA74ED
:10250B0003ACB47E5003AC457D379D326C66122D07
:10251B00EBDA79227F707C3B7EB301661468190479
:10252B007841A5BBA50B74017AB301667A7B308029
:10253B0032E47AB30166802B7E2301670A322D3F8A
:10254B007D2E7A1B307EB30167047AB301677E73ED
:10255B000167BE7013400C74017AB30167E47AB360
:10256B0001662274FF22C296742A7E1431A97E045E
:10257B0000FF7E70051228C174217E7001122D7D23
:10258B0074227E7001122D7D74257E7019122D7DA3
:10259B0074317E7014122D7D74267E700F122D7D7A
:1025AB0074207E700F122D7D74277E70FF122D7D8F
:1025BB00D29622CA3B7AB301BE7F307A3701BC80F8
:1025CB002A7E18000A7E3301BE0A136D00122D35C8
:1025DB007F017F131209C77E14000A1209C57F20E1
:1025EB002E2800307E3701BC122B7C7EA301BE7CD3
:1025FB00BA147AB301BE4CAA78C7DA3B22CA3B7D28
:10260B00736D666D337A3701687E5701687CABE476
:10261B007E44000E8D542D561224C77E570168122E
:10262B0027D77E3701680B347A370168BE34000E2A
:10263B0078D7122F3F7D37122D4D0B64BE640500EA
:10264B0040C1DA3B227E7301BA7A7301BB122BC3F2
:10265B007AB301BA7EA301BBBEA001780C7EB30195
:10266B00BA700674017AB301B9BEA002780C7EB3BE
:10267B0001BA700674027AB301B9BEA003780C7E5E
:10268B00B301BA700674037AB301B9227584017E63
:10269B0044041FE47A49B01B4478F97EF801C4C2A4
:1026AB0000C2017E0400FF7E1430A50B0A405D447E
:1026BB00681A692000020B0E0B44800A7E0BB07A5D
:1026CB0029B00B240B0C1B4478F280DF02279ACA2B
:1026DB00F8C29674A07E70141228C1D296A283E41D
:1026EB003378FA740712008E7CFB74277C7F122DD3
:1026FB007D7CBF30E40C74E17E70FF122D7D741075
:10270B00800B7CBF30E5047420800274FFDAF82262
:10271B00CA3B7CFB122C037E6400FF7D26120982D0
:10272B007CB5900000F0122C037D261209827CE50B
:10273B00122C037D261209827CD5800D900000E0BF
:10274B007C7E7C6D122E680BC0BCFC38EFDA3B2212
:10275B00CA3B7D736D666D337A3701C17D562E573B
:10276B0001C11224C77E5701C11227D77E3701C181
:10277B000B347A3701C1BE34000E78E0122F3F7D47
:10278B0037122D4D0B64BE64010040CADA3B227533
:10279B00E900A9D7BA75EA0012304C12308C12300E
:1027AB008612309E12301612305512300C123092A7
:1027BB0012307FE41228F974066C777E2400141211
:1027CB002AAFD2AF12284E12164280FBCAF87F01F5
:1027DB007CAB6CFF0A4A191401291924011B19340B
:1027EB00010D0BF0BEF00E78EB6CFF0A3F09B30145
:1027FB001B097301290A2F0962010D122E680BF0B8
:10280B00BEF00E40E6DAF822CA3B7F30A283E433F7
:10281B00782C740712008E7C7B7AB30168742712B4
:10282B002D7D7EB3016830E61574617F037E7014D5
:10283B0012293074E27E70FF122D7DE48002740148
:10284B00DA3B22801D7E1431877E0400FF12033D8C
:10285B007E1431857E0400FF12033D7E3403E812A3
:10286B002D4D12239070DE7E14316C7E0400FF120E
:10287B00033D7E1431857E0400FF02033D7CAB7F5C
:10288B00706D226C66800F0A162D1F7D0E7E0B70ED
:10289B000A172D210B60BCA638ED6E24FFFF0B240D
:1028AB000A162D1F7D0E7A0B407C750A267F072D8D
:1028BB00123970000122CA3B7A7301727F30C2C891
:1028CB00122F237AB30173E4800D7E3BB00B74128D
:1028DB002F237EB30174047AB301747E730172BE2D
:1028EB0073017438E5D2C87EB30173DA3B227CAB3B
:1028FB006C770A4A7CB760053E441478FB4D4468FC
:10290B00067E24000180026D225E2400806804D2C2
:10291B00C78002C2C7C2C5D2C50B70BE700840D2F9
:10292B00C2C6D2C622CA3B7A7301727F30C2C812AA
:10293B002F23E4800F74FF122F237A3BB00B747E8E
:10294B00B30174047AB301747E730172BE730174A4
:10295B0038E3D2C87EB30173DA3B22CA796CFF0A23
:10296B005F2E5400B06C771229FAE46C771229FAB7
:10297B0074106C771229FA6CEEE47E70011229FA4E
:10298B000BE0BEE08078F20BF0BEF00840D1DA79B4
:10299B0022CA797CFB7E340001747E122B7C6CEE98
:1029AB00800F7E3400010A2E09B20016122B7C0B0D
:1029BB00E0BCFE38ED7E34000174EF122B7CDA792B
:1029CB0022CA59CA787EB301C0047AB301C07428F5
:1029DB007EA301C08CAB7AA301C07E7301C0BE7312
:1029EB0001BF5004D2CA8002C2CADA78DA5932CA9D
:1029FB00797CF77CEB122E547478122B2F122F0547
:102A0B004CFF680474408001E4122B2F122F057CBD
:102A1B00BE122B2F122F05122F14DA79227CA57CD4
:102A2B00577C7B74FF7AB3001674067AB300177A5F
:102A3B007300187A5300197A63001A7AA3001B7E6D
:102A4B00080016122888740802299CCA3B7A2701B1
:102A5B006A7F307A370168800C7E3701687E3BB025
:102A6B000B74122B7C7E37016A7D231B247A270182
:102A7B006A4D3378E4DA3B22CAF87CFB4CFB780EC8
:102A8B0074C86C771229FA74A16C771229FABEF00C
:102A9B0001780E74C06C771229FA74A06C77122926
:102AAB00FADAF8227C677C7B74FF7AB30016740623
:102ABB007AB300177A7300187A6300197A43001AF5
:102ACB007A53001B7E080016122888740802299C72
:102ADB00CA797A0F004B7D737E3400497E24000047
:102AEB007A1F01B17E08004F7E1F004B1203697DD8
:102AFB00377E08004F122C40DA7922CAF87CFB0A89
:102B0B00572E5400B06C771229FA7CBF54F0C45482
:102B1B000F44106C771229FA7CBF540F6C77122973
:102B2B00FADAF822CA797CFB7EE008C2A57CBF30BA
:102B3B00E704D2A48002C2A4122F8BD2A5122F8B32
:102B4B00C2A53EF01BE078E3DA7922CA7BCAB8CA89
:102B5B001BCA0BE5AC30E01053ACFEE5AD7E0801B3
:102B6B005212251F7AB30146DA0BDA1BDAB8DA7B7D
:102B7B00327CAB2E34FFFD68100B3578177AA19998
:102B8B00E59830E1FB5398FD227AA1ADE5AC30E13D
:102B9B00FB53ACFD22D2B47E1800B21B1C78FCC2D6
:102BAB00B47E34D4BE7E2400011B1C78FCD2B47ED0
:102BBB001800B21B1C78FC226CAAA284E4337803A5
:102BCB007EA001A285E43378037EA002A286E433C3
:102BDB0078037EA0037CBA22CAF87CFBBEF00A788D
:102BEB00097E340001740D122B7C7E3400017CBFF6
:102BFB00122B7C7CBFDAF8227E144E6D7E0441C60C
:102C0B007E1F01B51209B42E1830397A1F01B57E1B
:102C1B003701B55E607F22CAF87CFB4CFB780774EA
:102C2B00A66C771229FABEF001780774A76C77129D
:102C3B0029FADAF822CA3B7F307A3701C3800C7E3F
:102C4B003701C37E3BB00B74122B7C7E3BB070EF15
:102C5B00DA3B22CA797CFB7EE0087CBF30E70512A9
:102C6B002E008003122FF73EF01BE078EDDA79226D
:102C7B00CA797CFB6CEE800D74FF7E70FF7E60FF6B
:102C8B00122E680BE0BCFE38EFDA792275985043B0
:102C9B008E01438E0475D78F75D6FD438E10E5B824
:102CAB00F5B843B710D2AC2275AC10A9D28E75D73C
:102CBB008F75D6FDA9D48EE5DFF5DFE5EEF5EEA930
:102CCB00D3AF22CA797CFB6CEE800B74FF6C776CF4
:102CDB0066122E680BE0BCFE38F1DA7922CA797CD9
:102CEB00FB6CEE800BE46C777E60FF122E680BE0C2
:102CFB00BCFE38F1DA7922CA797CFB6CEE800BE4EE
:102D0B007E70FF6C66122E680BE0BCFE38F1DA7930
:102D1B0022CA796CFF6CEE3EF0122DAB4CFB0BE034
:102D2B00BEE00840F27CBFDA79227F707F617E18AB
:102D3B00000180057F061209B47F071B7C4D0178CB
:102D4B00F322CA797D7380077E3403E8122E7C7DD3
:102D5B00371B744D3378F1DA7922CA797D7380078A
:102D6B007E3403E8122D4D7D371B744D3378F1DA29
:102D7B007922CA797CF7C2C8122F237CEB7CBF1255
:102D8B002F23D2C87CBEDA79227CA77C3B7E340011
:102D9B000180040A23AD327C2A1BA0A5BA00F422C1
:102DAB0020B4FD30B4FD7E1801661B1C78FC30B4DA
:102DBB0003740122E422748D6C771229FA74146C5B
:102DCB00771229FA74AF6C770229FA748D6C77122B
:102DDB0029FA74106C771229FA74AE6C770229FAFF
:102DEB007CA60A377C676C770A1B7D017D130A3A38
:102DFB004D317D2022D2CB000000000000000000EE
:102E0B0000000000000000C2CB227D037E34FEDBFD
:102E1B007E24007E7A1B007E34FEDC7A1B10227D22
:102E2B00037E34FEF57E24007E7A1B007E34FEF694
:102E3B007A1B10227D037E34FEF77E24007E7A1BE4
:102E4B00007E34FEF87A1B1022D2A4122F8BD2A54F
:102E5B00122F8BC2A4122F8BC2A5022F8BCA797C87
:102E6B00E7122C5E7CB7122C5E7CB6122C5EDA79E4
:102E7B0022CA797D738003122FA37D371B744D33C8
:102E8B0078F5DA7922538E7F5389F0758AC0758C69
:102E9B0063C28DD28CD2A9225391C75392C775CAE4
:102EAB000075C900D2C8C29522438E4053890F7555
:102EBB008B00758D00C28FD28E227D236D337A37B6
:102ECB0001B57D321B347A3701B72243DD0275D54C
:102EDB002075D4D143DD08A9D5AF22C28200D2829E
:102EEB007E18003A1B1C78FCC282225392BF53916E
:102EFB00BF5394F75393F7D29622D2A4122F8BD2AF
:102F0B00A5122F8BC2A5022F8BC2A4122F8BD2A579
:102F1B00122F8BD2A4022F8B7AB1CFE5CD30E7FBEA
:102F2B0053CDC0E5CF2275CFFFE5CD30E7FB53CDB9
:102F3B00C0E5CF22C2CB0000007E1801DE1B1C783F
:102F4B00FC225393FB5394FB53B1F753B2F7225329
:102F5B00B1FC53B2FC5393FC5394FC22CA59CA786C
:102F6B00122650DA78DA59327EA301B9E47AB3012A
:102F7B00B97CBA227AB1CFE5CD30E7FB53CDC02275
:102F8B007EA0017C7A1BA0A5BF00F8220000007E6A
:102F9B0018176E1B1C78FC220000007E1800041B07
:102FAB001C78FC220000007E18001C1B1C78FC22E5
:102FBB000000007E18003A1B1C78FC220000007EEB
:102FCB001800761B1C78FC220000007E18012A1BBF
:102FDB001C78FC220000007E1800581B1C78FC2279
:102FEB000000007E1802561B1C78FC22D2CB00007E
:102FFB0000000000C2CB2275CF0075CDC075CED3BB
:10300B0022C282C2B3122F4D022EB41230631200B1
:10301B0003022E90C2A6C2A7C2A2C2A322C2A2D2F0
:10302B00A3D2A6C2A722D2A2C2A3D2A6C2A722C251
:10303B00A6D2A7D2A2C2A322C2A2D2A3C2A6D2A7B1
:10304B0022122F5A122C97022CB353B1EF53B1EF1C
:10305B002253B31F53B41F2253948F53938F225376
:10306B0095304396CF2253917F439180225395CF36
:10307B005396CF2253C9F743CA082212306A022053
:10308B00C0122EF6023098123071022ED6122EA3D9
:10309B0002300202305C28302900000101BF03001E
:1030AB000A001600000000000000000000000E01E6
:1030BB000D000000000000000000000000000000F8
:1030CB000E011B00000000000000000000000000CB
:1030DB0000000E01290000000000000000000000AD
:1030EB000000000001014600000101470000010142
:1030FB00650100010166000001016701000A00C7BC
:10310B0020302000000000000000000100D1000072
:10311B000100D200000100D300000100EE0000010D
:10312B0000EF00000100F000000200F100010001BF
:10313B0000F423000100F500000400F6000000007D
:10314B00000400FA00000000000400FE0000000074
:10315B00000101022300010103140001010401001D
:10316B00004E524632344C30315F436865636B20FE
:10317B00737563636565642021000A004E52463205
:10318B00344C30315F436865636B206661696C65F5
:10319B0064202100C2C2C2C2C2000000000000C2F3
:1031AB00C2C2C200C2C2C2C24B65793A25630A00D1
:1031BB0044697374616E63653A25640A00526F6CDF
:1031CB006C3A25640A004B65793A25640A0050571E
:0631DB004D3A25640A00D4
:00000001FF
