:0A00000002190453B1DF53B2DF22EE
:10000B00021EE10A1B7E0400B48D107E3407D0ADB6
:10001B00312E3401F4021DC502174D000000000003
:10002B00000000002F000000000700070000147FF5
:10003B00147F1400242A7F2A120062640813230001
:10004B00364955225000000503000000001C2241D8
:10005B0000000041221C000014083E081400080890
:10006B003E0808000000A06000000808080808000F
:10007B000060600000002010080402003E5149455A
:10008B003E0000427F400000426151494600214141
:10009B00454B31001814127F100027454545390098
:1000AB003C4A494930000171090503003649494969
:1000BB003600064949291E0000363600000000565E
:1000CB00360000000814224100001414141414000C
:1000DB00004122140800020151090600324959510E
:1000EB003E007C1211127C007F49494936003E418B
:1000FB00414122007F4141221C007F494949410077
:10010B007F09090901003E4149497A007F08080827
:10011B007F0000417F4100002040413F01007F08EC
:10012B00142241007F40404040007F020C027F00C0
:10013B007F0408107F003E4141413E007F090909C1
:10014B0006003E4151215E007F09192946004649B0
:10015B004949310001017F0101003F4040403F0010
:10016B001F2040201F003F4038403F0063140814FD
:10017B006300070870080700615149454300007F81
:10018B0041410000552A552A55000041417F00008E
:10019B000402010204004040404040000001020400
:1001AB0000002054545478007F48444438003844AD
:1001BB0044442000384444487F00385454541800B9
:1001CB00087E0901020018A4A4A47C007F08040483
:1001DB00780000447D4000004080847D00007F104B
:1001EB002844000000417F4000007C041804780084
:1001FB007C0804047800384444443800FC2424244C
:10020B00180018242418FC007C0804040800485427
:10021B0054542000043F444020003C4040207C00CC
:10022B001C2040201C003C4030403C00442810283F
:10023B0044001CA0A0A07C004464544C441414142F
:10024B001414140000000000000000000000000067
:10025B00000000000000F800000000000000333038
:10026B0000000000100C06100C060000000000003F
:10027B0000000040C07840C0784000043F04043FB9
:10028B00040400007088FC08300000001820FF21D7
:10029B001E0000F008F000E018000000211C031EF7
:1002AB00211E0000F00888700000001E2123241975
:1002BB0027211010160E00000000000000000000A7
:1002CB00000000000000E018040200000000071806
:1002DB0020400000020418E0000000004020180736
:1002EB00000000404080F0804040000202010F01FE
:1002FB00020200000000F0000000000101011F01DC
:10030B00010100000000000000000080B070000040
:10031B0000000000000000000000000001010101CE
:10032B00010101000000000000000000303000005F
:10033B000000000000000080601804006018060137
:10034B0000000000E010080810E000000F10202053
:10035B00100F00001010F8000000000020203F20BC
:10036B002000000070080808887000003028242244
:10037B0021300000300888884830000018202020E9
:10038B00110E000000C02010F80000000704242408
:10039B003F240000F8088888080800001921202055
:1003AB00110E0000E0108888180000000F112020AB
:1003BB00110E0000380808C83808000000003F0084
:1003CB000000000070880808887000001C222121A2
:1003DB00221C0000E010080810E00000003122226F
:1003EB00110F00000000C0C0000000000000303002
:1003FB000000000000008000000000000080600092
:10040B0000000000008040201008000001020408DA
:10041B0010200040404040404040000404040404CD
:10042B000404000008102040800000002010080485
:10043B00020100007048080808F000000000303688
:10044B00010000C030C828E810E00007182724235B
:10045B00140B000000C038E0000000203C23020217
:10046B0027382008F8888888700000203F2020203B
:10047B00110E00C03008080808380007182020208B
:10048B0010080008F808080810E000203F20202082
:10049B00100F0008F88888E8081000203F20202360
:1004AB0020180008F88888E8081000203F20000377
:1004BB00000000C030080808380000071820202270
:1004CB001E020008F808000008F808203F2101016F
:1004DB00213F20000808F8080800000020203F20DA
:1004EB0020000000000808F8080800C08080807F0A
:1004FB0000000008F888C028180800203F200126BB
:10050B0038200008F8080000000000203F202020C1
:10051B0020300008F8F800F8F80800203F003F00F2
:10052B003F200008F830C00008F808203F200007E3
:10053B00183F00E01008080810E0000F10202020E2
:10054B00100F0008F808080808F000203F210101EF
:10055B00010000E01008080810E0000F18242438F0
:10056B00504F0008F8888888887000203F200003CF
:10057B000C30200070880808083800003820212132
:10058B00221C00180808F8080818000000203F205B
:10059B0000000008F808000008F808001F202020C1
:1005AB00201F000878880000C83808000007380EA4
:1005BB00010000F80800F80008F800033C070007EA
:1005CB003C0300081868808068180820302C03034F
:1005DB002C30200838C800C83808000000203F2005
:1005EB0000000010080808C8380800203826212011
:1005FB00201800000000FE020202000000007F40F5
:10060B00404000000C30C00000000000000001065C
:10061B0038C00000020202FE000000004040407F94
:10062B0000000000000402020204000000000000B1
:10063B00000000000000000000000080808080802F
:10064B008080800002020400000000000000000017
:10065B00000000000080808080000000192422220E
:10066B00223F2008F8008080000000003F1120206E
:10067B00110E000000008080800000000E11202071
:10068B00201100000000808088F800000E1120204F
:10069B00103F200000808080800000001F2222225B
:1006AB00221300008080F0888888180020203F20CB
:1006BB002000000000808080808000006B94949468
:1006CB0093600008F8008080800000203F2100002C
:1006DB00203F2000809898000000000020203F2041
:1006EB00200000000000809898000000C0808080EF
:1006FB007F000008F8000080808000203F24022D3E
:10070B00302000000808F8000000000020203F20E7
:10071B002000008080808080808000203F20003F70
:10072B0020003F8080008080800000203F2100005F
:10073B00203F200000808080800000001F202020B0
:10074B00201F00808000808000000080FFA12020FF
:10075B00110E000000008080808000000E11202010
:10076B00A0FF80808080008080800020203F21209F
:10077B00000100000080808080800000332424244E
:10078B00241900008080E0808000000000001F2002
:10079B002000008080000000808000001F202020AF
:1007AB00103F20808080000080808000010E300888
:1007BB0006010080800080008080800F300C030CCD
:1007CB00300F0000808000808080000020312E0ED2
:1007DB00312000808080000080808080818E7018A6
:1007EB0006010000808080808080000021302C2258
:1007FB0021300000000000807C020200000000009D
:10080B003F404000000000FF00000000000000FF20
:10081B000000000002027C800000000040403F000E
:10082B0000000000060101020204040000000000A9
:10083B000000000000F010101010FF10101010F04E
:10084B0000000000000F04040404FF040404040F60
:10085B000000004040405F555555755555555F405C
:10086B004040000040200F094989790909090F20F0
:10087B0040000000FE02424ACA4A4ACA4A4A4202A1
:10088B00FE000000FF40504C4340404F50505C4036
:10089B00FF00000000F888888888FF88888888F81F
:1008AB0000000000001F080808087F888888889FC0
:1008BB0080F00080828282828282E2A2928A868289
:1008CB00808000000000000040807F0000000000DE
:1008DB00000000101010FF109008888888FF88888F
:1008EB008808000444827F01808040432C102846F6
:1008FB008180000010101010D030FF30D0121C106F
:10090B0010000010080402010000FF0000010204A7
:10091B000810005D22680D5D0078122D220B4068D7
:10092B00099F11222D000B0078F9020B3E120B01CF
:10093B005C800B806808248150072CB0500A020B96
:10094B00462CB04003020B437C8B5D1178267CB1A7
:10095B007CA5BE1080680A5D33780DA5BD80057F30
:10096B0010020B306D0080307F017C5B7CB17CA56D
:10097B00AD1280245D337806A5BD80F080E1CA8876
:10098B007D41AD437CB17CA5AD122D1450020B04FF
:10099B007C5BAD232F01DA88A42D05BE00804006B9
:1009AB000B80780480982F007C437C507C617C7298
:1009BB00020B1ABE24FFFF6806BE04FFFF7803027A
:1009CB000B3E120B015CB00468F57CB8A54868EFD0
:1009DB007CB870039F1122A5B80003020B462E00B2
:1009EB008150079C803807020B439C8050ED0A51C5
:1009FB00C2E74D517803020B307E5400807E901A73
:100A0B006C0080061B9068142F11BF1040049F10C0
:100A1B004CAB0330E7EECAA86CAA80E8DA39DA5897
:100A2B007C4ABE5080500A1B8068BC2F1150020BB1
:100A3B0070020B1A7EA020800C7EA01080057EA079
:100A4B00086C556D333392D5500A6E34FFFF6E240C
:100A5B00FFFF0B1CA5EC3340062F11D5F0F6227CC3
:100A6B00BA247EA2D5137C767C65A5CC92E77C5B01
:100A7B00227CB5337CB43392D54E50802481400315
:100A8B009F11227C457C567C676C7724E0500E7E50
:100A9B001CFFFF221E341E2450034E60800478F48A
:100AAB0030D50A6E34FFFF6E24FFFF0B1C227F50E4
:100ABB007EC400007ED400D97E940ACA020B7F400C
:100ACB0001227CEACA89CA5BCA6B121CF9DA6BDA9F
:100ADB005BDA897E940ACA7CAE227F707F517E6F6F
:100AEB0001007E940AF4020B7F4005E47A7BB0226E
:100AFB007A7BB00B7C222D0092D50E104E10807D90
:100B0B00422D445002B2D54E50806C447CB8222CFE
:100B1B004450120B1C7E40005E507FBE18000078C4
:100B2B00040B806816A2D57CB8137C4B7CB592E77E
:100B3B007C5B227E1CFFFF229F11227E24FF8020E4
:100B4B00D5026C456D3322540F2490D43440D430ED
:100B5B00F30CBEB0414007BEB05B500224204CCC1E
:100B6B0068021BC00B84D389944CCC680B74201285
:100B7B000B6980F5CA3B6D889F337CAE7E5BB00BF7
:100B8B005C7007C37D38DA3B8994B42569C2F37E68
:100B9B005BB00B5CA5F824D0BEB00A501B7E500A8C
:100BAB0020F60DAC5CA52D7CCB70034EF00180DDE7
:100BBB00AC5DA52D7CDB80D524CFBEB01AA5E8504B
:100BCB00055E00DFD2F3900F54A3E4936011BCB029
:100BDB0078F77417934CAB30F6B34EF08080AEA31E
:100BEB00E4936010BCB078F77416937C3B7423933A
:100BFB007C2B89147CB080137420120B6920F205B6
:100C0B00BEC00250F31B6D29B60001120B69020B1B
:100C1B00741B6E691600020B6A00BE080000780890
:100C2B007E0400FF7E14201220F21E4CCC681A7F2B
:100C3B0010E47E1B804C8868070B1C04BCBD78F24B
:100C4B00C2F6CA0B120D53DA0B7E0BB060C0CA0B87
:100C5B00120B69DA0B0B0C4CDD68EE1BD078EA80BB
:100C6B00ADD2F07E101080037E10085EB05F800A5C
:100C7B00D2F67E100A80057E100AC2F66D119F1106
:100C8B007E00201B6C7E6B7030F6021A3720F1054C
:100C9B001B6C7E6B6030F6041A261A2430F0051B91
:100CAB006D0B6A20A5EC3382F692F6500A7CEA9F14
:100CBB00229F217F127CAE4C44780F7C457C567C66
:100CCB00676C772E00F878EF80122F117CB3337C92
:100CDB003B9CB140047C3B0B70A5D8EE7CB230E062
:100CEB0005DAB8C44C3BCA380B207E00207E30009E
:100CFB00BE18000078C1BE1008780730F404C2F4A7
:100D0B0080B5CA287CB2BCBD38027CBD120D53DA4B
:100D1B0028BC2D500A1BD0E4CA28120B5280F07C41
:100D2B00B213DAB84004C4CAB8C4CA28BEF08040B3
:100D3B00095CDD7805A5DA0260065EF07F120B52C6
:100D4B00DA28A5DADA020B74BEF001680F30F40270
:100D5B00240220F50620F70330F6010420F229BC0B
:100D6B00BC5025CAB87CBF13B0E674205011743048
:100D7B007C8A5E80F06808120D935EA00F800312D0
:100D8B000B69DAB8BCBC78DB30F40F7430120B692A
:100D9B00745830F3027478120B6930F605742D0217
:100DAB000B69742B20F5F8742020F7F3221B6C7E53
:100DBB006BB010F1021B6C20F60B30E704F404D27D
:100DCB00F27CCB800520E7057CDB020B985EF07F85
:100DDB0080F81B6E691600020B6A0030F0076D225B
:100DEB001B0A200B0D1B0A80020B83E46C22BE3006
:100DFB0007500B7F1F2D312E34FFF77E39B0227C2D
:100E0B00BF20E7A8742E4EF080020B69120F3D40F5
:100E1B003D7CBD7003047CDB1210547C3D4C33686D
:100E2B00101B307CBE20E409120DF670044C337895
:100E3B00F07CBD7CD3BEA0FD481CBCAB5818E49C19
:100E4B00BA2CB31801E47CDB020EDE120F3D406EB0
:100E5B007CBD041210547AFBA07CAE7CBDA2F49234
:100E6B00F0C2F440026001042405120D537E30FFE2
:100E7B000B30120DF6CA38120B5220F0044CDD6801
:100E8B0003120E0ADA38BC3D78E6740E120B52745C
:100E9B002B7EFBA030F707742D6EA0FF0BA07AFB07
:100EAB00A0120B697EA00A7EFBB0847AFBA0120B0A
:100EBB00527EFBB0120B529EF80008020B74D2F25A
:100ECB007ED000020C33120F3D40F37CBA2CBD04D4
:100EDB001210547AFBA07CBA7CAE30E701E40420FC
:100EEB00F4044CDD6805D2F0C2F4042CBD120D5392
:100EFB006C337EFBB0601B20E712147AFBB0120D33
:100F0B00F6CA38120B52DA380B3080E6047AFBB093
:100F1B001B30120DF6CA38120B524CDD6807120E3D
:100F2B000A1BD080E19EF8000930F003120E0A0272
:100F3B000B747CEA7CAF10F7037ED0067CFA1B6E39
:100F4B00693600020B6A20020F9C2D2B204C424865
:100F5B00232E0053584F44494355502A4E4645477C
:100F6B000004208001020010401C6E737B7B088202
:100F7B006CB8DDD156170C0C0C0C0C0C0C0C0D0DAD
:100F8B000E0E0E4E614E002B494E46002D494E461D
:100F9B00007D522D557CBE92E67CEB7CBA601F0423
:100FAB0070287CB5C2E77E0400FF60067E140F8EAE
:100FBB00D3227E140F9740047E140F92D322DA09AA
:100FCB009F22CA2BCA2BC3CA09220A0A7E144D10B0
:100FDB00AD109E083AF09E10267CB5C2E77EA05657
:100FEB007C9BA46E54FFFF2E54C511ACA92D15E4A8
:100FFB00A539CAB8CA1B20E70A1210C7DA1B120997
:10100B00BE800AF4041210C7DA1B12091EDAA87C80
:10101B00B5337CB4334E50806C4424822F1114783A
:10102B00FBDA497407BE400A40099E400ACA020116
:10103B00140BA0CA486C442F117F012F112F112FB5
:10104B00101478EFCA48CA49227F0F20E73ABEB086
:10105B0007400274070A0B2D109E1400097E19B06D
:10106B002EB0FB501F4C116817E47A19B01B147E7D
:10107B0019B0047A19B0B40A0BE47A19B0A5D9EDFA
:10108B000BA074017A19B0225EE0BF223F800000F2
:10109B004120000042C80000447A0000461C40007A
:1010AB0047C35000497424004B1896804CBEBC209B
:1010BB005A0E1BCA6753C21C749DC5AE7C7B60065F
:1010CB005407681623231210EC7CB75438680A7F38
:1010DB00101210E912091E7F01227CB75438032429
:1010EB001C6CAA2E5410977E4400FF0B2A00691229
:1010FB00000222C2D57CB430E708B2D56E24FFFFC4
:10110B000B247CB630E712B2D56E34FFFF0B348D57
:10111B00326E24FFFF0B2480028D3230D5066E34E5
:10112B00FFFF0B34227D51AD037D027D21AD052DDB
:10113B0012AD352D21226D0074104D00780B4D2210
:10114B0078278D317D126D22227D437D326D222FCA
:10115B00112D445002A50FBF1040049F100B90148B
:10116B0078ED7F016D227D34227D417D138D247DB1
:10117B00022F004004BD0440049D040B141478F1AD
:10118B007D237D317D106D0022CA3B7CD37CC67DD7
:10119B00727A7300DA7AB300D9E47AB300DD7AB3EA
:1011AB0000DEBED008780674027AB300DDE40212CA
:1011BB0050740A7EA300DB0A2A0A3C9D321B3412B0
:1011CB001D587D278D237E24000A8D327A5300DC37
:1011DB007EB300DE70390A2C1B247E7300DB0A37CA
:1011EB00BD32582B7EB300DC701F0A1D1E147E53BC
:1011FB0000DD0A252D21AD327E5300D90A552D5322
:10120B007E7300DA7E6020803274017AB300DE0ACE
:10121B003D1E347E5300DD0A252D237E7300DB0A31
:10122B0037AD327E5300D90A552D537E7300DA7ECB
:10123B006300DC0A262E2400307C657C5D121328AB
:10124B007EB300DB047AB300DBBEC300DB280302F2
:10125B0011BCDA3B22121FEA74AE6C77121B5AE4F4
:10126B006C77121B5A74106C77121B5A74406C7784
:10127B00121B5A74816C77121B5A74CF6C77121B2A
:10128B005A74A16C77121B5A74C86C77121B5A7460
:10129B00A66C77121B5A74A86C77121B5A743F6C8E
:1012AB0077121B5A74D36C77121B5AE46C77121B90
:1012BB005A74D56C77121B5A74806C77121B5A7444
:1012CB00D96C77121B5A74F16C77121B5A74DA6C47
:1012DB0077121B5A74126C77121B5A74DB6C7712D1
:1012EB001B5A74406C77121B5A74206C77121B5A62
:1012FB0074026C77121B5A748D6C77121B5A741410
:10130B006C77121B5A74A46C77121B5A74A66C77E9
:10131B00121B5A121B2474AF6C77021B5ACA3B7CEC
:10132B00F57CA67CE77CDB0A257D321E347A7300C4
:10133B00DF6D117A1700E0BEF008780A7E14000604
:10134B007A1700E2801E7D121E141E141E145E24DA
:10135B00000768067E24000180026D222D21AD322C
:10136B007A3700E20A3A9E3400207CC77CBD7C7E33
:10137B00121BB46D3380587E7300DF0A377E270053
:10138B00E08D234D22780EBEF00868097CBD7C7E73
:10139B000BE0121BB4BEF008780F7E7006AC7C2EEF
:1013AB003700E02E3400268012BEF010782F7E70AE
:1013BB0010AC7C2E3700E02E34024E7A71827A61AB
:1013CB0083E4937E7001121B5A7E3700E00B347A54
:1013DB003700E07E3700E2BE3700E0389ADA3B2276
:1013EB00CA3B7F307A5300F17A6300F07A7300EFD7
:1013FB007AB300EE6D337A3700F27E7300F17D2302
:10140B005E24000768067E24000180026D221E34D4
:10141B001E341E342D327A7300F1E480497EB30002
:10142B00EE7EA300EF0A2A7EA300F40A3A2D3212B5
:10143B001BB4E4801E7E3700F27D230B247A270039
:10144B00F22D377D267E1BB07E7001121B5A7EB3A8
:10145B0000F5047AB300F57E7300F0BE7300F53827
:10146B00D47EB300F4047AB300F47E7300F1BE7340
:10147B0000F438A9DA3B22E47E34FEB67E24007EEB
:10148B007A1BB07E34FEEC7A1BB074607E14FEE8DF
:10149B007E04007E7A0BB07E14FEE97A0BB07411D9
:1014AB007A1BB0E47E34FEF07A1BB0740B7E34FEF4
:1014BB00F17A1BB0E47E34FEF27A1BB074637E3497
:1014CB00FEF37A1BB0E47E34FEF57A1BB07E34FE5D
:1014DB00F67A1BB07E34FEF77A1BB07E34FEF87AB8
:1014EB001BB074057E34FEB57A1BB074807E34FE5F
:1014FB00FD7A1BB074017E34FEE07A1BB022CA3B2E
:10150B007CF57CD67CE77CCB0A357D131E141E1430
:10151B001E147D235E24000768067E2400018002D2
:10152B006D222D21AD327A3700FE6D33803B0A3FA1
:10153B007E2700FC8D234D2278097CBC7C7E0BE042
:10154B00121BB4BEF010782F7E7020AC7D2E3700AE
:10155B00FC2E34083E7A71827A6183E4937E7001AB
:10156B00121B5A7E3700FC0B347A3700FC7E370097
:10157B00FEBE3700FC38B7DA3B22CA3B7F30121C69
:10158B0029A2B4E4337865A2B4E43368FAE47AB3FD
:10159B0000F6121CC87CAB7EB300F60A4B19A400F4
:1015AB00F7047AB300F6B405E97E7300F80A077EF8
:1015BB007300F70A172D107E6300F90A062D017EC2
:1015CB006300FA0A162D107E6300FB0A26BD2178F4
:1015DB001B397300027E7300F8397300037E7300AE
:1015EB00F97A3B707E7300FA39730001DA3B22CA39
:1015FB003B7A6300DB7F307A7300DA7AB300D9E48D
:10160B007AB300DC804A7EB300D97E7300DA7E6346
:10161B0000DC7CA60BA07AA300DC0A267F032D122C
:10162B007E0B607E5300DB1213287EA300DBBEA073
:10163B0008780C7EB300D924067AB300D980110A3E
:10164B003A7E2400021210FE2E7300D97A7300D951
:10165B007E7300DC0A372D377D267E1BB070A7DA30
:10166B003B22E47E34FEB27E24007E7A1BB07E34B5
:10167B00FECD7A1BB074607E14FECB7E04007E7AA6
:10168B000BB074407A1BB0E47E34FED07A1BB0747E
:10169B00177E34FED17A1BB0744E7E34FED27A1B89
:1016AB00B0741F7E34FED37A1BB0E47E34FEDB7A3B
:1016BB001BB07E34FEDC7A1BB074807E34FEB17AB4
:1016CB001BB07E34FEDD7A1BB074017E34FEC07A13
:1016DB001BB0227E5420497E4400FF69320003690F
:1016EB002200017E2B307A1F00E57A3300E47E5412
:1016FB00204E7E4400FF69320003692200017E2BDD
:10170B00307A1F00EA7A3300E974307E0800E47EF9
:10171B007005121A7F74107E0800E97E7005121A8C
:10172B00EEE40A3B097300E90A2B09A200E4BCA70B
:10173B00780604BEB00540EABEB005680374FF220C
:10174B00E422CA59CA1BE59830E05B5398FEE59931
:10175B007AB300087EB30008BEB023681E7EA300D8
:10176B00087CBA047AB300087E7300137CB7047A42
:10177B00B300130A3719A30014802BE480137E7374
:10178B00001E0A2709720014197200097EB3001E8D
:10179B00047AB3001E7E730013BE73001E38DFE4A1
:1017AB007AB30013D201DA1BDA5932C29674307E47
:1017BB001420587E0400FF7E7005121A7F742A7E57
:1017CB001420537E0400FF7E7005121A7F74217E55
:1017DB007001121D4174227E7001121D4174247E12
:1017EB00701A121D4174257E7028121D4174267EBD
:1017FB00700F121D4174207E700E121D4174277ED6
:10180B0070FF121D417E340096121D11D296227567
:10181B00E900A9D7BA75EA00122009121260121F4B
:10182B008774016C777E1420697E0400FF7E601044
:10183B001215FA1219CA7D237A37010F74017E70C3
:10184B00027E60047E301012119474017E70067E4D
:10185B002400647E60047E30101211947E340001EB
:10186B00121D2980CEC296742A7E1420537E04004A
:10187B00FF7E7005121A7F74217E7001121D417458
:10188B00227E7001121D4174257E7028121D417439
:10189B00317E7020121D4174267E700F121D417413
:1018AB00207E700F121D4174277E70FF121D41D2D6
:1018BB0096227E7301057A730106121C6E7AB301B0
:1018CB00057EA30106BEA001780C7EB30105700650
:1018DB0074017AB30104BEA002780C7EB3010570CB
:1018EB000674027AB30104BEA003780C7EB3010523
:1018FB00700674037AB30104227584017E44041FBD
:10190B00E47A49B01B4478F97EF80111C200C20198
:10191B007E0400FF7E14205D0B0A405D44681A694B
:10192B002000020B0E0B44800A7E0BB07A29B00B01
:10193B00240B0C1B4478F280DF02181ACA3B7AB3D3
:10194B0001117F3180267E18000A7E3301110A13A4
:10195B006D00121CE17F017F131211437E14000AEC
:10196B001211417F202E280030121F117EA301116E
:10197B007CBA147AB301114CAA78CBDA3B22CAF8A1
:10198B00C29674A07E7020121A7FD296A2B3E43353
:10199B0078FA7407121EC77CFB74277C7F121D41DB
:1019AB007CBF30E40C74E17E70FF121D417410801B
:1019BB000B7CBF30E5047420800274FFDAF822122E
:1019CB001E61D2833083FDD28E2083FDC28EE58DC6
:1019DB000A2B7E340100AD32E58B0A2B2D23758D3E
:1019EB0000758B00E4120A447E14999A7E043FD949
:1019FB0012091E6D117E0442C81209BE020A7CCA6E
:101A0B003B7F30A2B3E433782C7407121EC77C7B68
:101A1B007AB3001F7427121D417EB3001F30E615E9
:101A2B0074617F037E7020121AEE74E27E70FF12D7
:101A3B001D41E480027401DA3B22801D7E142031AB
:101A4B007E0400FF120AB97E14202F7E0400FF12C1
:101A5B000AB97E3403E8121D111216DE70DE7E14F5
:101A6B0020167E0400FF120AB97E14202F7E04007C
:101A7B00FF020AB9CA3B7A7301077F30C2C8121E34
:101A8B009E7AB30108E4800D7E3BB00B74121E9E50
:101A9B007EB30109047AB301097E730107BE73019A
:101AAB000938E5D2C87EB30108DA3B227CAB6C77F0
:101ABB000A4A7CB760053E441478FB4D4468067EA9
:101ACB0024000180026D225E2400806804D2C7804E
:101ADB0002C2C7C2C5D2C50B70BE700840D2C2C607
:101AEB00D2C622CA3B7A73010A7F30C2C8121E9E2D
:101AFB00E4800F74FF121E9E7A3BB00B747EB30111
:101B0B000C047AB3010C7E73010ABE73010C38E32B
:101B1B00D2C87EB3010BDA3B22CA796CFF0A5F2E67
:101B2B005400B06C77121B5AE46C77121B5A74106A
:101B3B006C77121B5A6CEEE47E7001121B5A0BE091
:101B4B00BEE08078F20BF0BEF00840D1DA7922CA01
:101B5B00797CF77CEB121E047478121BDD121E804D
:101B6B004CFF680474408001E4121BDD121E807C64
:101B7B00BE121BDD121E80121E8FDA7922CAF87C70
:101B8B00FB4CFB780E74C86C77121B5A74A16C77E4
:101B9B00121B5ABEF001780E74C06C77121B5A746C
:101BAB00A06C77121B5ADAF822CAF87CFB0A572E64
:101BBB005400B06C77121B5A7CBF54F0C4540F44C2
:101BCB00106C77121B5A7CBF540F6C77121B5ADAAE
:101BDB00F822CA797CFB7EE008C2A57CBF30E70403
:101BEB00D2A48002C2A4121F05D2A5121F05C2A542
:101BFB003EF01BE078E3DA7922CA3B7A37010D7F9E
:101C0B003080087E3BB00B74121F117E37010D7DA7
:101C1B00231B247A27010D4D3378E8DA3B22D2B40B
:101C2B007E1800B21B1C78FCC2B47E34D4BE7E245A
:101C3B0000011B1C78FCD2B47E1800B21B1C78FC74
:101C4B00227A0F00497E3400497E2400007A1F015E
:101C5B00007E08004D7E1F0049120AE57E08004DEC
:101C6B00021D856CAAA284E43378037EA001A285B1
:101C7B00E43378037EA002A286E43378037EA003CC
:101C8B007CBA22CAF87CFB4CFB780774A66C7712E3
:101C9B001B5ABEF001780774A76C77121B5ADAF83F
:101CAB0022759850438E01438E0475D78F75D6FDE0
:101CBB00438E10E5B8F5B843B710D2AC22CA796C95
:101CCB00FF6CEE3EF0121D6F4CFB0BE0BEE00840CC
:101CDB00F27CBFDA79227F707F617E18000180056C
:101CEB007F061211307F071B7C4D0178F322CAF857
:101CFB007CFBBEF00A7805740D121F117CBF121FFE
:101D0B00117CBFDAF822CA797D7380077E3403E831
:101D1B00121E187D371B744D3378F1DA7922CA798C
:101D2B007D7380077E3403E8121D117D371B744DC4
:101D3B003378F1DA7922CA797CF7C2C8121E9E7CFD
:101D4B00EB7CBF121E9ED2C87CBEDA79227CA77CAC
:101D5B003B7E34000180040A23AD327C2A1BA0A5F4
:101D6B00BA00F42220B4FD30B4FD7E1801661B1CB2
:101D7B0078FC30B403740122E422CA3B7F30800824
:101D8B007E3BB00B74121F117E3BB070F3DA3B221B
:101D9B00748D6C77121B5A74146C77121B5A74AFB8
:101DAB006C77021B5A748D6C77121B5A74106C77FC
:101DBB00121B5A74AE6C77021B5A7D037E34FEDB0A
:101DCB007E24007E7A1B007E34FEDC7A1B10227D83
:101DDB00037E34FEF57E24007E7A1B007E34FEF6F5
:101DEB007A1B10227D037E34FEF77E24007E7A1B45
:101DFB00007E34FEF87A1B1022D2A4121F05D2A546
:101E0B00121F05C2A4121F05C2A5021F05CA797DA8
:101E1B00738003121F297D371B744D3378F5DA79E4
:101E2B0022538E7F5389F0758AC0758C63C28DD215
:101E3B008CD2A9225391C75392C775CA0075C9009A
:101E4B00D2C8C29522438E4053890F758B00758D76
:101E5B0000C28FD28E22C28200D2827E18003A1B21
:101E6B001C78FCC282225392BF5391BF53B2F753DB
:101E7B00B1F7D29622D2A4121F05D2A5121F05C20A
:101E8B00A5021F05C2A4121F05D2A5121F05D2A4BD
:101E9B00021F057AB1CFE5CD30E7FB53CDC0E5CFBF
:101EAB002275CFFFE5CD30E7FB53CDC0E5CF2253F5
:101EBB0095335396335395FC43960322C2C8121E97
:101ECB009E74FF121E9ED2C82253B20153B101530E
:101EDB00B20253B10222CA59CA781218BDDA78DAA3
:101EEB0059327EA30104E47AB301047CBA227AB19D
:101EFB00CFE5CD30E7FB53CDC0227EA0017C7A1B12
:101F0B00A0A5BF00F8227AB199E59830E1FB539870
:101F1B00FD220000007E18176E1B1C78FC220000AF
:101F2B00007E1800041B1C78FC220000007E1800A9
:101F3B001C1B1C78FC220000007E18003A1B1C782E
:101F4B00FC220000007E1800761B1C78FC2200008F
:101F5B00007E18012A1B1C78FC220000007E180052
:101F6B00581B1C78FC220000007E1802561B1C78A4
:101F7B00FC2275CF0075CDC075CED322C282C28331
:101F8B00121FE3021E50121FD5120003021E2CC299
:101F9B00A6C2A7C2A2C2A322C2A2D2A3D2A6C2A782
:101FAB0022D2A2C2A3D2A6C2A722C2A6D2A7D2A2D3
:101FBB00C2A322C2A2D2A3C2A6D2A72253B1EF536D
:101FCB00B1EF2253B31F53B41F2253948F53938FEC
:101FDB002253917F439180225393F35394F32253D3
:101FEB0095CF5396CF22121EBA021482121E710283
:101FFB002003121FDC02166D121E3F021F7D121EE4
:10200B00D4021CAC021FCE283029004E524632346B
:10201B004C30315F436865636B2073756363656533
:10202B00642021000A004E524632344C30315F435B
:10203B006865636B206661696C6564202100C2C2B0
:10204B00C2C2C2000000000000C2C2C2C200C2C2B3
:10205B00C2C200010013000001001E000000484531
:05206B004C4C4F210068
:00000001FF
