:1000000002268A53B1DF53B2DF2222022F5A0A1B83
:100010007E0400B48D107E3407D0AD312E3401F44F
:10002000022E080223F2C29674307E1431A67E049A
:1000300000FF7E70051228B4742A7E1431A17E045C
:1000400000FF7E70051228B474217E7001122D709D
:1000500074227E7001122D7074247E701A122D701D
:1000600074257E7019122D7074267E700F122D70FB
:1000700074207E700E122D7074277E70FF122D700A
:0A0080007E340096122D40D2962225
:10008B00022B49C2C8122F1674FF122F16D2C82288
:10009B000229BF0203C26E00807CB1337CB033688F
:1000AB000D0468EF7CB5337CB43378037F102204E6
:1000BB0068E17D5092F77D457D51BF2140067C80E4
:1000CB007F017F121203857EA1D05CB004780320E0
:1000DB00D5C17CB00478075002B2D50203CA92D5C1
:1000EB00BE80FF68F67CB89CB06C00602AB4180523
:1000FB007C4102039E50FB80032F00047C9B5E908F
:10010B000778F630E4067C437D106D0030E3087C05
:10011B00437C327C210A0030F5199F10780E2202A5
:10012B0003C71B8068F92F1150020B707CB530E7A9
:10013B00F1801B2D317CB5A5397C5B50110B807880
:10014B00030203CA1E341350034E60801A2B0203A2
:10015B009E5D22680D5D0078122D220B4068099F71
:10016B0011222D000B0078F90203C21203855C806B
:10017B000B806808248150072CB0500A0203CA2C4C
:10018B00B040030203C77C8B5D1178267CB17CA544
:10019B00BE1080680A5D33780DA5BD80057F100207
:1001AB0003B46D0080307F017C5B7CB17CA5AD120C
:1001BB0080245D337806A5BD80F080E1CA887D413F
:1001CB00AD437CB17CA5AD122D1450020B047C5BAE
:1001DB00AD232F01DA88A42D05BE008040060B80CD
:1001EB00780480982F007C437C507C617C720203E6
:1001FB009EBE24FFFF6806BE04FFFF78030203C206
:10020B001203855CB00468F57CB8A54868EF7CB830
:10021B0070039F1122A5B800030203CA2E00815060
:10022B00079C8038070203C79C8050ED0A51C2E738
:10023B004D5178030203B47E5400807E901A6C00FB
:10024B0080061B9068142F11BF1040049F104CABFD
:10025B000330E7EECAA86CAA80E8DA39DA587C4A90
:10026B00BE5080500A1B8068BC2F1150020B7002CD
:10027B00039E74F86CAA6E40806E0080BEB0FF685F
:10028B00277C837C975C3B5C7BBF10682AF4400D1A
:10029B007C382D15F45C3B500F0B04800B7C792DB7
:1002AB0035F45C7B50020B24BF10680B7CB020E74D
:1002BB00067CB420E701B3227EA020800C7EA01028
:1002CB0080057EA0086C556D333392D5500A6E3481
:1002DB00FFFF6E24FFFF0B1CA5EC3340062F11D53F
:1002EB00F0F6227CBA247EA2D5137C767C65A5CC55
:1002FB0092E77C5B227CB5337CB43392D54E508035
:10030B00248140039F11227C457C567C676C7724AB
:10031B00E0500E7E1CFFFF221E341E2450034E6045
:10032B00800478F430D50A6E34FFFF6E24FFFF0B88
:10033B001C227F507EC400007ED401907E94034E1D
:10034B000204034001227CEACA89CA5BCA6B122BE6
:10035B00D6DA6BDA5BDA897E94034E7CAE227F7041
:10036B007F517E6F01B67E9403780204034005E44F
:10037B007A7BB0227A7BB00B7C222D0092D50E10AB
:10038B004E10807D422D445002B2D54E50806C44AD
:10039B007CB8222C4450120B1C7E40005E507FBE5A
:1003AB0018000078040B806816A2D57CB8137C4B20
:1003BB007CB592E77C5B227E1CFFFF229F11227E85
:1003CB0024FF8020D5026C456D3322540F2490D42A
:1003DB003440D430F30CBEB0414007BEB05B50028A
:1003EB0024204CCC68021BC00B84D389944CCC6862
:1003FB000B74201203ED80F5CA3B6D889F337CAEE6
:10040B007E5BB00B5C7007C37D38DA3B8994B425F7
:10041B0069C2F37E5BB00B5CA5F824D0BEB00A506A
:10042B001B7E500A20F60DAC5CA52D7CCB70034EC9
:10043B00F00180DDAC5DA52D7CDB80D524CFBEB07B
:10044B001AA5E850055E00DFD2F39007D8A3E4931A
:10045B006011BCB078F77417934CAB30F6B34EF019
:10046B008080AEA3E4936010BCB078F77416937CD5
:10047B003B7423937C2B89147CB080137420120360
:10048B00ED20F205BEC00250F31B6D29B600011220
:10049B0003ED0203F81B6E691600020B6A00BE081F
:1004AB00000078087E0400FF7E14309420F21E4C6E
:1004BB00CC681A7F10E47E1B804C8868070B1C04E9
:1004CB00BCBD78F2C2F6CA0B1205D7DA0B7E0BB0A5
:1004DB0060C0CA0B1203EDDA0B0B0C4CDD68EE1B84
:1004EB00D078EA80ADD2F07E101080037E10085ECB
:1004FB00B05F800AD2F67E100A80057E100AC2F623
:10050B006D119F117E00201B6C7E6B7030F6021AF2
:10051B003720F1051B6C7E6B6030F6041A261A240B
:10052B0030F0051B6D0B6A20A5EC3382F692F6506A
:10053B000A7CEA9F229F217F127CAE4C44780F7C71
:10054B00457C567C676C772E00F878EF80122F1164
:10055B007CB3337C3B9CB140047C3B0B70A5D8EE49
:10056B007CB230E005DAB8C44C3BCA380B207E00B5
:10057B00207E3000BE18000078C1BE10087807300E
:10058B00F404C2F480B5CA287CB2BCBD38027CBD71
:10059B001205D7DA28BC2D500A1BD0E4CA28120347
:1005AB00D680F07CB213DAB84004C4CAB8C4CA28E7
:1005BB00BEF08040095CDD7805A5DA0260065EF0CE
:1005CB007F1203D6DA28A5DADA0203F8BEF0016847
:1005DB000F30F402240220F50620F70330F6010455
:1005EB0020F229BCBC5025CAB87CBF13B0E67420DE
:1005FB00501174307C8A5E80F068081206175EA07A
:10060B000F80031203EDDAB8BCBC78DB30F40F7447
:10061B00301203ED745830F30274781203ED30F698
:10062B0005742D0203ED742B20F5F8742020F7F3DD
:10063B00221B6C7E6BB010F1021B6C20F60B30E7AB
:10064B0004F404D2F27CCB800520E7057CDB0204AA
:10065B001C5EF07F80F81B6E691600020B6A00307F
:10066B00F0076D221B0A200B0D1B0A80020407E406
:10067B006C22BE3007500B7F1F2D312E34FFF77EBF
:10068B0039B0227CBF20E7A8742E4EF0800203ED18
:10069B001207C1403D7CBD7003047CDB1208D87C83
:1006AB003D4C3368101B307CBE20E40912067A7077
:1006BB00044C3378F07CBD7CD3BEA0FD481CBCAB96
:1006CB005818E49CBA2CB31801E47CDB02076212C5
:1006DB0007C1406E7CBD041208D87AFBA07CAE7CAF
:1006EB00BDA2F492F0C2F44002600104240512058D
:1006FB00D77E30FF0B3012067ACA381203D620F0A1
:10070B00044CDD680312068EDA38BC3D78E6740EB5
:10071B001203D6742B7EFBA030F707742D6EA0FF4F
:10072B000BA07AFBA01203ED7EA00A7EFBB0847AAD
:10073B00FBA01203D67EFBB01203D69EF800080274
:10074B0003F8D2F27ED0000204B71207C140F37C4B
:10075B00BA2CBD041208D87AFBA07CBA7CAE30E769
:10076B0001E40420F4044CDD6805D2F0C2F4042C3F
:10077B00BD1205D76C337EFBB0601B20E712147AD9
:10078B00FBB012067ACA381203D6DA380B3080E681
:10079B00047AFBB01B3012067ACA381203D64CDD32
:1007AB00680712068E1BD080E19EF8000930F0031B
:1007BB0012068E0203F87CEA7CAF10F7037ED0069C
:1007CB007CFA1B6E693600020B6A200208202D2B67
:1007DB00204C4248232E0053584F44494355502A2E
:1007EB004E464547000420800102001040A0F2F75E
:1007FB00FFFF8C06F03C6155DA9B040404040404EF
:10080B00050406060706064E614E002B494E4600B0
:10081B002D494E46007D522D557CBE92E67CEB7CDD
:10082B00BA601F0470287CB5C2E77E0400FF600627
:10083B007E140812D3227E14081B40047E14081663
:10084B00D322DA099F22CA2BCA2BC3CA09220A0A4E
:10085B007E144D10AD109E083AF09E10267CB5C24A
:10086B00E77EA0567C9BA46E54FFFF2E54C511ACA3
:10087B00A92D15E4A539CAB8CA1B20E70A12094BE2
:10088B00DA1B1201FC800AF40412094BDA1B120169
:10089B005CDAA87CB5337CB4334E50806C44248234
:1008AB002F111478FBDA497407BE400A40099E40A9
:1008BB000ACA0201140BA0CA486C442F117F012FE6
:1008CB00112F112F101478EFCA48CA49227F0F201D
:1008DB00E73ABEB007400274070A0B2D109E1400B6
:1008EB00097E19B02EB0FB501F4C116817E47A1912
:1008FB00B01B147E19B0047A19B0B40A0BE47A1940
:10090B00B0A5D9ED0BA074017A19B0225EE0BF221D
:10091B003F8000004120000042C80000447A0000E4
:10092B00461C400047C35000497424004B18968066
:10093B004CBEBC205A0E1BCA6753C21C749DC5AE5D
:10094B007C7B60065407681623231209707CB7540E
:10095B0038680A7F1012096D12015C7F01227CB787
:10096B00543803241C6CAA2E54091B7E4400FF0B25
:10097B002A006912000222C2D57CB430E708B2D536
:10098B006E24FFFF0B247CB630E712B2D56E34FF1A
:10099B00FF0B348D326E24FFFF0B2480028D32301F
:1009AB00D5066E34FFFF0B34227D51AD037D027DE6
:1009BB0021AD052D12AD352D21226D0074104D008A
:1009CB00780B4D2278278D317D126D22227D437D50
:1009DB00326D222F112D445002A50FBF1040049FE2
:1009EB00100B901478ED7F016D227D34227D417DBB
:1009FB00138D247D022F004004BD0440049D040B85
:100A0B00141478F17D237D317D106D0022000000E0
:100A1B000000000000002F0000000007000700008E
:100A2B00147F147F1400242A7F2A12006264081397
:100A3B002300364955225000000503000000001C1E
:100A4B00224100000041221C000014083E08140043
:100A5B0008083E0808000000A0600000080808080D
:100A6B0008000060600000002010080402003E51E6
:100A7B0049453E0000427F4000004261514946001B
:100A8B002141454B31001814127F10002745454575
:100A9B0039003C4A494930000171090503003649C8
:100AAB0049493600064949291E0000363600000028
:100ABB0000563600000008142241000014141414D0
:100ACB0014000041221408000201510906003249AA
:100ADB0059513E007C1211127C007F494949360066
:100AEB003E41414122007F4141221C007F4949493F
:100AFB0041007F09090901003E4149497A007F08FD
:100B0B0008087F0000417F4100002040413F010069
:100B1B007F08142241007F40404040007F020C02BE
:100B2B007F007F0408107F003E4141413E007F095A
:100B3B00090906003E4151215E007F091929460033
:100B4B0046494949310001017F0101003F404040C6
:100B5B003F001F2040201F003F4038403F006314E0
:100B6B0008146300070870080700615149454300EA
:100B7B00007F41410000552A552A55000041417F15
:100B8B00000004020102040040404040400000010C
:100B9B00020400002054545478007F484444380029
:100BAB00384444442000384444487F00385454545B
:100BBB001800087E0901020018A4A4A47C007F0879
:100BCB000404780000447D4000004080847D0000D8
:100BDB007F102844000000417F4000007C04180473
:100BEB0078007C0804047800384444443800FC2422
:100BFB002424180018242418FC007C080404080082
:100C0B00485454542000043F444020003C404020B2
:100C1B007C001C2040201C003C4030403C00442801
:100C2B00102844001CA0A0A07C004464544C441425
:100C3B001414141414000000000000000000000045
:100C4B000000000000000000F800000000000000A1
:100C5B00333000000000100C06100C0600000000E2
:100C6B00000000000040C07840C0784000043F0402
:100C7B00043F040400007088FC08300000001820BA
:100C8B00FF211E0000F008F000E018000000211CFE
:100C9B00031E211E0000F00888700000001E212397
:100CAB00241927211010160E000000000000000070
:100CBB000000000000000000E0180402000000002B
:100CCB00071820400000020418E00000000040203C
:100CDB001807000000404080F080404000020201F5
:100CEB000F01020200000000F000000000010101F2
:100CFB001F01010100000000000000000080B07027
:100D0B0000000000000000000000000000000101D6
:100D1B000101010101000000000000000000303063
:100D2B000000000000000000008060180400601844
:100D3B00060100000000E010080810E000000F1092
:100D4B002020100F00001010F800000000002020E1
:100D5B003F20200000007008080888700000302831
:100D6B0024222130000030088888483000001820E9
:100D7B002020110E000000C02010F8000000070416
:100D8B0024243F240000F808888808080000192153
:100D9B002020110E0000E0108888180000000F11B1
:100DAB002020110E0000380808C838080000000089
:100DBB003F000000000070880808887000001C22AB
:100DCB002121221C0000E010080810E00000003177
:100DDB002222110F00000000C0C000000000000024
:100DEB003030000000000000800000000000008098
:100DFB00600000000000008040201008000001028D
:100E0B0004081020004040404040404000040404CF
:100E1B00040404040000081020408000000020108F
:100E2B000804020100007048080808F000000000E8
:100E3B003036010000C030C828E810E00007182742
:100E4B002423140B000000C038E0000000203C23DA
:100E5B00020227382008F8888888700000203F207D
:100E6B002020110E00C03008080808380007182091
:100E7B00202010080008F808080810E000203F2088
:100E8B002020100F0008F88888E8081000203F2069
:100E9B00202320180008F88888E8081000203F203D
:100EAB000003000000C030080808380000071820B5
:100EBB0020221E020008F808000008F808203F2135
:100ECB000101213F20000808F8080800000020203D
:100EDB003F2020000000000808F8080800C08080B0
:100EEB00807F00000008F888C028180800203F20E9
:100EFB00012638200008F8080000000000203F20E1
:100F0B00202020300008F8F800F8F80800203F00F7
:100F1B003F003F200008F830C00008F808203F20B1
:100F2B000007183F00E01008080810E0000F102021
:100F3B002020100F0008F808080808F000203F21B7
:100F4B000101010000E01008080810E0000F182450
:100F5B002438504F0008F8888888887000203F207C
:100F6B0000030C3020007088080808380000382077
:100F7B002121221C00180808F8080818000000207E
:100F8B003F2000000008F808000008F808001F20A8
:100F9B002020201F000878880000C83808000007B0
:100FAB00380E010000F80800F80008F800033C07B1
:100FBB0000073C0300081868808068180820302C54
:100FCB0003032C30200838C800C838080000002064
:100FDB003F2000000010080808C8380800203826F9
:100FEB002120201800000000FE0202020000000079
:100FFB007F40404000000C30C000000000000000AB
:10100B00010638C00000020202FE00000000404052
:10101B00407F0000000000040202020400000000F8
:10102B000000000000000000000000000080808035
:10103B00808080808000020204000000000000001D
:10104B000000000000000080808080000000192458
:10105B002222223F2008F8008080000000003F1170
:10106B002020110E000000008080800000000E1177
:10107B002020201100000000808088F800000E1155
:10108B002020103F200000808080800000001F2265
:10109B002222221300008080F088888818002020EC
:1010AB003F202000000000808080808000006B9437
:1010BB00949493600008F8008080800000203F210A
:1010CB000000203F200080989800000000002020A6
:1010DB003F20200000000000809898000000C08096
:1010EB0080807F000008F8000080808000203F2473
:1010FB00022D302000000808F8000000000020201E
:10110B003F202000008080808080808000203F2056
:10111B00003F20003F8080008080800000203F2126
:10112B000000203F200000808080800000001F20F6
:10113B002020201F00808000808000000080FFA105
:10114B002020110E000000008080808000000E1116
:10115B002020A0FF80808080008080800020203FA6
:10116B00212000010000008080808080000033245B
:10117B002424241900008080E080800000000000FF
:10118B001F202000008080000000808000001F20B6
:10119B002020103F20808080000080808000010E86
:1011AB00300806010080800080008080800F300CAA
:1011BB00030C300F00008080008080800000203105
:1011CB002E0E312000808080000080808080818EF8
:1011DB007018060100008080808080800000213024
:1011EB002C2221300000000000807C020200000055
:1011FB0000003F404000000000FF00000000000026
:10120B0000FF0000000002027C8000000000404054
:10121B003F00000000000601010202040400000070
:10122B0000000000000000F010101010FF10101054
:10123B0010F000000000000F04040404FF04040479
:10124B00040F0000004040405F55555575555555EE
:10125B005F404040000040200F0949897909090986
:10126B000F2040000000FE02424ACA4A4ACA4A4ABC
:10127B004202FE000000FF40504C4340404F505094
:10128B005C40FF00000000F888888888FF88888809
:10129B0088F800000000001F080808087F8888886D
:1012AB00889F80F00080828282828282E2A2928A70
:1012BB008682808000000000000040807F000000DC
:1012CB000000000000101010FF109008888888FFA5
:1012DB0088888808000444827F01808040432C105A
:1012EB0028468180000010101010D030FF30D01233
:1012FB001C1010000010080402010000FF00000188
:10130B000204081000CA3B7DF17D427D237CB412A0
:10131B0002C87F617D247CB81202C86DBB7EA442DB
:10132B00C87F051201FC7F417D2F7CB41202C87F60
:10133B00051201FC7F71BE480000781D7E1F001056
:10134B0079F100021B1AE07E1F000C79F100021BE1
:10135B001AE07E1F000802148F6D117E0442707F0D
:10136B00161201FC7F611203007A3700147D237C77
:10137B00B61202C87F017F161200A17F316DDD7E90
:10138B00C43F807F167F041200A17F0712015C7F90
:10139B00517F147F0312015C7F017F161200A17F26
:1013AB000712015C7F616D337E243F807F03120047
:1013BB00A17F0412015C7F016D337E243F801200FC
:1013CB00A17F0712015C7F017E3700141B34683745
:1013DB001B3468571B3468761B3478030214751B57
:1013EB003478030214982E34000568030214B97E76
:1013FB001F000879F100021B1AE07E1F000C791107
:10140B0000021B1A0080167E1F000879D100021BF8
:10141B001AC07E1F000C79F100021B1AE07E1F0020
:10142B001079B100021B1AA00214B97E1F000879B3
:10143B00B100021B1AA07E1F000C79F100021B1ACF
:10144B00E07E1F0010791100021B1A0080607E1FC6
:10145B00000879B100021B1AA07E1F000C79D10085
:10146B00021B1AC07E1F0010801A7E1F0008791104
:10147B0000021B1A007E1F000C79B100021B1AA080
:10148B007E1F001079F100021B1AE080217E1F00E5
:10149B000879F100021B1AE07E1F000C79B10002E3
:1014AB001B1AA07E1F001079D100021B1AC07E7F71
:1014BB000008693700020B7A206D117E04437F12FE
:1014CB00015C793700021B7A207E7F000C693700A4
:1014DB00020B7A206D117E04437F12015C79370079
:1014EB00021B7A207E7F0010693700020B7A206D79
:1014FB00117E04437F12015C793700021B7A20DADC
:10150B003B22CA3B7E340023122E1D7E3400231255
:10151B002E3274037AB301C47E3401F4122D4012BF
:10152B00222B7A1F00F77E340002122D406D117EA4
:10153B000441707E1F00F712027D38461230127480
:10154B00017AB301C47E340001122D5812222B7A7A
:10155B001F00FF7E340002122D4074037AB301C4C6
:10156B007E340001122D5874057AB301C47E340603
:10157B0040122D4012222B7A1F00FB7E34000212E8
:10158B002D406D777E6441707E1F00F77F03120242
:10159B007D280512302480477E0F00FB7E7F00FFE5
:1015AB007F1712027D400E7F177F0312027D2805E5
:1015BB0012302D80207E0F00FB7E1F00FF12027D5C
:1015CB0038107E1F00FB7F0312027D280512301B93
:1015DB0080031230367E340001122D581230121255
:1015EB0025647E340006122D407E0800C8122806A2
:1015FB0070227EB300C8B4531B7EB300C9B454141D
:10160B007EB300CAB44F0D7EB300CBB45006740149
:10161B007AB300F07E1F00F77A1F018C7E1431B372
:10162B007E0400FF12033DDA3B22CAF81225647ECA
:10163B00340006122D407E0800EB12280670727ED5
:10164B00A300EBBEA04C78097EB300ECB45902802A
:10165B0060BEA052780B7EB300ECB45904740280C8
:10166B0052BEA04D780B7EB300ECB45004740380D3
:10167B0042BEA047780B7EB300ECB45204740480D6
:10168B0032BEA04B780B7EB300ECB45904740580CA
:10169B0022BEA042780B7EB300ECB45A04740680D1
:1016AB0012BEA05778117EB300ECB44C0A740780BD
:1016BB000274017AB300B37EF300B3BEF001780578
:1016CB0012245B806ABEF002780C121D0A7EB300F6
:1016DB00EFB401F68053BEF003780C12183C7EB3C6
:1016EB0000D4B401F68042BEF004780C121C477E85
:1016FB00B300D2B401F68031BEF005780C12175648
:10170B007EB300F1B401F68020BEF006780C121502
:10171B000D7EB300F0B401F6800FBEF00778101207
:10172B00191D7EB300D3B401F674017AB300B3E490
:10173B007AB300D27AB300EF7AB300D47AB300F164
:10174B007AB300D37AB300F0DAF8221225647E3430
:10175B000006122D407E0800D512280660030218E1
:10176B003B7EB300DDB405061230240218147EB3A1
:10177B0000E0B408061230360218147EB300DEB453
:10178B00060612301B0218147EB300DFB4070512D5
:10179B00302D80757EB300E2B40A167EB300F604DA
:1017AB007AB300F67E7300F6BE7064405C7464809E
:1017BB001A7EB300E3B40B197EB300F6147AB300B0
:1017CB00F67E7300F6BE7064283FE47AB300F680B1
:1017DB00387EB300E1B4090F1230126D33122E1D97
:1017EB006D33122E3280227EB300D5B4531B7EB3E1
:1017FB0000D6B454147EB300D7B44F0D7EB300D8CB
:10180B00B4500674017AB300F17E7300F60A3712F6
:10181B002E1D7E7300F60A37122E327E7300F60AE7
:10182B00377A37018E7E1431D17E0400FF02033DDF
:10183B00221225647E340006122D407E0800D5123C
:10184B002806600302191C7EB300DDB40504740D79
:10185B00802A7EB300E0B40804740E801F7EB300B0
:10186B00DEB40604740280147EB300DFB407047484
:10187B000180097EB300E1B4090874186C776D22FE
:10188B0080537EB300E2B40A247EB300F4047AB32F
:10189B0000F47E7300F4BE701E4006741E7AB30013
:1018AB00F474046C777E6300F40A2680287EB30000
:1018BB00E3B40B267EB300F4147AB300F47E73000A
:1018CB00F4BE701E4005E47AB300F474056C777EA9
:1018DB006300F40A26122AA280227EB300D5B453E9
:1018EB001B7EB300D6B454147EB300D7B44F0D7E19
:1018FB00B300D8B4500674017AB300D47E7300DA07
:10190B000A377A37018E7E1431C97E0400FF020339
:10191B003D22CAF81225647E340006122D407E0843
:10192B0000EB12280660030219ED7EF300EDBEF00A
:10193B00417808740E12270E0219D8BEF045780AAA
:10194B007E3400641225FB0219D8BEF0547813E4E0
:10195B007E70797E60FF122DDE7E140064121F9D57
:10196B00806BBEF0577807740E122C6E805FBEF042
:10197B00527807740E122CF58053BEF0477807741B
:10198B000E122CC18047BEF0427807740E122CDB6E
:10199B00803BBEF04378097E34006412202B802DEF
:1019AB007EB300EBB4531B7EB300ECB45414BEF007
:1019BB004F780F7EB300EEB4500874017AB300D3A6
:1019CB00800B122F32E46C776C66122E5B7E7300E9
:1019DB00ED0A377A37018E7E1431AB7E0400FF128D
:1019EB00033DDAF822CA3B7CD37CC67D727A730145
:1019FB009F7AB3019EE47AB301A27AB301A3BED05E
:101A0B0008780674027AB301A2E4021AAC740A7E57
:101A1B00A301A00A2A0A3C9D321B34122D877D2775
:101A2B008D237E24000A8D327A5301A17EB301A34C
:101A3B0070390A2C1B247E7301A00A37BD32582B38
:101A4B007EB301A1701F0A1D1E147E5301A20A252D
:101A5B002D21AD327E53019E0A552D537E73019F6E
:101A6B007E6020803274017AB301A30A3D1E347E5E
:101A7B005301A20A252D237E7301A00A37AD327EB6
:101A8B0053019E0A552D537E73019F7E6301A10A5C
:101A9B00262E2400307C657C5D121B847EB301A056
:101AAB00047AB301A0BEC301A02803021A18DA3BC3
:101ABB002212306B74AE6C771229EDE46C7712291D
:101ACB00ED74106C771229ED74406C771229ED745C
:101ADB00816C771229ED74CF6C771229ED74A16CA0
:101AEB00771229ED74C86C771229ED74A66C7712F6
:101AFB0029ED74A86C771229ED743F6C771229EDE0
:101B0B0074D36C771229EDE46C771229ED74D56CD4
:101B1B00771229ED74806C771229ED74D96C7712DA
:101B2B0029ED74F16C771229ED74DA6C771229EDCB
:101B3B0074126C771229ED74DB6C771229ED7440FB
:101B4B006C771229ED74206C771229ED74026C7787
:101B5B001229ED748D6C771229ED74146C771229A0
:101B6B00ED74A46C771229ED74A66C771229ED1223
:101B7B00295974AF6C770229EDCA3B7CF57CA67CA6
:101B8B00E77CDB0A257D321E347A7301A46D117A52
:101B9B001701A5BEF008780A7E1400067A1701A774
:101BAB00801E7D121E141E141E145E240007680670
:101BBB007E24000180026D222D21AD327A3701A7E0
:101BCB000A3A9E3400207CC77CBD7C7E122AF96DBC
:101BDB003380587E7301A40A377E2701A58D234DD0
:101BEB0022780EBEF00868097CBD7C7E0BE0122AC1
:101BFB00F9BEF008780F7E7006AC7C2E3701A52E4F
:101C0B00340A188012BEF010782F7E7010AC7C2E28
:101C1B003701A52E340C407A71827A6183E4937E6E
:101C2B0070011229ED7E3701A50B347A3701A57EA1
:101C3B003701A7BE3701A5389ADA3B22CA7912259C
:101C4B00647E340006122D407E0800B41228066014
:101C5B0003021D077E7300CA0A277E3400649D327F
:101C6B007A7300F50A37122E1D7E7300F50A3712B0
:101C7B002E327EF300B7BEF0283805123024806771
:101C8B00BEF03C4005123036805DBEF0282807BE02
:101C9B00F03C500280227EE300B9BEE028380512EA
:101CAB00301B8043BEE03C400512302D8039BEE036
:101CBB00282814BEE03C500F1230126D33122E1D2B
:101CCB006D33122E3280207EB300B4B453197EB321
:101CDB0000B5B454127EB300B6B44F0BBEF05078BF
:101CEB000674017AB300D27E7300B90A377A3701D2
:101CFB008E7E1431C07E0400FF12033DDA7922CAB6
:101D0B00791225647E340006122D407E0800C8121D
:101D1B0028066003021DC87E7300CA0A377E740052
:101D2B00649D730A3F122E1D0A3F122E327EE30072
:101D3B00CFBEE064500ABEE0374005123036806CEF
:101D4B00BEE02D380ABEE0004005123024805D7ED7
:101D5B00E300D1BEE064500ABEE037400512301BF1
:101D6B00804ABEE02D380ABEE000400512302D80BF
:101D7B003BBEE0375014BEE02D280F1230126D33EE
:101D8B00122E1D6D33122E3280227EB300C8B45337
:101D9B001B7EB300C9B454147EB300CAB44F0D7E7E
:101DAB00B300CBB4500674017AB300EF0A3F7A3715
:101DBB00018E7E1431D17E0400FF12033DDA7922AD
:101DCB007EB301467003021E6C7EB30153B416182A
:101DDB007EB30103047AB301037E730103BE706407
:101DEB00400674647AB301037EB30154B418177EB2
:101DFB00B30103147AB301037E730103BE7064282D
:101E0B0005E47AB301037E7301030A37122E1D7E9C
:101E1B007301030A37122E327EB30155B40A051231
:101E2B00302480387EB30156B40B05123036802C2B
:101E3B007EB30157B40C0512301B80207EB30158C2
:101E4B00B40D0512302D80147EB30159B40E0D1252
:101E5B0030126D33122E1D6D33122E32E47AB30114
:101E6B0046227EB301467003021F057EB30153B4B5
:101E7B00161C7EB30104047AB301047E730104BE05
:101E8B00701E4006741E7AB30104740480207EB366
:101E9B000154B418247EB30104147AB301047E7385
:101EAB000104BE701E4005E47AB3010474056C771F
:101EBB007E6301040A26122AA27EB3015AB41104CE
:101ECB00740D802A7EB3015BB41704740E801F7EE1
:101EDB00B3015CB41204740180147EB3015DB413BE
:101EEB0004740280097EB3015EB4140974186C7714
:101EFB006D22122AA2E47AB3014622CA3B7F307AC2
:101F0B005301937A6301927A7301917AB301906DC5
:101F1B00337A3701947E7301937D235E2400076827
:101F2B00067E24000180026D221E341E341E342DC9
:101F3B00327A730193E480497EB301907EA30191C1
:101F4B000A2A7EA301960A3A2D32122AF9E4801E40
:101F5B007E3701947D230B247A2701942D377D2620
:101F6B007E1BB07E70011229ED7EB30197047AB30C
:101F7B0001977E730192BE73019738D47EB301969D
:101F8B00047AB301967E730193BE73019638A9DA76
:101F9B003B22CA3B7A1701687F316D337A37016A6E
:101FAB006D337A37016C6D337A37016E7E57016C66
:101FBB002E57016E7F131227CA7E37016E2E340007
:101FCB00037A37016EBE34000E40E1122F327E379A
:101FDB000168122D406D337A37016E7E57016C2EDE
:101FEB0057016E9F111227CA7E37016E2E340003E4
:101FFB007A37016EBE34000E40E1122F327E37016C
:10200B006C0B347A37016CBE34000348997E370170
:10201B006A0B347A37016ABE3404FB4883DA3B22FD
:10202B00CA3B7D736D666D337A3701686D337A37D2
:10203B00016A7D362E37016A7E2400FF8D327CB516
:10204B001224BA7E5701682E57016A1227CA7E37AF
:10205B00016A2E3400037A37016ABE34000E40D277
:10206B00122F327D37122D406D337A37016A7E572E
:10207B0001682E57016A9F111227CA7E37016A2EFB
:10208B003400037A37016ABE34000E40E17E37011B
:10209B00680B347A370168BE340003488F0B64BE7B
:1020AB006401004881DA3B22E47E34FEB67E2400D4
:1020BB007E7A1BB07E34FEEC7A1BB074607E14FE0D
:1020CB00E87E04007E7A0BB07E14FEE97A0BB074C6
:1020DB00117A1BB0E47E34FEF07A1BB074EF7E34C1
:1020EB00FEF17A1BB0E47E34FEF27A1BB074637E91
:1020FB0034FEF37A1BB0E47E34FEF57A1BB07E34EB
:10210B00FEF67A1BB07E34FEF77A1BB07E34FEF8F7
:10211B007A1BB074057E34FEB57A1BB074807E34A6
:10212B00FEFD7A1BB074017E34FEE07A1BB022CA2E
:10213B003B7CF57CD67CE77CCB0A357D131E141ECD
:10214B00141E147D235E24000768067E2400018084
:10215B00026D222D21AD327A3701B46D33803B0AEB
:10216B003F7E2701B28D234D2278097CBC7C7E0BF0
:10217B00E0122AF9BEF010782F7E7020AC7D2E373E
:10218B0001B22E3412307A71827A6183E4937E70BD
:10219B00011229ED7E3701B20B347A3701B27E374B
:1021AB0001B4BE3701B238B7DA3B22CA3B7F3012DB
:1021BB002B93A2B4E4337865A2B4E43368FAE47ADF
:1021CB00B30198122D0F7CAB7EB301980A4B19A467
:1021DB000199047AB30198B405E97E73019A0A0751
:1021EB007E7301990A172D107E63019B0A062D0140
:1021FB007E63019C0A162D107E63019D0A26BD216C
:10220B00781B397300027E73019A397300037E7356
:10221B00019B7A3B707E73019C39730001DA3B2280
:10222B00CA3BE47AB301689F33122ED9D2B330B3D1
:10223B00FDD28E20B3FDC28E7EB30168047AB3014A
:10224B0068E58D0A2B7E340100AD32E58B0A2B2D10
:10225B00327A370169758D00758B007E270169E431
:10226B001202C87E14B7177E043A5112015C7F012B
:10227B007A1F016B7F131200A47F317EB30168B408
:10228B0005A76D117E0440A07F131201FC7A1F017C
:10229B006BDA3B22CA3B7A6301B07F307A7301AFB2
:1022AB007AB301AEE47AB301B1804A7EB301AE7E5C
:1022BB007301AF7E6301B17CA60BA07AA301B10AB7
:1022CB00267F032D127E0B607E5301B0121B847E82
:1022DB00A301B0BEA008780C7EB301AE24067AB37E
:1022EB0001AE80110A3A7E2400021209822E73017C
:1022FB00AE7A7301AE7E7301B10A372D377D267E20
:10230B001BB070A7DA3B22E47E34FEB27E24007E43
:10231B007A1BB07E34FECD7A1BB074607E14FECB7C
:10232B007E04007E7A0BB074407A1BB0E47E34FEE0
:10233B00D07A1BB074177E34FED17A1BB0744E7EEC
:10234B0034FED27A1BB0741F7E34FED37A1BB0E4FA
:10235B007E34FEDB7A1BB07E34FEDC7A1BB07480DD
:10236B007E34FEB17A1BB07E34FEDD7A1BB0740175
:10237B007E34FEC07A1BB0227E5431977E4400FF20
:10238B0069320003692200017E2B307A1F01697AC2
:10239B003301687E54319C7E4400FF69320003692F
:1023AB002200017E2B307A1F016E7A33016D74305F
:1023BB007E0801687E70051228B474107E08016DCA
:1023CB007E7005122923E40A3B0973016D0A2B0960
:1023DB00A20168BCA7780604BEB00540EABEB005F2
:1023EB00680374FF22E422CA59CA1BE59830E05BEC
:1023FB005398FEE5997AB3013B7EB3013BBEB02304
:10240B00681E7EA3013B7CBA047AB3013B7E730149
:10241B00477CB7047AB301470A3719A30148802BCD
:10242B00E480137E7301650A270972014819720152
:10243B003C7EB30165047AB301657E730147BE73BD
:10244B00016538DFE47AB30147D201DA1BDA59327E
:10245B007EB30146603F7EB3015FB415066D337AE0
:10246B003700F27EB30160B410087E3400017A3776
:10247B0000F27EB30161B40F087E3400027A37009C
:10248B00F27E3400017E0801527E240013122A4989
:10249B00E47AB301467E3700F21B34680B1B3468B9
:1024AB000A0B35780902000A021DCB021E6D22CAE7
:1024BB00790A3B7E7400FF7D279D237C45BE4055EA
:1024CB0050127E9003AC947D579D546C777E5003D5
:1024DB00AC458017BE40AA50169E4055E47E700353
:1024EB00AC747E3003AC347D279D217C6580129EBD
:1024FB0040AA7403ACB47E5003AC457D379D326C5F
:10250B0066122DDEDA79227F707C3B7EB301661476
:10251B006819047841A5BBA50B74017AB301667ADF
:10252B007B308032E47AB30166802B7E2301670A0D
:10253B00322D3F7D2E7A1B307EB30167047AB301B7
:10254B00677E730167BE7013400C74017AB3016729
:10255B00E47AB301662274FF22C296742A7E143188
:10256B00A17E0400FF7E70051228B474217E7001D9
:10257B00122D7074227E7001122D7074257E7019CD
:10258B00122D7074317E7014122D7074267E700FA4
:10259B00122D7074207E700F122D7074277E70FFB9
:1025AB00122D70D29622CA3B7AB301C37F307A3791
:1025BB0001C1802A7E18000A7E3301C30A136D0005
:1025CB00122D287F017F131209C77E14000A1209EE
:1025DB00C57F202E2800307E3701C1122B6F7EA3C2
:1025EB0001C37CBA147AB301C34CAA78C7DA3B2275
:1025FB00CA3B7D736D666D337A3701687E57016810
:10260B007CABE47E44000E8D542D561224BA7E57BB
:10261B0001681227CA7E3701680B347A370168BE0E
:10262B0034000E78D7122F327D37122D400B64BE3B
:10263B0064050040C1DA3B227E7301BF7A7301C08F
:10264B00122BB67AB301BF7EA301C0BEA001780CDA
:10265B007EB301BF700674017AB301BEBEA00278CF
:10266B000C7EB301BF700674027AB301BEBEA00329
:10267B00780C7EB301BF700674037AB301BE22756A
:10268B0084017E44041FE47A49B01B4478F97EF838
:10269B0001C9C200C2017E0400FF7E1430980B0AF0
:1026AB00405D44681A692000020B0E0B44800A7EC1
:1026BB000BB07A29B00B240B0C1B4478F280DF0291
:1026CB00278DCAF8C29674A07E70141228B4D296C5
:1026DB00A283E43378FA740712008E7CFB74277C98
:1026EB007F122D707CBF30E40C74E17E70FF122DD5
:1026FB00707410800B7CBF30E5047420800274FF73
:10270B00DAF822CA3B7CFB122BF67E6400FF7D2697
:10271B001209827CB5900000F0122BF67D2612096F
:10272B00827CE5122BF67D261209827CD5800D90DA
:10273B000000E07C7E7C6D122E5B0BC0BCFC38EF86
:10274B00DA3B22CA3B7D736D666D337A3701C67DEA
:10275B00562E5701C61224BA7E5701C61227CA7EBF
:10276B003701C60B347A3701C6BE34000E78E0123F
:10277B002F327D37122D400B64BE64010040CADA44
:10278B003B2275E900A9D7BA75EA0012303F123027
:10279B007F123079123091123009123048122FFF0C
:1027AB00123085123072E41228EC74066C777E249A
:1027BB000014122AA2D2AF12284112163580FBCA7E
:1027CB00F87F017CAB6CFF0A4A191401291924010B
:1027DB001B1934010D0BF0BEF00E78EB6CFF0A3FAA
:1027EB0009B3011B097301290A2F0962010D122E6E
:1027FB005B0BF0BEF00E40E6DAF822CA3B7F30A24C
:10280B0083E433782C740712008E7C7B7AB30168D7
:10281B007427122D707EB3016830E61574617F0347
:10282B007E701412292374E27E70FF122D70E480E7
:10283B00027401DA3B22801D7E14317F7E0400FF7F
:10284B0012033D7E14317D7E0400FF12033D7E3466
:10285B0003E8122D4012238370DE7E1431647E0454
:10286B0000FF12033D7E14317D7E0400FF02033D09
:10287B007CAB7F706D226C66800F0A162D1F7D0E50
:10288B007E0B700A172D210B60BCA638ED6E24FF52
:10289B00FF0B240A162D1F7D0E7A0B407C750A2622
:1028AB007F072D123970000122CA3B7A7301727FA8
:1028BB0030C2C8122F167AB30173E4800D7E3BB081
:1028CB000B74122F167EB30174047AB301747E73EA
:1028DB000172BE73017438E5D2C87EB30173DA3B63
:1028EB00227CAB6C770A4A7CB760053E441478FBBC
:1028FB004D4468067E24000180026D225E24008018
:10290B006804D2C78002C2C7C2C5D2C50B70BE70E5
:10291B000840D2C2C6D2C622CA3B7A7301727F303C
:10292B00C2C8122F16E4800F74FF122F167A3BB019
:10293B000B747EB30174047AB301747E730172BE9F
:10294B0073017438E3D2C87EB30173DA3B22CA79C0
:10295B006CFF0A5F2E5400B06C771229EDE46C7794
:10296B001229ED74106C771229ED6CEEE47E700178
:10297B001229ED0BE0BEE08078F20BF0BEF00840C0
:10298B00D1DA7922CA797CFB7E340001747E122B5A
:10299B006F6CEE800F7E3400010A2E09B200161206
:1029AB002B6F0BE0BCFE38ED7E34000174EF122B65
:1029BB006FDA7922CA59CA787EB301C5047AB3019A
:1029CB00C574287EA301C58CAB7AA301C57E7301A8
:1029DB00C5BE7301C45004D2CA8002C2CADA78DA07
:1029EB005932CA797CF77CEB122E477478122B2262
:1029FB00122EF84CFF680474408001E4122B221253
:102A0B002EF87CBE122B22122EF8122F07DA792207
:102A1B007CA57C577C7B74FF7AB3001674067AB363
:102A2B0000177A7300187A5300197A63001A7AA385
:102A3B00001B7E08001612287B740802298FCA3BE4
:102A4B007A27016A7F307A370168800C7E370168FC
:102A5B007E3BB00B74122B6F7E37016A7D231B24D8
:102A6B007A27016A4D3378E4DA3B22CAF87CFB4CB7
:102A7B00FB780E74C86C771229ED74A16C77122950
:102A8B00EDBEF001780E74C06C771229ED74A06C5A
:102A9B00771229EDDAF8227C677C7B74FF7AB3001E
:102AAB001674067AB300177A7300187A6300197AD2
:102ABB0043001A7A53001B7E08001612287B7408F9
:102ACB0002298FCA797A0F004B7D737E3400497EC1
:102ADB002400007A1F01B67E08004F7E1F004B12A8
:102AEB0003697D377E08004F122C33DA7922CAF83E
:102AFB007CFB0A572E5400B06C771229ED7CBF5427
:102B0B00F0C4540F44106C771229ED7CBF540F6C3A
:102B1B00771229EDDAF822CA797CFB7EE008C2A590
:102B2B007CBF30E704D2A48002C2A4122F7ED2A5B0
:102B3B00122F7EC2A53EF01BE078E3DA7922CA7B26
:102B4B00CAB8CA1BCA0BE5AC30E01053ACFEE5ADFE
:102B5B007E0801521225127AB30146DA0BDA1BDA20
:102B6B00B8DA7B327CAB2E34FFFD68100B3578174F
:102B7B007AA199E59830E1FB5398FD227AA1ADE556
:102B8B00AC30E1FB53ACFD22D2B47E1800B21B1C5F
:102B9B0078FCC2B47E34D4BE7E2400011B1C78FCAE
:102BAB00D2B47E1800B21B1C78FC226CAAA284E45F
:102BBB003378037EA001A285E43378037EA002A2C2
:102BCB0086E43378037EA0037CBA22CAF87CFBBE72
:102BDB00F00A78097E340001740D122B6F7E3400DD
:102BEB00017CBF122B6F7CBFDAF8227E144E6D7EF8
:102BFB000441C67E1F01BA1209B42E1830397A1F50
:102C0B0001BA7E3701BA5E607F22CAF87CFB4CFBAF
:102C1B00780774A66C771229EDBEF001780774A7BC
:102C2B006C771229EDDAF822CA3B7F307A3701C86C
:102C3B00800C7E3701C87E3BB00B74122B6F7E3B32
:102C4B00B070EFDA3B22CA797CFB7EE0087CBF30A8
:102C5B00E705122DF38003122FEA3EF01BE078ED0F
:102C6B00DA7922CA797CFB6CEE800D74FF7E70FFE3
:102C7B007E60FF122E5B0BE0BCFE38EFDA7922751B
:102C8B009850438E01438E0475D78F75D6FD438EB6
:102C9B0010E5B8F5B843B710D2AC2275AC10A9D279
:102CAB008E75D78F75D6FDA9D48EE5DFF5DFE5EEF2
:102CBB00F5EEA9D3AF22CA797CFB6CEE800B74FFC7
:102CCB006C776C66122E5B0BE0BCFE38F1DA792266
:102CDB00CA797CFB6CEE800BE46C777E60FF122E66
:102CEB005B0BE0BCFE38F1DA7922CA797CFB6CEE27
:102CFB00800BE47E70FF6C66122E5B0BE0BCFE3823
:102D0B00F1DA7922CA796CFF6CEE3EF0122D9E4CF3
:102D1B00FB0BE0BEE00840F27CBFDA79227F707FCC
:102D2B00617E18000180057F061209B47F071B7CAA
:102D3B004D0178F322CA797D7380077E3403E81244
:102D4B002E6F7D371B744D3378F1DA7922CA797D7A
:102D5B007380077E3403E8122D407D371B744D338F
:102D6B0078F1DA7922CA797CF7C2C8122F167CEB7C
:102D7B007CBF122F16D2C87CBEDA79227CA77C3B93
:102D8B007E34000180040A23AD327C2A1BA0A5BA35
:102D9B0000F42220B4FD30B4FD7E1801661B1C78B4
:102DAB00FC30B403740122E422748D6C771229ED8C
:102DBB0074146C771229ED74AF6C770229ED748D56
:102DCB006C771229ED74106C771229ED74AE6C7759
:102DDB000229ED7CA60A377C676C770A1B7D017D87
:102DEB00130A3A4D317D2022D2CB000000000000A7
:102DFB0000000000000000000000C2CB227D037E1B
:102E0B0034FEDB7E24007E7A1B007E34FEDC7A1BD4
:102E1B0010227D037E34FEF57E24007E7A1B007E1D
:102E2B0034FEF67A1B10227D037E34FEF77E2400DF
:102E3B007E7A1B007E34FEF87A1B1022D2A4122F4E
:102E4B007ED2A5122F7EC2A4122F7EC2A5022F7E88
:102E5B00CA797CE7122C517CB7122C517CB6122C00
:102E6B0051DA7922CA797D738003122F967D371B35
:102E7B00744D3378F5DA7922538E7F5389F0758A46
:102E8B00C0758C63C28DD28CD2A9225391C7539239
:102E9B00C775CA0075C900D2C8C29522438E40536C
:102EAB00890F758B00758D00C28FD28E227D236D9D
:102EBB00337A3701BA7D321B347A3701BC2243DDBA
:102ECB000275D52075D4D143DD08A9D5AF22C282B6
:102EDB0000D2827E18003A1B1C78FCC282225392CD
:102EEB00BF5391BF5394F75393F7D29622D2A412A8
:102EFB002F7ED2A5122F7EC2A5022F7EC2A4122F27
:102F0B007ED2A5122F7ED2A4022F7E7AB1CFE5CD31
:102F1B0030E7FB53CDC0E5CF2275CFFFE5CD30E7D2
:102F2B00FB53CDC0E5CF22C2CB0000007E1801DEE3
:102F3B001B1C78FC225393FB5394FB53B1F753B2F6
:102F4B00F72253B1FC53B2FC5393FC5394FC22CAAB
:102F5B0059CA78122643DA78DA59327EA301BEE4D5
:102F6B007AB301BE7CBA227AB1CFE5CD30E7FB5301
:102F7B00CDC0227EA0017C7A1BA0A5BF00F8220049
:102F8B0000007E18176E1B1C78FC220000007E18B8
:102F9B0000041B1C78FC220000007E18001C1B1C6C
:102FAB0078FC220000007E18003A1B1C78FC2200E3
:102FBB0000007E1800761B1C78FC220000007E1897
:102FCB00012A1B1C78FC220000007E1800581B1CD9
:102FDB0078FC220000007E1802561B1C78FC22D2C3
:102FEB00CB000000000000C2CB2275CF0075CDC016
:102FFB0075CED322C282C2B3122F40022EA712303B
:10300B0056120003022E83C2A6C2A7C2A2C2A322DB
:10301B00C2A2D2A3D2A6C2A722D2A2C2A3D2A6C2B6
:10302B00A722C2A6D2A7D2A2C2A322C2A2D2A3C255
:10303B00A6D2A722122F4D122C8A022CA653B1EF27
:10304B0053B1EF2253B31F53B41F2253948F539397
:10305B008F225395304396CF2253917F43918022F9
:10306B005395CF5396CF2253C9F743CA0822123038
:10307B005D0220B3122EE902308B123064022EC98E
:10308B00122E96022FF502304F2830290000010135
:10309B00C403000A0016000000000000000000003E
:1030AB00000E010D000000000000000000000000F9
:1030BB000000000E011B00000000000000000000DB
:1030CB0000000000000E01290000000000000000BD
:1030DB000000000000000001014600000101470054
:1030EB00000101650100010166000001016701009B
:1030FB000100B301000A00C82030200000000000CE
:10310B000000000100D200000100D300000100D438
:10311B0000000100EF00000100F000000100F100D1
:10312B00000200F20001000100F414000100F5237D
:10313B00000100F600000400F7000000000004008E
:10314B00FB00000000000400FF0000000000010174
:10315B000323000101041400004E524632344C305C
:10316B00315F436865636B207375636365656420CA
:10317B0021000A004E524632344C30315F436865B1
:10318B00636B206661696C6564202100C2C2C2C298
:10319B00C2000000000000C2C2C2C200C2C2C2C252
:1031AB004B65793A25630A0044697374616E6365F4
:1031BB003A25640A00526F6C6C3A25640A004B6521
:0E31CB00793A25640A0050574D3A25640A00EF
:00000001FF
