:020000040800F2
:10000000780C002001010008911E0008190D00085D
:10001000DD180008ED090008F131000800000000BB
:10002000000000000000000000000000252D000876
:100030005D0B000800000000A9280008292D000819
:100040001B0100081B0100081B0100081B01000820
:100050001B0100081B0100081B0100081B01000810
:100060001B0100081B0100081B0100081B01000800
:100070001B0100081B0100081B0100081B010008F0
:100080001B0100081B0100081B0100081B010008E0
:100090001B0100081B0100081B0100081B010008D0
:1000A0001B0100081B0100081B0100081B010008C0
:1000B0003D2E00081B0100081B0100081B01000861
:1000C0001B0100081B0100081B0100081B010008A0
:1000D0001B010008E92F00081B0100081B01000894
:1000E0001B0100081B0100081B010008DFF80CD0F1
:1000F00000F0A4FB00480047C9320008780C00203B
:100100000648804706480047FEE7FEE7FEE7FEE7B1
:10011000FEE7FEE7FEE7FEE7FEE7FEE72D2D00081F
:10012000ED00000880EA010210B502F00043400033
:1001300022D04A001FD0010E01EB1261C0F356001D
:10014000C2F3560240F4000042F40002A0FB022079
:1001500000047F39140400D0401C50EA124001D43E
:100160004000491EC2B20C0604EBD010401C4008EF
:10017000802A02D003E0002010BD20F001000029F9
:1001800000DA0020184310BD30B480EA010202F00A
:10019000004530F0004221F0004013D090B1C30D73
:1001A000D40DC2F31601C0F31600E41A41F40001A5
:1001B00040F400027D34914201D3641C00E0490008
:1001C000002C02DA30BC002070474FF400000023FE
:1001D000914201D3891A034340084FEA4101F7D104
:1001E00051B1914202D14FF0004105E002D24FF0EF
:1001F000010101E06FF0010103EBC450284430BC61
:1002000000F057BA2DE9FE4F804681EA0300C00F87
:100210000C46009021F0004123F00045B8EB0200AD
:10022000A94105D24046214690461C460B4602464F
:1002300023F00040104347D0270DC7F30A00C3F353
:100240000A510290401A019040286BDAC3F3130060
:1002500040F4801B0098924620B10023D2EB030AA1
:1002600063EB0B0B01985946C0F14002504600F079
:10027000FFF906460D4650465946019A00F007FA26
:1002800010EB08006141002487EA115284EAE77309
:100290001A4340D0009A62B3019A012A4FEA0752EA
:1002A00015DC001B61EB02014FF0004202EA07522D
:1002B000CDE90042001C41F5801132462B4600F08A
:1002C0003EFA03B0BDE8F08F40462146F9E7001B37
:1002D00061EB0201001C41F5801300185B412018FE
:1002E000A2F5001747EB030140EAD570B6196D413E
:1002F00011E06D084FEA360645EAC0754FEA07522D
:10030000001B61EB0201001C41F5801149084FEA16
:1003100030000019514132462B4603B0BDE8F04F82
:1003200000F0FEB90098012240000023D0EB020249
:1003300063EBE073009821464FEAE074B8EB0000ED
:1003400061EB0401E9E783F000435BE781F00041E2
:1003500058E72DE9FE4F81EA030404F0004421F040
:10036000004100944FF0000B23F0004350EA0104D9
:100370005ED052EA03045BD0C3F30A54C1F30A55BA
:100380002C44A4F2F3340194A0FB0254C1F31301F2
:1003900041F48011C3F3130343F4801301FB0244BF
:1003A00000FB034E840A970A44EA815447EA8357C4
:1003B000A4FB076802958D0A05FB07854FEA932C7D
:1003C00004FB0C542705029D4FEA065847EA1637EE
:1003D000B5EB08056EEB070C870E920E47EA811706
:1003E00042EA8312A7FB0201B6EB0B0164EB0004A7
:1003F0002B0D43EA0C335E1844EB1C50DA46514691
:10040000E7FB0201C5F313044FEA0B3343EA14532D
:100410004FEA0432019C43EA0603A4F10C0402945F
:10042000009CCDE900B400F08AF903B0BDE8F08F7C
:1004300000200146F9E72DE9F04D81EA030404F0BC
:10044000004B21F0004514464FF0000A23F0004114
:1004500050EA050220D054EA01021DD0C5F30A5724
:100460000246C5F31303C1F31300C1F30A5640F467
:10047000801543F48013A7EB0608101BD64608F23C
:10048000FD3873EB050002D308F1010801E0921872
:100490005B41B8F1000F03DA00200146BDE8F08DA2
:1004A00000204FF48011064684460EE0171B73EBC4
:1004B000050705D3121B63EB050306434CEA010C49
:1004C00049084FEA300092185B4150EA0107EDD12C
:1004D00052EA030012D082EA040083EA05010843CD
:1004E00005D0101BAB4106D20122002306E00022FA
:1004F0004FF0004302E06FF0010253101AEB0600C8
:100500004CEB085110EB0A0041EB0B01BDE8F04D3C
:1005100000F006B90EB5C10F80EAE0700844CA07C2
:10052000002140F233438DE80E000A460B4600F0EE
:1005300006F903B000BD0EB540F23341029100212F
:10054000CDE900110A460B4600F0F9F803B000BDF2
:1005500000F0004220F00040C10DC0F3160040F44E
:1005600000007F2901DA00207047962903DCC1F1E1
:100570009601C84001E096398840002AF4D04042F4
:10058000704720F00040C10DC0F3160040F4000099
:100590007F2901DA00207047962903DCC1F196011A
:1005A000C840704796398840704701F0004330B426
:1005B00021F0004150EA010206D00A0DA2F5607256
:1005C000C1F31301002A02DC30BC00207047440F45
:1005D00044EAC104C100E01830BC00EBC25000F096
:1005E00068B830B50B46014600202022012409E0FE
:1005F00021FA02F59D4205D303FA02F5491B04FADC
:1006000002F52844151EA2F10102F1DC30BD2DE9EE
:10061000F05F0546002092469B4688460646814686
:1006200040241BE0284641464746224600F018F980
:1006300053465A46C01A914110D3114618462246D5
:1006400000F016F82D1A67EB01084F4622460120EC
:10065000002100F00DF817EB00094E41201EA4F117
:100660000104DFDC484631462A464346BDE8F09F98
:10067000202A04DB203A00FA02F100207047914062
:10068000C2F1200320FA03F3194390407047202A57
:1006900006DBCB17203A41FA02F043EAE07306E0AA
:1006A00041FA02F3D040C2F12002914008431946BA
:1006B00070470029A8BF7047401C490008BF20F0C0
:1006C0000100704710B4B0FA80FC00FA0CF050EA58
:1006D000010404BF10BC704749B1CCF1200421FAD9
:1006E00004F411FA0CF118BF012121430843A3EBD4
:1006F0000C01CB1D4FEA00614FEA102042BF0020E1
:1007000010BC704700EBC35010440029A4BF10BCBC
:100710007047401C490008BF20F0010010BC704722
:1007200010B5141E73F1000408DA401C41F10001F9
:1007300092185B411A4301D120F0010010BD2DE950
:10074000F04D92469B4611B1B1FA81F202E0B0FA47
:1007500080F220329046FFF78BFF04460F4640EAB6
:100760000A0041EA0B0153465A46084313D011468A
:1007700053EA010019D0C8F14002504600F070F869
:1007800005460E46504659464246FFF771FF08435C
:1007900005D0012004E020463946BDE8F08D002058
:1007A000054346EAE0762C4337430A986305E40A9A
:1007B000A0EB08000022FD0A44EA47540A3002D5A3
:1007C00000200146E9E7010510196941DDE9084506
:1007D00000196941BDE8F04DA2E7C1F30A52C1F327
:1007E000130140F2FF3341F480119A4202DA0020F3
:1007F0000146704740F233439A42A2F2334202DC90
:10080000524200F02DB8FFF733BF000030B5041E90
:1008100071F1000404DB4FF00044404264EB01013D
:10082000141E73F1000405DB1C464FF000435242D6
:1008300063EB0403994208BF904230BD064C074D5C
:1008400006E0E06840F0010394E8070098471034A0
:10085000AC42F6D3FFF74EFC8C420008AC420008D5
:10086000202A04DB203A21FA02F00021704721FA05
:1008700002F3D040C2F1200291400843194670476C
:1008800070B58C1810F8015B15F0070301D110F852
:10089000013B2A1106D110F8012B03E010F8016B7F
:1008A00001F8016B5B1EF9D12B0705D40023521E02
:1008B0000DD401F8013BFAE710F8013BCB1A921C6A
:1008C00003E013F8015B01F8015B521EF9D5A14268
:1008D000D8D3002070BD00008268002922F00102F8
:1008E00018BF0132826070478268002922F480724A
:1008F00018BF02F580728260704700008068C0F304
:10090000800070478068C0F3C000704780B54268BF
:100910004FF6FF63CFF6F07302EA030C0B680A7917
:1009200043EA0C0343EA0222426082684FF2FD73FD
:10093000CFF6F17302EA030CD1E902E24B7942EA05
:100940000C0242EA0E0242EA43028260C26A097C59
:1009500022F470020139C9B242EA0151C16280BD7C
:10096000B0B501EB410C4FF0100E092988BFACF176
:100970001E0C88BF4FF00C0E50F80E40072505FAEC
:100980000CF5AC4303FA0CF3234340F80E30062A6F
:1009900002EB820303D834306FF0040207E00C2A24
:1009A00087BF2C306FF0400230306FF022021A44C3
:1009B00003681F259540AB43914019430160B0BDCA
:1009C000816841F008018160704700008268002959
:1009D00022F4A00218BF02F5A00282607047000056
:1009E000816841F00401816070470000FEE700006B
:1009F00002684FF6FE7C42F00103002908BF02EABC
:100A00000C0303607047000002684FF6FE731A4043
:100A10007F230421C4F20203C4F202010260002217
:100A20009842026042608260C26016DC4322C4F2D7
:100A3000020290422CDC0822C4F20202904251D001
:100A40001C22C4F2020290424ED03022C4F20202B2
:100A500090425ED14FF4706058E040F22F42C4F2F1
:100A60000202904226DC8022C4F2020290423DD073
:100A700040F20842C4F2020290423AD040F21C42D4
:100A8000C4F20202904244D101F58061F0203DE0C1
:100A90004422C4F20202904236D05822C4F202022A
:100AA00090421CD06C22C4F20202904231D14FF429
:100AB00070002BE040F23042C4F2020290421CD09F
:100AC00040F24442C4F2020290421BD040F258422B
:100AD000C4F20202904218BF704701F580614FF4E2
:100AE000702013E00F2011E0F0200FE04FF0706055
:100AF0000CE001F580610F2008E001F580614FF402
:100B0000706003E001F580614FF470400A681043A3
:100B1000086070472DE9F047026847F6F073D1E9A5
:100B2000026A9A4301F11007B0CF01F11C0E324363
:100B3000D1E900899EE80A501A4322432A433A43E6
:100B4000114341EA0C0141EA0E010160C0F804A022
:100B5000C0F80880C0F80C90BDE8F087704700002E
:100B600010B5002808BF10BD4EF2100141F6401C20
:100B7000CEF20001C0F2010C4FF0000E052204235A
:100B8000C1F804C0C1F808E00A6000BF0C68E403C3
:100B9000FCD501380B60F3D110BD00004EF21001FE
:100BA00000EBC000CEF20001C00048600020886069
:100BB000052008600868C003FCD504200860704761
:100BC0002DE9F047CA7802F00F0CD30644BF8B78AA
:100BD0004CEA030C09880B0625D082465AF8144BC0
:100BE00000F1100E00254FF001094FF00F0800270B
:100BF00006E000BF1E600137082F05F1040511D083
:100C000009FA07F60E42F6D008FA05F324EA0303C0
:100C10000CFA05F41C43282A5346EBD0482AEAD1A3
:100C20007346E7E70460B1F5807F38BFBDE8F08721
:100C3000436800F1100E00F1140900254FF4807A8A
:100C40004FF00F08002705E034600137082F05F149
:100C5000040512D00AFA07F404EA0106A642F4D108
:100C600008FA05F6B3430CFA05F63343282A4E4634
:100C7000EAD0482AE9D17646E6E74360BDE8F08746
:100C8000B0B50422C4F20102134602F1180E002886
:100C900048BF73461C6800F44013B3F5401F1FFAA9
:100CA00080FC06D1156824F0706325F07064146030
:100CB00015E0C3020AD46FF00F0303EA50430CFAA5
:100CC00003F324EA030343F0706308E0C0F3034333
:100CD000032505FA03F324EA030343F070636FF07E
:100CE0000F0404EA504400290CFA04F518BF2B4302
:100CF000002848BF72461360B0BD000080680840FD
:100D000018BF012070470000016170471023002ABE
:100D100008BF1423C1507047FEE7000010B582B031
:100D20000420012101F0E4FD41F6000040F600043A
:100D3000C1F20340C4F20104019001A92046FFF76B
:100D40003FFF20464FF4C051FFF7DEFF02B010BD59
:100D5000B0B540F60004C4F2010420464FF48051BF
:100D60000122FFF7D3FF0A20FFF718FF20464FF4B8
:100D700000610122FFF7CAFF0A20FFF70FFF20469C
:100D80004FF48051FFF7BAFF05460A20FFF706FF30
:100D900020464FF400610022FFF7B8FF0A20FFF75A
:100DA000FDFE2846B0BD00002DE9F04140F60004EC
:100DB0000026C4F201044FF08008002720464FF4BB
:100DC00000610122FFF7A2FF0A20FFF7E7FE20469D
:100DD0004FF48051FFF792FF05460A20FFF7DEFE31
:100DE00028FA06F0002D18BF074320464FF4006193
:100DF0000022FFF78BFF0A20FFF7D0FE0136082EF6
:100E0000DCD1F8B2BDE8F08110B540F60004C4F2C0
:100E10000104024620464FF48051FFF777FF0A2075
:100E2000FFF7BCFE20464FF400610122FFF76EFF82
:100E30000A20FFF7B3FE20464FF400610022FFF7BF
:100E400065FF0A20BDE81040FFF7A8BEF0B581B0ED
:100E500040F6000504460026C4F20105802700BFC5
:100E600027FA06F000EA040228464FF48051FFF703
:100E70004DFF0A20FFF792FE28464FF40061012241
:100E8000FFF744FF0A20FFF789FE28464FF4006170
:100E90000022FFF73BFF0A20FFF780FE0136082EF5
:100EA000DED101B0F0BD000010B540F60004C4F280
:100EB000010420464FF480510122FFF727FF0A204A
:100EC000FFF76CFE20464FF400610122FFF71EFF82
:100ED0000A20FFF763FE20464FF480510022FFF7FF
:100EE00015FF0A20FFF75AFE20464FF4006100224A
:100EF000FFF70CFF0A20BDE81040FFF74FBE0000CF
:100F000010B540F60004C4F2010420464FF48051AD
:100F10000022FFF7FBFE0A20FFF740FE20464FF4B9
:100F200000610122FFF7F2FE0A20FFF737FE20469C
:100F30004FF480510122FFF7E9FE0A20BDE810407E
:100F4000FFF72CBEB0B582B001F096FF1C20012146
:100F500001F0CEFC48F2F21040F60004C4F60300A3
:100F6000C4F2010401AD019020462946FFF728FE96
:100F70004FF4E050ADF8040004F580602946FFF717
:100F80001FFE4FF40050ADF8040004F50060294640
:100F9000FFF716FE02B0B0BDB0B540F60004C4F2D3
:100FA000010404F500604FF40051FFF7A7FEE8B319
:100FB00020464FF40041FFF7A1FEC8B320460221AE
:100FC000FFF79CFEB0B304F5806528464FF48051CE
:100FD000FFF794FE80B320462021FFF78FFE68B311
:100FE00020461021FFF78AFE50B320464021FFF72C
:100FF00085FE38B320468021FFF780FE20B32846C7
:101000004FF48061FFF77AFE00B320464FF4807101
:10101000FFF774FEE0B128464FF40061FFF76EFE63
:101020006FF00701002808BF032112E0092110E03A
:101030000A210EE00B210CE00C210AE00D2108E052
:101040000E2106E00F2104E0002102E0012100E072
:10105000022101F00F004FF60F61C140C90708BF20
:10106000B0BD04A1085C40F2F971C2F20001087041
:10107000B0BD00BF08090A0B010101010101020313
:101080000405060780B500F007F840F2F871C2F2D7
:101090000001087080BD000070B540F60004C4F285
:1010A000010404F5006528464FF40051FFF726FEC1
:1010B00008B1002615E01420FFF752FD28464FF432
:1010C0000051FFF71BFE08B1002603E01420FFF7D4
:1010D00047FD012628464FF40051FFF70FFE002878
:1010E000F8D0002E1CBF012070BD20464FF40041F7
:1010F000FFF704FE08B1002515E01420FFF730FDCE
:1011000020464FF40041FFF7F9FD08B1002503E048
:101110001420FFF725FD012520464FF40041FFF77D
:10112000EDFD0028F8D0002D1CBF022070BD204628
:101130000221FFF7E3FD08B1002513E01420FFF7BB
:101140000FFD20460221FFF7D9FD08B1002503E07D
:101150001420FFF705FD012520460221FFF7CEFDF3
:101160000028F9D0002D1CBF032070BD04F5806558
:1011700028464FF48051FFF7C1FD08B1002616E064
:101180001420FFF7EDFC28464FF48051FFF7B6FD21
:1011900008B1002604E01420FFF7E2FC012600BF9E
:1011A00028464FF48051FFF7A9FD0028F8D0002E03
:1011B0001CBF042070BD20462021FFF79FFD08B111
:1011C000002613E01420FFF7CBFC20462021FFF778
:1011D00095FD08B1002603E01420FFF7C1FC0126AD
:1011E00020462021FFF78AFD0028F9D0002E1CBFE1
:1011F000052070BD20461021FFF780FD08B10026B4
:1012000014E01420FFF7ACFC20461021FFF776FD18
:1012100008B1002604E01420FFF7A2FC012600BF5D
:1012200020461021FFF76AFD0028F9D0002E1CBFD0
:10123000062070BD2046402100F02AF8012804BF96
:10124000072070BD2046802100F022F8012804BF4D
:10125000082070BD28464FF4806100F019F801287D
:1012600004BF092070BD20464FF4807100F010F8D3
:10127000012804BF0A2070BD28464FF4006100F029
:1012800007F801460020012908BF0B2070BD0000AF
:1012900070B50C460546FFF731FD00281CBF002045
:1012A00070BD1420FFF75CFC28462146FFF726FDA1
:1012B00008B1002604E01420FFF752FC012600BF0D
:1012C00028462146FFF71AFD0028F9D0304670BDA8
:1012D00080B584B043F22001C0F2200100910021CA
:1012E0000391CDE90111411E45F64B12C9B20A29FD
:1012F000ADF800209EBF6A461144887030208DF8FA
:101300000F0000F087FE684600F014FF202809D186
:1013100040F60C40C4F20100016881F00801016050
:1013200004B080BD02A002F065FC04B080BD00BF27
:10133000524F434B45522053656E64206661696C81
:10134000656420210000000070B582B018200121E2
:1013500001F0CEFA41F200040820C4F20104C1F207
:101360000300A4F5806501AE019028463146FFF7E1
:1013700027FC4FF44040ADF8040020463146FFF70B
:101380001FFC28460821FFF7BFFC20464FF4804190
:10139000FFF7BAFC20464FF40041FFF7B5FC02B05E
:1013A00070BD000070B50446FFF77EFDD020FFF74A
:1013B0004DFDFFF7CDFC3B20FFF748FDFFF7C8FCD4
:1013C000FFF772FDD120FFF741FDFFF7C1FCFFF7EA
:1013D000EBFC05460120FFF717FDFFF791FD280202
:1013E0002080FFF761FDD020FFF730FDFFF7B0FC54
:1013F0003C20FFF72BFDFFF7ABFCFFF755FDD1209D
:10140000FFF724FDFFF7A4FCFFF7CEFC0546012003
:10141000FFF7FAFCFFF774FD208828432080FFF7D0
:1014200043FDD020FFF712FDFFF792FC3D20FFF7B0
:101430000DFDFFF78DFCFFF737FDD120FFF706FD0F
:10144000FFF786FCFFF7B0FC05460120FFF7DCFC48
:10145000FFF756FD28026080FFF726FDD020FFF73A
:10146000F5FCFFF775FC3E20FFF7F0FCFFF770FC82
:10147000FFF71AFDD120FFF7E9FCFFF769FCFFF742
:1014800093FC05460120FFF7BFFCFFF739FD60889C
:1014900028436080FFF708FDD020FFF7D7FCFFF757
:1014A00057FC3F20FFF7D2FCFFF752FCFFF7FCFC94
:1014B000D120FFF7CBFCFFF74BFCFFF775FC05468F
:1014C0000120FFF7A1FCFFF71BFD2802A080FFF71A
:1014D000EBFCD020FFF7BAFCFFF73AFC4020FFF707
:1014E000B5FCFFF735FCFFF7DFFCD120FFF7AEFCC2
:1014F000FFF72EFCFFF758FC05460120FFF784FCA0
:10150000FFF7FEFCA0882843A080FFF7CDFCD02089
:10151000FFF79CFCFFF71CFC4320FFF797FCFFF74D
:1015200017FCFFF7C1FCD120FFF790FCFFF710FC80
:10153000FFF73AFC05460120FFF766FCFFF7E0FCE9
:101540002802E080FFF7B0FCD020FFF77FFCFFF718
:10155000FFFB4420FFF77AFCFFF7FAFBFFF7A4FC40
:10156000D120FFF773FCFFF7F3FBFFF71DFC0546E7
:101570000120FFF749FCFFF7C3FCE0882843E08027
:10158000FFF792FCD020FFF761FCFFF7E1FB45205D
:10159000FFF75CFCFFF7DCFBFFF786FCD120FFF7D1
:1015A00055FCFFF7D5FBFFF7FFFB05460120FFF7D2
:1015B0002BFCFFF7A5FC28022081FFF775FCD0204B
:1015C000FFF744FCFFF7C4FB4620FFF73FFCFFF7A3
:1015D000BFFBFFF769FCD120FFF738FCFFF7B8FB32
:1015E000FFF7E2FB05460120FFF70EFCFFF788FC42
:1015F000208928432081FFF757FCD020FFF726FCE5
:10160000FFF7A6FB4720FFF721FCFFF7A1FBFFF741
:101610004BFCD120FFF71AFCFFF79AFBFFF7C4FB46
:1016200005460120FFF7F0FBFFF76AFC2802608106
:10163000FFF73AFCD020FFF709FCFFF789FB4820B1
:10164000FFF704FCFFF784FBFFF72EFCD120FFF728
:10165000FDFBFFF77DFBFFF7A7FB05460120FFF72A
:10166000D3FBFFF74DFC608928436081FFF71CFC2A
:10167000D020FFF7EBFBFFF76BFB4120FFF7E6FB0A
:10168000FFF766FBFFF710FCD120FFF7DFFBFFF74A
:101690005FFBFFF789FB05460120FFF7B5FBFFF76E
:1016A0002FFCFFF701FCD020FFF7D0FBFFF750FB2A
:1016B0004220FFF7CBFBFFF74BFBFFF7F5FBD120F9
:1016C000FFF7C4FBFFF744FBFFF76EFB0646012064
:1016D000FFF79AFBFFF714FC46EA052000B2FEF77D
:1016E00019FF44F20003C4F275030022FEF7A3FEC3
:1016F00047F2A40244F2D733C0F63D22C4F24203BB
:10170000FEF780FDFEF751FFE06070BD80B5FFF78A
:1017100005FBFFF7C9FBD020FFF798FBFFF718FB8D
:101720006B20FFF793FBFFF713FB0120FFF78EFB06
:10173000FFF70EFBFFF7E4FBFFF7B6FBD020FFF748
:1017400085FBFFF705FB6C20FFF780FBFFF700FB35
:101750000020FFF77BFBFFF7FBFAFFF7D1FBFFF75A
:10176000A3FBD020FFF772FBFFF7F2FA1920FFF777
:101770006DFBFFF7EDFA0720FFF768FBFFF7E8FACC
:10178000FFF7BEFBFFF790FBD020FFF75FFBFFF7F3
:10179000DFFA1A20FFF75AFBFFF7DAFA0620FFF705
:1017A00055FBFFF7D5FAFFF7ABFBFFF77DFBD0202A
:1017B000FFF74CFBFFF7CCFA1B20FFF747FBFFF7C7
:1017C000C7FA1820FFF742FBFFF7C2FAFFF798FBB2
:1017D000FFF76AFBD020FFF739FBFFF7B9FA1C20AF
:1017E000FFF734FBFFF7B4FA1820FFF72FFBFFF7E2
:1017F000AFFABDE88040FFF783BB0000F0B585B0CD
:101800002B4800902AA000F1040C9CE80E1001A8BF
:101810000EC040F2FC70C2F200000068CDF810C0AB
:10182000FEF796FE42F22834642500FB054046F29E
:10183000B706CBF20B6680FB0612111840F60C00BF
:10184000C2F200000068CA0902EBD177FEF780FE01
:1018500000FB05408DF8037080FB06121044C1099F
:1018600001EBD07045F24721ADF8001050218DF802
:10187000021052218DF8050030208DF804108DF8EB
:10188000060000F0C7FB684600F054FC202809D190
:1018900040F60C40C4F20100016881F008010160CB
:1018A00005B0F0BD07A002F0A5F905B0F0BD00BF7E
:1018B00030000000000000000000000000000000F8
:1018C00000000000524F434B45522053656E642088
:1018D0006661696C6564202100000000FEE700007D
:1018E0002DE9F04786B001F0F1F840F2E474C2F25D
:1018F0000004207800F0A2FD40F2FA75C2F2000563
:10190000287803280DD120780130207000F0AAFC3F
:10191000207800F093FD00BF01F0D8F82878042863
:10192000FAD1287802280CD120780138207000F0F4
:1019300099FC207800F082FD01F0C8F8287804288E
:10194000FAD12078082824BF0720207020780028AA
:1019500004BF012020702178481E05284AD8DFE8FE
:1019600010F00600AF0021016901C701050240F235
:10197000F870C2F200000078092840F03A8200F0C6
:1019800071FC0FF2E0420120012100F055FE40F20F
:101990006437C2F20007282002215822082300974A
:1019A00000F07CFC40F2E57440F60007C2F200044F
:1019B00045F64C16C2F2000700F02CFB268000BF53
:1019C000204600F0B7FB2028FAD001F07FF82878F5
:1019D0000228F1D138780228EED100F01BFB45F245
:1019E0005340C5F24F002060204600F0A3FB2028A2
:1019F000FAD0FCE1072940F0FC8140F2F870C2F215
:101A000000000078092840F0F48100F02BFC0FF270
:101A100068420120012100F00FFE40F22417C2F2BB
:101A200000072820022158220823009700F036FCE6
:101A300040F2F47640F6000740F2E574C2F2000688
:101A4000C2F20007C2F2000444F657480FF23849C8
:101A500001F03CF8287803280ED130780130C1B26B
:101A6000083918BF0146317001F030F82878022893
:101A7000FAD138780228F7D100F0CCFA96F90000B4
:101A8000A4F8008007289CBF19F80000A07000BFD0
:101A9000204600F04FFB2028FAD028780228D7D122
:101AA00038780228D4D100F0B5FA45F25340C5F297
:101AB0004F002060204600F03DFB2028FAD096E140
:101AC00040F2F876C2F200063078092840F09181A1
:101AD00000F0C8FBD8A20120012100F0ADFD0DF1FE
:101AE00008080FF264390FF2643AD9A7D9A4DAA52D
:101AF000FFF7D2FA307000F057FF404600F0A8FF21
:101B0000022001214A4600F097FD02200921524699
:101B100000F092FD032001213A4600F08DFD0320E4
:101B20000921224600F088FD042001212A4600F008
:101B300083FDBDF80C2002200421032300F0FEFCED
:101B4000BDF8082002200C21032300F0F7FCBDF8AB
:101B50000E2003200421032300F0F0FCBDF80A202E
:101B600003200C21032300F0E9FC0498FEF709FD93
:101B7000024604200A21032300F0E0FC3078052807
:101B8000B6D100F047FA40F2E57445F25340C2F294
:101B90000004C5F24F002060204600F0CBFA202858
:101BA000FAD024E140F2F876C2F200063078092833
:101BB00040F01F8100F056FB9BA20120012100F0A4
:101BC0003BFD40F28447C2F2000728200221582240
:101BD0000823009700F062FB40F2E57440F600082D
:101BE000C2F2000445F24D07C2F2000800F012FAFA
:101BF000278000BF204600F09DFA2028FAD000F090
:101C000065FFFFF749FA3070FFF762FB287802287A
:101C1000ECD198F800000228E8D100F0FBF945F279
:101C20005340C5F24F002060204600F083FA202880
:101C3000FAD0DCE040F2F870C2F200000078092827
:101C400040F0D78000F00EFB73A20120012100F0CC
:101C5000F3FC40F6000602ACC2F2000600F036FFCC
:101C600000F0A2FEFFF7CAFD2046FFF79BFBBDF97F
:101C7000082002200121052300F09AFCBDF90A206A
:101C800003200121052300F093FCBDF90C20042062
:101C90000121052300F08CFCBDF90E200220092152
:101CA000052300F085FCBDF9102003200921052340
:101CB00000F07EFCBDF9122004200921052300F06C
:101CC00077FC28780228C9D130780228C6D100F0E4
:101CD000A1F940F2E57445F25340C2F20004C5F2A6
:101CE0004F002060204600F025FA2028FAD07EE040
:101CF00040F2F874C2F200042078092879D100F08B
:101D0000B1FA41A20120012100F096FC40F24427E3
:101D1000C2F200072820022158220823009700F071
:101D2000BDFA40F60006C2F2000600BFFFF7B4F9A4
:101D3000207000F0CBFE2078FFF7CAFA287802283E
:101D4000F4D130780228F1D100F064F940F2E57462
:101D500045F25340C2F20004C5F24F00206000BFBC
:101D6000204600F0E7F92028FAD040E040F2F87071
:101D7000C2F20000007809283BD100F073FA1EA2DD
:101D80000120012100F058FC40F20407C2F20007D4
:101D90002820022158220823009700F07FFA40F201
:101DA000E57440F60007C2F2000445F64226C2F28E
:101DB000000700BF00F02EF9268000BF204600F08B
:101DC000B9F92028FAD000F081FE28780228F1D154
:101DD00038780228EED100F01DF945F25340C5F2E3
:101DE0004F002060204600F0A5F92028FAD000F02E
:101DF00039FA06B0BDE8F08720202041564F49440B
:101E0000206D6F64652021002020204B4559206DF6
:101E10006F64652021000000204752415649545903
:101E2000206D6F64652021004D503320504C415986
:101E3000206D6F64652021002020526F636B6572F6
:101E4000206D6F64652021004C583A0052583A00CA
:101E50004C593A0052593A00426174746572793AA9
:101E600000000000426C7565746F6F7468206D6FC0
:101E700064652021000000002057533238313220A1
:101E80006D6F64652021000041455457524742431D
:101E90007047000070B584B06FF03D008DF80C0005
:101EA0004FF0C2300290002500208DF804500095BC
:101EB00000F030FF302000F07BF802AC605D0135AF
:101EC00000F076F8052DF9D1012000F023FF002065
:101ED000002600F01FFF102000F06AF86D4600BFDA
:101EE000FF2000F065F8A8550136052EF8D1012035
:101EF00000F010FF002000BF215C2A5C914204D159
:101F0000042800F10100F7D305200538B0FA80F06D
:101F1000400904B070BD000010B5FFF7BBFF78B9F1
:101F20000BA400BF204601F0E5F90A2001F05CFE99
:101F30004FF47A70FEF714FEFFF7ACFF0028F1D0E3
:101F400009A001F0D7F90A20BDE8104001F04CBE0D
:101F50004E524632344C30315F436865636B2066C5
:101F600061696C65642021004E524632344C303138
:101F70005F436865636B20737563636565642021E7
:101F80000000000080B582B00820012100F0B0FC04
:101F900040F24010C1F20300019040F60040C4F24C
:101FA000010001A9FEF70CFE00F08AFE02B080BD20
:101FB0002DE9F04381B040F6004581460026C4F289
:101FC00001054FF08008002728FA06F404EA090208
:101FD00028464FF40041FEF799FE28464FF4005181
:101FE0000122FEF793FE28464FF48041FEF786FE5D
:101FF000012828464FF400514FF0000208BF274344
:10200000FEF784FE0136082EDED1F8B201B0BDE83D
:10201000F083000070B540F60044C4F2010420468D
:1020200040210022FEF772FE002000F073FE3020F7
:10203000FFF7BEFF40F2EF70C2F20000451E05261A
:1020400015F8010FFFF7B4FF013EF9D1012000F0B0
:1020500061FE002000F05EFE2A20FFF7A9FF40F29B
:10206000EA70C2F20000451E052600BF15F8010FF8
:10207000FFF79EFF013EF9D1012000F04BFE00204A
:1020800000F048FE2120FFF793FF0120FFF790FFAB
:10209000012000F03FFE002000F03CFE2220FFF770
:1020A00087FF0120FFF784FF012000F033FE0020AE
:1020B00000F030FE2420FFF77BFF1A20FFF778FFA7
:1020C000012000F027FE002000F024FE2520FFF76D
:1020D0006FFF1920FFF76CFF012000F01BFE0020AE
:1020E00000F018FE2620FFF763FF0F20FFF760FFC8
:1020F000012000F00FFE002000F00CFE2020FFF772
:1021000057FF0E20FFF754FF012000F003FE0020D0
:1021100000F000FE2720FFF74BFFFF20FFF748FFEE
:10212000012000F0F7FD204640210122BDE870406B
:10213000FEF7ECBD70B540F60044C4F2010405465C
:102140002046402100220026FEF7E0FD002000F09E
:10215000E1FDA020FFF72CFF013D00BF15F8010FA6
:10216000FFF726FF132E06F10106F7D3012000F03A
:10217000D1FD204640210122FEF7C8FD20464FF444
:102180008071FEF7BBFD0028F8D1002000F0C2FDF1
:102190000720FFF70DFFFF20FFF70AFF044601208D
:1021A00000F0B8FD002000F0B5FD2720FFF700FF8C
:1021B0002046FFF7FDFE012000F0ACFDE00607D44D
:1021C000A0064FF0200058BF4FF0FF30C0B270BDE6
:1021D000002000F09FFDE120FFF7EAFEFF20FFF75F
:1021E000E7FE012000F096FD1020C0B270BD000097
:1021F00010B5C17800294EF20011CEF200011AD0BC
:102200004EF60C52CEF200021268072323EA122285
:102210000F23C2F1040C23FA02F24378847890F879
:1022200000E003FA0CF322401A43120101EB0E0303
:1022300083F8002300E080310078012300F01F02C2
:1022400003FA02F2C0F3421041F8202010BD000052
:1022500040F080604EF60C5140F0FD70CEF200016F
:1022600008607047B0B5002444F0B000C0B200F080
:10227000F9F9102000F0F6F90020002500F0F2F93D
:10228000002000F07DFA681C45B2B5F1FF3FF7DC95
:10229000E0B20134072828BFB0BDE5E72DE9F04FD3
:1022A00083B09942CDE9013234D20746000900F1EA
:1022B000100A02980C9D0E4607F00F04C01B4FF049
:1022C0000008009007E000BFC34601360199F0B254
:1022D0008842D8461ED246F0B000C0B200F0C2F923
:1022E000504600F0BFF9204600F0BCF90298B84211
:1022F000EAD9009800EB080915F8080008F1010B6D
:1023000000F03EFA5FFA8BF05FFA89F18142D8461D
:10231000F2D1DAE703B0BDE8F08F0000B0B582B0CB
:102320000820012100F0E4FA0120012100F0E0FA88
:1023300040F20020C0F230000121FEF7A1FC202075
:1023400040F60044C1F20340C4F2010401AD019023
:1023500020462946FEF734FC1020ADF80400204644
:102360002946FEF72DFC204620210122FEF7CEFC57
:10237000204610210122FEF7C9FCAE2000F072F9C0
:10238000D52000F06FF9802000F06CF9A82000F053
:1023900069F93F2000F066F9D32000F063F90020CE
:1023A000002400F05FF9402000F05CF9A12000F06B
:1023B00059F9C82000F056F9DA2000F053F912203C
:1023C00000F050F9812000F04DF9CF2000F04AF9DB
:1023D000D92000F047F9F12000F044F9DB2000F0AB
:1023E00041F9302000F03EF9A42000F03BF9A6208E
:1023F00000F038F98D2000F035F9142000F032F9A2
:10240000AF2000F02FF900BF44F0B000C0B200F0E0
:1024100029F9102000F026F90020002500F022F90B
:10242000002000F0ADF9681C45B2B5F1FF3FF7DCC4
:10243000E0B201340728E7D302B0B0BD0138C1B221
:10244000062988BF704710B582B040B209A151F883
:1024500020200FA151F820400120012100F0ECF8CC
:1024600028200221582208230094FFF717FF02B00A
:1024700010BD00BF7C4200084C4200085C420008CE
:102480006C4200081C4200082C4200083C42000834
:1024900064030020A405002084040020C40600205A
:1024A0004402002004000020240100202DE9F04314
:1024B00081B016467E224FEA400802EB40006FF0E2
:1024C000070240F0B00002EBC104C0B2E5B200F078
:1024D000C9F8280900F11009484600F0C3F804F0D3
:1024E0000805284600F0BEF843F62C40C0F6000070
:1024F00000EB0616A6F20127082400BF17F8010F0B
:1025000000F03EF9013CF9D1A8F1010040F0B00023
:10251000C0B200F0A7F8484600F0A4F8284600F042
:10252000A1F8A6F2F914082514F8010F00F028F913
:10253000013DF9D101B0BDE8F08300002DE9F0477D
:10254000002B08BFBDE8F0874CF6CD4A1C469046EC
:10255000894607465D420026CCF6CC4A18E000BF0B
:102560000120B8FBF0F0A0FB0A12D20802EB8202B5
:10257000A0EB420006EB090140F03000C2B2C9B244
:102580003846FFF793FF0136A64205F101050DD04D
:10259000F0430019E4D00120294600BF00EB800081
:1025A00001314A1C4FEA4000F8D1DAE7BDE8F08774
:1025B0002DE9F0471C4691468846002A074603D479
:1025C0002B22FFF773FF04E02D22FFF76FFFC9F105
:1025D0000009002C08BFBDE8F0874CF6CD4A6642E2
:1025E0000025CCF6CC4A17E00120B9FBF0F001350C
:1025F000A0FB0A12D20802EB8202A0EB420005EB1C
:10260000080140F03000C2B2C9B23846FFF74EFFB1
:10261000A54206F101060DD0E8430019E4D00120DF
:10262000314600BF00EB800001314A1C4FEA4000F8
:10263000F8D1DAE7BDE8F087F0B581B0144612783A
:102640006AB10D46064600277819C1B2D2B23046AB
:10265000FFF72CFF0137F8B2225C002AF4D101B059
:10266000F0BD0000F0B581B040F60044C4F20104B2
:102670000546204610210122FEF748FB2046202176
:102680000122FEF743FB2046102100220026FEF720
:102690003DFB204620210022FEF738FB802700BFAB
:1026A00027FA06F000F0780220461021FEF72EFBF4
:1026B000204620210122FEF729FB2046202100226E
:1026C000FEF724FB0136082EEAD120462021012204
:1026D000FEF71CFB204620210022FEF717FB0826F0
:1026E000204610210022FEF711FB20462021012266
:1026F000FEF70CFB204620210022FEF707FB013EDF
:10270000EED1204620210122FEF700FB20462021A9
:1027100000220026FEF7FAFA802700BF27FA06F00B
:1027200000EA050220461021FEF7F0FA204620219B
:102730000122FEF7EBFA204620210022FEF7E6FAFE
:102740000136082EEAD1204620210122FEF7DEFACA
:10275000204620210022FEF7D9FA2046102100222F
:10276000FEF7D4FA204620210122FEF7CFFA2046B8
:102770001021012201B0BDE8F040FEF7C7BA000009
:10278000F0B581B040F60044C4F20104054620468D
:1027900010210122FEF7BAFA204620210122FEF77D
:1027A000B5FA2046102100220026FEF7AFFA204697
:1027B00020210022FEF7AAFA802700BF27FA06F0A0
:1027C00000F0780220461021FEF7A0FA20462021D2
:1027D0000122FEF79BFA204620210022FEF796FAFE
:1027E0000136082EEAD1204620210122FEF78EFA7A
:1027F0002046202100220026FEF788FA802700BF0D
:1028000027FA06F000F0400220461021FEF77EFA7B
:10281000204620210122FEF779FA204620210022BD
:10282000FEF774FA0136082EEAD120462021012253
:10283000FEF76CFA2046202100220026FEF766FAF9
:10284000802700BF27FA06F000EA05022046102183
:10285000FEF75CFA204620210122FEF757FA2046B7
:1028600020210022FEF752FA0136082EEAD1204636
:1028700020210122FEF74AFA204620210022FEF7FD
:1028800045FA204610210022FEF740FA204620217A
:102890000122FEF73BFA20461021012201B0BDE8DB
:1028A000F040FEF733BA00007047000041F2040127
:1028B000C4F202010A6822F44042104308607047E3
:1028C000002941F21401C4F202010A680CBF22EA95
:1028D0000000104308607047002941F21C01C4F257
:1028E00002010A680CBF22EA00001043086070472A
:1028F000002941F21801C4F202010A680CBF22EA61
:10290000000010430860704710B541F20404C4F29F
:102910000204226802F00C02082A41F20022C0F2EE
:102920007A021CD12368D4F800C0C3F3834E5FEA57
:10293000CC330EF1020C06D440F60012C0F23D0278
:102940000CFB02F20BE023689B0302D40CFB02F2A7
:1029500005E040F60012C0F23D020CFB02F20260FC
:10296000226843F61C43C2F30312C0F600039A5CCC
:102970000168D14041602268C2F302229A5C21FAC8
:1029800002F282602268C2F3C2229A5C43F61843C4
:10299000D140C1602268C0F60003C2F381329A5C64
:1029A000B1FBF2F1016110BD80B584B00021CDE929
:1029B000021140F60201C2F200018A8864235A43E0
:1029C000C8884FEA123E0A88498858434FF0300CB5
:1029D000000B5A43594345F65213CDF804C0120B6D
:1029E000090BADF8043058238DF8080045F64C105B
:1029F0008DF806E08DF80730ADF809008DF80B2052
:102A00008DF80C308DF80D108DF80EC0FFF702FB1D
:102A100001A8FFF78FFB202809D140F60C40C4F233
:102A20000100016881F00801016004B080BD02A0CE
:102A300001F0E0F804B080BD524F434B45522053A3
:102A4000656E64206661696C656420210000000089
:102A500010B5044640F60200C2F2000081886422EC
:102A60005143090B6180C1885143090B21800188C2
:102A700043885143090BE18003FB02F1090BA1805C
:102A80000089FDF758FD46F26663C4F20A034FF071
:102A90006632FDF75EFC0023C3F630730022FDF7BB
:102AA00058FCFDF782FD0021C4F24001FDF73AFB1E
:102AB0004CF6CD41C4F26C01FDF766FB0021C4F277
:102AC000C821FDF72FFBA06010BD000080B540F6C7
:102AD0000201C2F200018888642358430A884FEA41
:102AE000103EC88849885A4358434FEA123C59431C
:102AF0006FF04A02090BBEF1640F02EB103304D3EE
:102B0000000B1A2801D3182B14D80020192B38BF1A
:102B10000120BEF11A02AEF14B0338BF0220192B7F
:102B200038BF0320312A40F60002C2F2000238BF4B
:102B300004201070BCF1640FA1F14B0228BF1A29C8
:102B400002D3182A88BF80BD0020192A38BF01206F
:102B5000BCF11A01ACF14B0238BF0220192A38BF70
:102B60000320312940F2FA71C2F2000138BF04207B
:102B7000087080BDF0B58BB042F200440C200121FA
:102B8000C4F20104FFF7B4FE0D206D46ADF800005D
:102B90000026A4F5E05029468DF80360FEF710F8F2
:102BA0000320ADF80000A4F5C05029468DF803605D
:102BB000FEF706F80825C4F202052846FDF724FFB3
:102BC00001200121FFF77CFE42F24C40C4F20100DB
:102BD000009040F60200C2F20000CDE9010680201C
:102BE00005904FF4807006904FF48060079020208D
:102BF00008904FF400500527CDE90906694628469C
:102C0000CDE90376FDF786FF28460121FDF7F0FEAA
:102C10004FF400700121FFF76BFE4FF4602002902B
:102C200040F20110ADF80400694620460396009674
:102C30008DF81070FDF76AFE4FF44040FFF736FE46
:102C40002046022101220723FDF78AFE20460321A8
:102C500002220723FDF784FE2046082103220723D2
:102C6000FDF77EFE2046092104220723FDF778FEAA
:102C70002046002105220723FDF772FE2046012190
:102C8000FDF732FE20460121FDF726FE1E20FDF74E
:102C900085FF2046FDF794FE2046FDF733FE002811
:102CA000FAD12046FDF79CFE2046FDF727FE0028BE
:102CB000FAD120460121FDF789FE0BB0F0BD0000DE
:102CC000B0B582B008200121FFF712FE4AF2800061
:102CD00040F60044C1F20300C4F2010401AD0190CA
:102CE00020462946FDF76CFF44F20000C4F60300BD
:102CF000019020462946FDF763FF204680210122EE
:102D0000FEF704F820464FF400510022FDF7FEFFC5
:102D100002B0B0BD024640F60040C4F2010080217E
:102D2000FDF7F4BF704700007047000082B041F229
:102D30000400C4F2020050F8041C002241F001011A
:102D400040F8041C0168CFF6FF021140016050F802
:102D5000041C4FF6FF72CFF6F662114040F8041CD7
:102D600050F8041C21F4802140F8041C016821F46F
:102D7000FE0101604FF41F014160002101910091AB
:102D800050F8041C41F4803140F8041C50F8041C35
:102D900001F400310091019901310191009919B9B3
:102DA0000199B1F5A06FF1D150F8041C890354BF0B
:102DB0000021012100910099012936D142F2000140
:102DC000C4F202010A6842F010020A600A6822F0A6
:102DD00003020A600A6842F002020A6001680160A8
:102DE00001680160016841F480610160016821F4BB
:102DF0007C110160016841F4E811016050F8041C85
:102E000041F0807140F8041C50F8041C8901FBD586
:102E1000016821F003010160016841F002010160D5
:102E2000016801F00C010829FAD14EF60850CEF2E3
:102E300000004FF00061016002B0704780B54FF0B4
:102E40008040012100F060F8012818BF80BD40F6E5
:102E50001000C2F2000001780131CAB2142A0170D8
:102E600003D300210170FEF797F84FF08040012155
:102E7000BDE8804000F03AB880B584B0012001215F
:102E8000FFF72AFD4FF0804000F052F840F2E730A3
:102E9000019040F21B20009000208DF80800694648
:102EA0004FF0804000F04AF84FF08040012100F0E0
:102EB00019F84FF080400121012200F031F84FF065
:102EC0008040012100F016F84FF4A060FFF7C0F930
:102ED00040F21C10C0F20210039003A8FFF788F91B
:102EE00004B080BDC943018270470000C94301821C
:102EF000704700000288002918BF012122F001025A
:102F00001144018070470000028A80890A4000EA6B
:102F1000010018BF0122002818BF0120104070478F
:102F2000002A82890CBF22EA010111438181704786
:102F3000018921F0070101817047000040F6FF334D
:102F4000B0F800C0C4F2000398420FDCB0F1804F2B
:102F50001ED040F20043C4F20003984218D040F65D
:102F60000003C4F20003984212D016E040F600437A
:102F7000C4F2000398420BD043F20043C4F20103B1
:102F8000984205D042F60043C4F20103984204D1AE
:102F90004B882CF0700243EA020C41F2004240F4EC
:102FA0008063C4F20002934204D0CA882CF44073B8
:102FB00042EA030CA0F800C08A888285A0F1804212
:102FC000A2F596320B884FEAB222072A038507D86A
:102FD000012303FA02F212F0E50F1CBF097A018601
:102FE000012181827047000010B543F60004C4F24D
:102FF0000104204640F2255100F066F8012818BF70
:1030000010BD204600F0ECF840F61101C2F20001BC
:103010000A78C0B2012A11D0AAB9402834D140F6AA
:103020007700C2F20000007870BB0120087040F603
:103030001200C2F200000021017025E00D2817D116
:103040000220087020E00A281ED10020087040F6F7
:103050001201C2F20001097840F61302C2F2000226
:10306000505440F67700C2F20000012101700BE0DD
:1030700040F61201C2F200010A7840F61303C2F2D0
:1030800000039854501C0870204640F22551BDE8BA
:10309000104000F001B80000090A012202FA01F113
:1030A000C9430180704700008289002918BF0121AF
:1030B00022F4005242EA4131818170470088084081
:1030C00018BF012070470000C1F34212022A06D047
:1030D000012A14BF00F1140200F10C0201E000F11A
:1030E00010021288008801F01F03090ADA40C84064
:1030F000104000F001007047C1F3421301F01F0CB3
:103100001421022B08BF1021012B4FF0010308BF2F
:103110000C21002A03FA0CF243580CBF23EA0202E6
:103120001A4342507047000070B586B00446008ACA
:103130000D46C98820F4405008432082A0894EF6ED
:10314000F3110840A9882A896B8908431043184362
:10315000A081A08AA98920F44070084301AEA08212
:103160003046FFF7D1FB43F6000106F10800C4F238
:1031700001018C4208BF06F10C0000681922B4F965
:103180000C1050432A680123B1F1FF3FC8BF02234E
:1031900002FA03F1B0FBF1F048F21F51C5F2EB1156
:1031A000A0FB01235A096FF0630302FB0300B4F98B
:1031B0000C300326B3F1FF3FC8BF042600FA06F027
:1031C00000F13200A0FB01014FF00700C8BF0F2043
:1031D00000EA511040EA0210208106B070BD0000E4
:1031E00080886FF35F2070476FF35F2181807047A5
:1031F000FEE70000F0B585B0042001210427FFF7A9
:1032000077FB43F6000440F20020C4F20104C1F64B
:103210000300A4F5405501AE019028463146FDF764
:10322000CFFC4FF48060ADF80400284631468DF89D
:103230000770FDF7C5FC4FF480400121FFF758FBF4
:103240004FF41650019000204FF44021ADF81000CB
:10325000CDE9020101A92046FFF766FF204640F2B2
:1032600025510122FFF748FF20460121FFF71CFFEF
:103270004FF4A060FEF7ECFF40F22510C0F2011001
:10328000019001A8FEF7B4FF05B0F0BDB0B543F65C
:10329000000504460A28C4F2010509D128460D217B
:1032A000FFF7A2FF28468021FFF708FF0028F9D08A
:1032B000E1B22846FFF798FF28468021FFF7FEFE7F
:1032C0000028F9D02046B0BDFFF728F8FEF73CF8FB
:1032D000FDF738FEFFF78EFFFFF74CFCFEF716FAFE
:1032E000FEF750FEFEF718FEFDF7CCFEFEF7F8FAEB
:1032F000FAE700000FB4054B10B503A9044A029881
:1033000000F0DAF810BC5DF814FB00008D32000804
:103310000000002002E008C8121F08C1002AFAD1EC
:1033200070477047002001E001C1121F002AFBD145
:10333000704700002DE9FF5F82B00021DDE9043015
:10334000020DDDF840B0034318D044F61050A2F24D
:10335000FF3242431514119801281FD0A5EB0B0032
:10336000401C5FEA000A4FF000064E4FDFF838912C
:10337000B046504615D5CAF1000413E01198012457
:103380004AA3012801D16FEA0B010298119AC0E902
:103390000031C0E9024206B0BDE8F09FCBF1000069
:1033A000DFE704460021404A491842EB0450CDE9CA
:1033B000001012E0E00707D032463B46404649463F
:1033C000FCF7C7FF8046894632463B461046194601
:1033D000FCF7BFFF06460F466410002CEAD1DDE97A
:1033E0000401DDE90023BAF1000F06DAFCF7B1FFB2
:1033F00042464B46FCF7ADFF05E0FDF71CF84246A0
:103400004B46FDF718F804460E460022284BFDF700
:10341000FDF903D84FF0FF30014607E00022254BAD
:1034200020463146FCF7EEFEFDF7D7F9102409E0FF
:10343000002C0ADB0A220023FDF7E9F8039B303257
:103440001A55641E50EA0102F2D1641C039AC4F1B9
:1034500011031444119A012A03D0012208430DD10B
:103460000AE0084304D000204FF0110B119072E7DE
:10347000A3EB0B056D1E0DE05B4504DD4FF0000274
:1034800005F1010504E003DA4FF00002A5F10105A2
:10349000002AECD002981199C0E90231C0E9004538
:1034A00079E70000000014400000F03F3000000009
:1034B0000000F0430000E03F2DE9FF4F95B09B4630
:1034C0008946064600250FE2252877D100242746A5
:1034D000F84A0121059400E0044316F8013F203B1F
:1034E00001FA03F01042F7D130782A2811D06FF09A
:1034F0002F033078A0F13002092A16D8059A44F03B
:10350000020402EB820203EB42021044761C059097
:10351000EFE759F8042B0592002A03DA504244F4ED
:103520000054059044F00204761C30782E2816D101
:1035300016F8010F44F004042A280DD06FF02F0272
:103540003078A0F13003092B09D807EB870302EB91
:103550004303C718761CF3E759F8047B761C3078D0
:103560006C280FD006DC4C2817D068280DD06A28AC
:1035700014D104E0742810D07A280FD10DE044F45F
:1035800000140AE044F4801401E044F4401472781A
:10359000824202D104F58014761C761C30786628AD
:1035A0000BD013DC582877D009DC002875D04528CB
:1035B000F6D04628F4D047281AD19DE118E06328B8
:1035C00035D0642879D0652812D195E1702873D060
:1035D00008DC6728F1D069286FD06E280DD06F28DD
:1035E00006D1B5E073282CD0752875D0782874D012
:1035F0005A46179990476D1C75E1C4F30250022892
:1036000009D003280DD0D9F8001004280DD00D6082
:1036100009F1040967E1D9F80010EA17C1E900527D
:10362000F6E7D9F800100D80F2E70D70F0E719F811
:10363000041B8DF8001000208DF80100EA460120DF
:1036400003E059F804AB4FF0FF3061074FF0000181
:1036500002D40DE008F101018846B9420FDA804535
:10366000F8DB1AF808100029F4D108E008F101018C
:1036700088468142FADB1AF808100029F6D105982D
:103680005B46A0EB080721463846179A00F094FAEB
:10369000284400EB080507E04DE029E10DE01AF8A9
:1036A000010B5A4617999047B8F10108F7D25B46CB
:1036B00021463846179A13E142E00A220092C4F3E9
:1036C00002524FF0000A022A08D059F804CB032A0C
:1036D0004FEAEC710AD00DE029E02AE009F1070178
:1036E00021F00702F2E802C1914609E00FFA8CFCD2
:1036F0004FEAEC71042A03D14FFA8CFC4FEAEC71CB
:10370000002907DA0A460021DCF1000C61EB020116
:103710002D2202E0220504D52B228DF8042001225F
:1037200003E0E20701D02022F7E7904659E00A21A2
:1037300002E010220DE010214FF0000A00910BE092
:1037400010224FF0000A44F004040827009203E01E
:1037500008224FF0000A0092C4F30252022A05D058
:1037600059F804CB0021032A08D009E009F1070128
:1037700021F00702F2E802C1914605E01FFA8CFC35
:10378000042A01D10CF0FF0C4FF00008220728D5C5
:10379000702806D0009B83F0100353EA0A0305D07B
:1037A0000EE040228DF80420012208E05CEA0102CC
:1037B00006D030228DF804208DF8050002229046B4
:1037C000009B83F0080353EA0A030AD15CEA010272
:1037D00001D1620705D530228DF804204FF0010891
:1037E0007F1E582804D034A003900EA802900DE04C
:1037F00036A0F9E753466046009AFCF708FF844676
:103800000398825C0298401E029002705CEA0100FC
:10381000F0D1029806A9081A00F1200A600702D523
:1038200024F4803400E00127574502DDA7EB0A00AD
:1038300000E0002000EB0A01009005984144401A86
:103840000590E00306D45B462146179A059800F0E0
:10385000B3F90544002706E001A85A46C05D179950
:1038600090476D1C7F1C4745F6DBE0030CD55B469B
:103870002146179A059800F09FF9054404E030208E
:103880005A46179990476D1C0099481E00900029D0
:10389000F5DC08E0029802995A460078491C02912A
:1038A000179990476D1CBAF10001AAF1010AF1DCE9
:1038B00065E10000092801003031323334353637F4
:1038C000383961626364656600000000303132336C
:1038D000343536373839414243444546000000000C
:1038E00000F058F90544761C307800287FF4ECADE0
:1038F00019B02846BDE8F08F620700D4062709F109
:10390000070222F0070CFCE80223E14603F000481E
:103910005FEA080C02D00FF2702C0DE05FEA045C45
:1039200002D50FF2682C07E05FEAC47C02D00FF2E8
:10393000602C01E0AFF2700C4FF0FF3823F0004331
:10394000CDF850C065280CD006DC452809D04628A3
:103950001DD047283DD13DE0662818D067287ED18C
:1039600038E00021112F01DB112000E0781CCDE9A7
:10397000000106A90EA8FFF7DDFCDDE90F010E9A94
:1039800003910021009207F1010A04914DE04FF0EC
:1039900000400097CDE9011006A90EA8FFF7CAFC68
:1039A000DDE90F0203920E9B11990022DDF80CA0B5
:1039B0000093049211B9791C00EB010AB7EB0A00DD
:1039C00004D4C0F1FF3007F1010A0490AAEB07000C
:1039D000019044E0012F00DA01270021112F01DDC1
:1039E000112000E03846CDE9000106A90EA8FFF736
:1039F000A1FCDDE90F010E9A0391002104910092D0
:103A0000BA4621070CD40399514500DA8A46BAF127
:103A1000010F05DD009AAAF10101515C302908D09F
:103A2000B84202DA10F1040F06DA0121CDE90110E3
:103A300015E0AAF10101E9E7002805DC0499014439
:103A40000491AAEB000102E0411C514500DD8A46C9
:103A50000499401A401C01904FF00040029020074A
:103A600004D40198504501DBCDF8048000208DF886
:103A70004F0002980DF14F07B0F1004F25D02B20D9
:103A80000E9002984FF0020800280CDA4042029093
:103A90002D200E9007E00A210298FCF7A2FD30319C
:103AA000029007F8011DB8F10001A8F10108F2DC4D
:103AB00002980028EFD1791E0E980870307800F037
:103AC000200040F0450007F8020D12A8C01B00F1CD
:103AD00007081498007800B1012000EB0A01019852
:103AE00001EBE07105984144401A401E0590E00347
:103AF00006D45B462146179A059800F05DF8054408
:103B00001498007818B15A46179990476D1CE00335
:103B100024D55B462146179A059800F04DF80544D8
:103B20001CE00498002807DBDDE90301884203DD7F
:103B30000098405C179901E0179930205A46904749
:103B4000049805F10105401C04900198401E019065
:103B500004D12E205A46179990476D1CBAF10001E6
:103B6000AAF1010ADDDC05E017F8010B5A461799A6
:103B700090476D1CB8F10001A8F10108F4DC5B4628
:103B80002146179A0598ABE62D0000002B00000097
:103B9000200000002DE9F041044600251E4617468E
:103BA000880404D405E039462020B0476D1C641E0B
:103BB000F9D52846BDE8F0812DE9F04104460025FD
:103BC0001E469046C80301D5302700E02027880410
:103BD00004D505E041463846B0476D1C641EF9D552
:103BE0002846BDE8F08100000149FFF74FBB000007
:103BF0000000002010B5044601E0FFF747FB14F871
:103C0000010B04490028F8D1BDE810400A20FFF755
:103C10003DBB000000000020020406080000000078
:103C20000102030401020304060708090000000062
:103C3000000000000000000000000000000000F88C
:103C400000000000000000333000000000100C06EF
:103C5000100C0600000000000000000040C078408A
:103C6000C0784000043F04043F040400007088FC56
:103C700008300000001820FF211E0000F008F000AE
:103C8000E018000000211C031E211E0000F008881F
:103C9000700000001E2123241927211010160E0089
:103CA000000000000000000000000000000000E034
:103CB0001804020000000007182040000002041849
:103CC000E00000000040201807000000404080F0A5
:103CD000804040000202010F01020200000000F0DB
:103CE000000000000101011F0101010000000000AF
:103CF0000000000080B07000000000000000000024
:103D000000000000000101010101010100000000AC
:103D10000000000000303000000000000000000043
:103D200080601804006018060100000000E0100820
:103D30000810E000000F102020100F00001010F8F5
:103D4000000000000020203F202000000070080834
:103D500008887000003028242221300000300888B4
:103D6000884830000018202020110E000000C020DC
:103D700010F8000000070424243F240000F80888FD
:103D8000880808000019212020110E0000E010888A
:103D900088180000000F112020110E0000380808BC
:103DA000C83808000000003F0000000000708808CC
:103DB00008887000001C222121221C0000E010084D
:103DC0000810E0000000312222110F00000000C0A6
:103DD000C000000000000030300000000000008043
:103DE0000000000000008060000000000000804033
:103DF000201008000001020408102000404040404C
:103E0000404040000404040404040400000810209E
:103E100040800000002010080402010000704808E3
:103E20000808F0000000003036010000C030C8284B
:103E3000E810E0000718272423140B000000C03806
:103E4000E0000000203C23020227382008F8888880
:103E500088700000203F202020110E00C03008088C
:103E600008083800071820202010080008F8080863
:103E70000810E000203F202020100F0008F888885C
:103E8000E8081000203F20202320180008F8888828
:103E9000E8081000203F200003000000C0300808A0
:103EA0000838000007182020221E020008F8080029
:103EB0000008F808203F210101213F20000808F8F0
:103EC000080800000020203F202000000000080813
:103ED000F8080800C08080807F00000008F888C0D3
:103EE00028180800203F20012638200008F8080084
:103EF00000000000203F20202020300008F8F800BB
:103F0000F8F80800203F003F003F200008F830C0CC
:103F10000008F808203F200007183F00E0100808BC
:103F20000810E0000F10202020100F0008F80808EB
:103F30000808F000203F210101010000E0100808FE
:103F40000810E0000F18242438504F0008F8888823
:103F500088887000203F2000030C30200070880803
:103F6000080838000038202121221C00180808F811
:103F7000080818000000203F2000000008F8080092
:103F80000008F808001F202020201F000878880063
:103F900000C83808000007380E010000F80800F8D3
:103FA0000008F800033C0700073C0300081868807D
:103FB0008068180820302C03032C30200838C800F3
:103FC000C83808000000203F200000001008080842
:103FD000C83808002038262120201800000000FEE4
:103FE000020202000000007F40404000000C30C090
:103FF00000000000000000010638C00000020202BC
:10400000FE000000004040407F000000000004026D
:104010000202040000000000000000000000000098
:104020000000000080808080808080800002020488
:104030000000000000000000000000000000808080
:10404000808000000019242222223F2008F80080EE
:1040500080000000003F112020110E0000000080B1
:1040600080800000000E1120202011000000008040
:104070008088F800000E112020103F200000808072
:1040800080800000001F222222221300008080F086
:10409000888888180020203F2020000000008080B1
:1040A00080808000006B94949493600008F80080F6
:1040B00080800000203F210000203F200080989851
:1040C000000000000020203F2020000000000080B1
:1040D0009898000000C08080807F000008F80000F1
:1040E00080808000203F24022D302000000808F846
:1040F000000000000020203F202000008080808001
:1041000080808000203F20003F20003F8080008092
:1041100080800000203F210000203F2000008080A0
:1041200080800000001F202020201F008080008051
:104130008000000080FFA12020110E000000008000
:1041400080808000000E112020A0FF8080808000F1
:104150008080800020203F2120000100000080801E
:10416000808080000033242424241900008080E013
:10417000808000000000001F2020000080800000E0
:1041800000808000001F202020103F2080808000C1
:104190000080808000010E300806010080800080D1
:1041A000008080800F300C030C300F0000808000F6
:1041B000808080000020312E0E3120008080800021
:1041C0000080808080818E701806010000808080D1
:1041D000808080000021302C22213000000000006F
:1041E000807C020200000000003F40400000000010
:1041F000FF00000000000000FF0000000002027C41
:10420000800000000040403F000000000006010167
:104210000202040400000000000000002020204BE7
:10422000455920206D6F64652020200020204156D4
:104230004F494420206D6F64652020002020575393
:1042400032383132206D6F64652020002020526F9B
:10425000636B6572206D6F6465202000204D5033C4
:10426000504C415920206D6F6465200020477261D9
:104270007669747920206D6F6465200020426C752A
:1042800065746F6F7468206D6F646500B0420008DC
:1042900000000020F80700008008000828460008F9
:1042A000F80700208004000024330008000000000C
:1042B000B1780E80C0603010180C0C0406060203A2
:1042C00001900D020606040C8C18103060C0803876
:1042D00008E0701C06C3C1C03319329931192F2E62
:1042E0000C0C1B33632D270103061C70E034F8FF10
:1042F000033F0101F0FE07013E180FF81C0606C33C
:1043000063232363C306061CF822191E5407FEF01C
:104310005703FFF81FFFC04B0707982811C3E3702E
:10432000787CCFC6C4C4C6C36060389FC75C558064
:10433000E07F0F1CC0FF1F2A3B0E389F580C3038FF
:104340001C0E1F3331606040C001180A40606031AC
:1043500031180C06037A19AE4B380E54397398098C
:1043600003060C08183030202F39314E2030301819
:104370000833C11E2040C040402A297E29019907E8
:104380003919E3402045340111044444033C4538C5
:10439000878738543C0344E41121342D63121C04F4
:1043A00001280C483848080C0C0888787888083CA4
:1043B000C8384817E41C12631411A2E129BC2C442C
:1043C0008483971D81848481BF2D40838444C411DC
:1043D000E4E1A21145120109024422431E4518439B
:1043E0004318541E432204460901161809181C8C50
:1043F000C6E6677333013F7367E6C68C1C67011816
:104400004AC0011CC6C6C3015BC6C60F011A23FF02
:10441000FF8FFCFCCCCCFCFC08291409783059B384
:104420009901091A30211B8080233BE060011AE0CA
:104430000B0B15808028380BE0F0381C0E070303A7
:10444000C1C122B812FCFC3870E0C0800101030336
:10445000070E1C38F0E03885F0FE1F0370100107CE
:104460000F1E78F0FFFFE070381D0F0702A5031F35
:10447000FEF09D0F7FF8C06A1E781E0FFFFF577574
:10448000B8F0E040C5C0F87F0F19562A1C8245C01D
:104490008383012B3F3F9E2A01CF19693C1C0F07E4
:1044A00016011229B13C0307060119CE0B150301B1
:1044B0002849C7DDF8F87838019C78F8F8B9E10C9C
:1044C00025FFFFFF15791BDBF0E0010A1CF0301B14
:1044D0003F0FE61A01E61CC0C080CC0C1D070F3F41
:1044E0006033C0801B070F0132070B1A80C0603B8E
:1044F0000F1F013C1E1E1C014B1E1E1002130F3A03
:104500008083F90129C239092A807751180AC0F03D
:10451000F8FCFEFF7F3F3F4A1B3F7F7E09100119D9
:104520009D190616FEFCF8F0C03AFE124AE0413C26
:1045300080C0E00F595D190A1AF10132E01AE10852
:104540002AF335E94C3C7F3F1FED39F359718BFE5F
:10455000FE278A072A05121F0F07018D01070F1F6B
:10456000A71A07112A030109112AB936E92529B02A
:10457000180FE0E0F0F0F0F8F8FCFCFCFE7E7E7F27
:10458000E12AE0D539D786F0783C1E0619EC2B03DA
:104590000F742B8707455A01472D079FCFE728192E
:1045A000C94D1D3C78F03D1C20303CCD143E3820D8
:1045B0001A03A72BFEF01559501D0F0703011D33D9
:1045C000FCE01C40C0C1F81A805A19484C3F7FF8E3
:1045D0003D180883CFF77B3C9E8F28A117073FFF2C
:1045E000FFF8E06E010F3F1F0F182F80C1E3F37F2C
:1045F0003F51111E021FFFFFFCC739C81C3C1E3E65
:104600007D390182783B081C79B11808031F3F3FB0
:104610001F1F1FB71B0606D179D05135012030204E
:084620001AC2013905291C0032
:04000005080000ED02
:00000001FF
